{
  "contractName": "GovernorAlpha",
  "abi": [
    {
      "inputs": [
        {
          "internalType": "address",
          "name": "_timelock",
          "type": "address"
        },
        {
          "internalType": "address",
          "name": "_zora",
          "type": "address"
        },
        {
          "internalType": "address",
          "name": "_guardian",
          "type": "address"
        }
      ],
      "stateMutability": "nonpayable",
      "type": "constructor"
    },
    {
      "anonymous": false,
      "inputs": [
        {
          "indexed": false,
          "internalType": "uint256",
          "name": "id",
          "type": "uint256"
        }
      ],
      "name": "ProposalCanceled",
      "type": "event"
    },
    {
      "anonymous": false,
      "inputs": [
        {
          "indexed": false,
          "internalType": "uint256",
          "name": "id",
          "type": "uint256"
        },
        {
          "indexed": false,
          "internalType": "address",
          "name": "proposer",
          "type": "address"
        },
        {
          "indexed": false,
          "internalType": "address[]",
          "name": "targets",
          "type": "address[]"
        },
        {
          "indexed": false,
          "internalType": "uint256[]",
          "name": "values",
          "type": "uint256[]"
        },
        {
          "indexed": false,
          "internalType": "string[]",
          "name": "signatures",
          "type": "string[]"
        },
        {
          "indexed": false,
          "internalType": "bytes[]",
          "name": "calldatas",
          "type": "bytes[]"
        },
        {
          "indexed": false,
          "internalType": "uint256",
          "name": "startBlock",
          "type": "uint256"
        },
        {
          "indexed": false,
          "internalType": "uint256",
          "name": "endBlock",
          "type": "uint256"
        },
        {
          "indexed": false,
          "internalType": "string",
          "name": "description",
          "type": "string"
        }
      ],
      "name": "ProposalCreated",
      "type": "event"
    },
    {
      "anonymous": false,
      "inputs": [
        {
          "indexed": false,
          "internalType": "uint256",
          "name": "id",
          "type": "uint256"
        }
      ],
      "name": "ProposalExecuted",
      "type": "event"
    },
    {
      "anonymous": false,
      "inputs": [
        {
          "indexed": false,
          "internalType": "uint256",
          "name": "id",
          "type": "uint256"
        },
        {
          "indexed": false,
          "internalType": "uint256",
          "name": "eta",
          "type": "uint256"
        }
      ],
      "name": "ProposalQueued",
      "type": "event"
    },
    {
      "anonymous": false,
      "inputs": [
        {
          "indexed": false,
          "internalType": "address",
          "name": "voter",
          "type": "address"
        },
        {
          "indexed": false,
          "internalType": "uint256",
          "name": "proposalId",
          "type": "uint256"
        },
        {
          "indexed": false,
          "internalType": "bool",
          "name": "support",
          "type": "bool"
        },
        {
          "indexed": false,
          "internalType": "uint256",
          "name": "votes",
          "type": "uint256"
        }
      ],
      "name": "VoteCast",
      "type": "event"
    },
    {
      "inputs": [],
      "name": "BALLOT_TYPEHASH",
      "outputs": [
        {
          "internalType": "bytes32",
          "name": "",
          "type": "bytes32"
        }
      ],
      "stateMutability": "view",
      "type": "function"
    },
    {
      "inputs": [],
      "name": "DOMAIN_TYPEHASH",
      "outputs": [
        {
          "internalType": "bytes32",
          "name": "",
          "type": "bytes32"
        }
      ],
      "stateMutability": "view",
      "type": "function"
    },
    {
      "inputs": [],
      "name": "guardian",
      "outputs": [
        {
          "internalType": "address",
          "name": "",
          "type": "address"
        }
      ],
      "stateMutability": "view",
      "type": "function"
    },
    {
      "inputs": [
        {
          "internalType": "address",
          "name": "",
          "type": "address"
        }
      ],
      "name": "latestProposalIds",
      "outputs": [
        {
          "internalType": "uint256",
          "name": "",
          "type": "uint256"
        }
      ],
      "stateMutability": "view",
      "type": "function"
    },
    {
      "inputs": [],
      "name": "name",
      "outputs": [
        {
          "internalType": "string",
          "name": "",
          "type": "string"
        }
      ],
      "stateMutability": "view",
      "type": "function"
    },
    {
      "inputs": [],
      "name": "proposalCount",
      "outputs": [
        {
          "internalType": "uint256",
          "name": "",
          "type": "uint256"
        }
      ],
      "stateMutability": "view",
      "type": "function"
    },
    {
      "inputs": [
        {
          "internalType": "uint256",
          "name": "",
          "type": "uint256"
        }
      ],
      "name": "proposals",
      "outputs": [
        {
          "internalType": "uint256",
          "name": "id",
          "type": "uint256"
        },
        {
          "internalType": "address",
          "name": "proposer",
          "type": "address"
        },
        {
          "internalType": "uint256",
          "name": "eta",
          "type": "uint256"
        },
        {
          "internalType": "uint256",
          "name": "startBlock",
          "type": "uint256"
        },
        {
          "internalType": "uint256",
          "name": "endBlock",
          "type": "uint256"
        },
        {
          "internalType": "uint256",
          "name": "forVotes",
          "type": "uint256"
        },
        {
          "internalType": "uint256",
          "name": "againstVotes",
          "type": "uint256"
        },
        {
          "internalType": "bool",
          "name": "canceled",
          "type": "bool"
        },
        {
          "internalType": "bool",
          "name": "executed",
          "type": "bool"
        }
      ],
      "stateMutability": "view",
      "type": "function"
    },
    {
      "inputs": [],
      "name": "timelock",
      "outputs": [
        {
          "internalType": "contract TimelockInterface",
          "name": "",
          "type": "address"
        }
      ],
      "stateMutability": "view",
      "type": "function"
    },
    {
      "inputs": [],
      "name": "zora",
      "outputs": [
        {
          "internalType": "contract Zoracles",
          "name": "",
          "type": "address"
        }
      ],
      "stateMutability": "view",
      "type": "function"
    },
    {
      "inputs": [],
      "name": "quorumVotes",
      "outputs": [
        {
          "internalType": "uint256",
          "name": "",
          "type": "uint256"
        }
      ],
      "stateMutability": "view",
      "type": "function"
    },
    {
      "inputs": [],
      "name": "proposalThreshold",
      "outputs": [
        {
          "internalType": "uint256",
          "name": "",
          "type": "uint256"
        }
      ],
      "stateMutability": "view",
      "type": "function"
    },
    {
      "inputs": [],
      "name": "proposalMaxOperations",
      "outputs": [
        {
          "internalType": "uint256",
          "name": "",
          "type": "uint256"
        }
      ],
      "stateMutability": "pure",
      "type": "function"
    },
    {
      "inputs": [],
      "name": "votingDelay",
      "outputs": [
        {
          "internalType": "uint256",
          "name": "",
          "type": "uint256"
        }
      ],
      "stateMutability": "pure",
      "type": "function"
    },
    {
      "inputs": [],
      "name": "votingPeriod",
      "outputs": [
        {
          "internalType": "uint256",
          "name": "",
          "type": "uint256"
        }
      ],
      "stateMutability": "pure",
      "type": "function"
    },
    {
      "inputs": [
        {
          "internalType": "address[]",
          "name": "targets",
          "type": "address[]"
        },
        {
          "internalType": "uint256[]",
          "name": "values",
          "type": "uint256[]"
        },
        {
          "internalType": "string[]",
          "name": "signatures",
          "type": "string[]"
        },
        {
          "internalType": "bytes[]",
          "name": "calldatas",
          "type": "bytes[]"
        },
        {
          "internalType": "string",
          "name": "description",
          "type": "string"
        }
      ],
      "name": "propose",
      "outputs": [
        {
          "internalType": "uint256",
          "name": "",
          "type": "uint256"
        }
      ],
      "stateMutability": "nonpayable",
      "type": "function"
    },
    {
      "inputs": [
        {
          "internalType": "uint256",
          "name": "proposalId",
          "type": "uint256"
        }
      ],
      "name": "queue",
      "outputs": [],
      "stateMutability": "nonpayable",
      "type": "function"
    },
    {
      "inputs": [
        {
          "internalType": "uint256",
          "name": "proposalId",
          "type": "uint256"
        }
      ],
      "name": "execute",
      "outputs": [],
      "stateMutability": "payable",
      "type": "function"
    },
    {
      "inputs": [
        {
          "internalType": "uint256",
          "name": "proposalId",
          "type": "uint256"
        }
      ],
      "name": "cancel",
      "outputs": [],
      "stateMutability": "nonpayable",
      "type": "function"
    },
    {
      "inputs": [
        {
          "internalType": "uint256",
          "name": "proposalId",
          "type": "uint256"
        }
      ],
      "name": "getActions",
      "outputs": [
        {
          "internalType": "address[]",
          "name": "targets",
          "type": "address[]"
        },
        {
          "internalType": "uint256[]",
          "name": "values",
          "type": "uint256[]"
        },
        {
          "internalType": "string[]",
          "name": "signatures",
          "type": "string[]"
        },
        {
          "internalType": "bytes[]",
          "name": "calldatas",
          "type": "bytes[]"
        }
      ],
      "stateMutability": "view",
      "type": "function"
    },
    {
      "inputs": [
        {
          "internalType": "uint256",
          "name": "proposalId",
          "type": "uint256"
        },
        {
          "internalType": "address",
          "name": "voter",
          "type": "address"
        }
      ],
      "name": "getReceipt",
      "outputs": [
        {
          "components": [
            {
              "internalType": "bool",
              "name": "hasVoted",
              "type": "bool"
            },
            {
              "internalType": "bool",
              "name": "support",
              "type": "bool"
            },
            {
              "internalType": "uint256",
              "name": "votes",
              "type": "uint256"
            }
          ],
          "internalType": "struct GovernorAlpha.Receipt",
          "name": "",
          "type": "tuple"
        }
      ],
      "stateMutability": "view",
      "type": "function"
    },
    {
      "inputs": [
        {
          "internalType": "uint256",
          "name": "proposalId",
          "type": "uint256"
        }
      ],
      "name": "state",
      "outputs": [
        {
          "internalType": "enum GovernorAlpha.ProposalState",
          "name": "",
          "type": "uint8"
        }
      ],
      "stateMutability": "view",
      "type": "function"
    },
    {
      "inputs": [
        {
          "internalType": "uint256",
          "name": "proposalId",
          "type": "uint256"
        },
        {
          "internalType": "bool",
          "name": "support",
          "type": "bool"
        }
      ],
      "name": "castVote",
      "outputs": [],
      "stateMutability": "nonpayable",
      "type": "function"
    },
    {
      "inputs": [
        {
          "internalType": "uint256",
          "name": "proposalId",
          "type": "uint256"
        },
        {
          "internalType": "bool",
          "name": "support",
          "type": "bool"
        },
        {
          "internalType": "uint8",
          "name": "v",
          "type": "uint8"
        },
        {
          "internalType": "bytes32",
          "name": "r",
          "type": "bytes32"
        },
        {
          "internalType": "bytes32",
          "name": "s",
          "type": "bytes32"
        }
      ],
      "name": "castVoteBySig",
      "outputs": [],
      "stateMutability": "nonpayable",
      "type": "function"
    },
    {
      "inputs": [],
      "name": "__acceptAdmin",
      "outputs": [],
      "stateMutability": "nonpayable",
      "type": "function"
    },
    {
      "inputs": [],
      "name": "__abdicate",
      "outputs": [],
      "stateMutability": "nonpayable",
      "type": "function"
    },
    {
      "inputs": [
        {
          "internalType": "address",
          "name": "newPendingAdmin",
          "type": "address"
        },
        {
          "internalType": "uint256",
          "name": "eta",
          "type": "uint256"
        }
      ],
      "name": "__queueSetTimelockPendingAdmin",
      "outputs": [],
      "stateMutability": "nonpayable",
      "type": "function"
    },
    {
      "inputs": [
        {
          "internalType": "address",
          "name": "newPendingAdmin",
          "type": "address"
        },
        {
          "internalType": "uint256",
          "name": "eta",
          "type": "uint256"
        }
      ],
      "name": "__executeSetTimelockPendingAdmin",
      "outputs": [],
      "stateMutability": "nonpayable",
      "type": "function"
    }
  ],
  "bytecode": "0x60806040523480156200001157600080fd5b506040516200524238038062005242833981810160405281019062000037919062000119565b826000806101000a81548173ffffffffffffffffffffffffffffffffffffffff021916908373ffffffffffffffffffffffffffffffffffffffff16021790555081600160006101000a81548173ffffffffffffffffffffffffffffffffffffffff021916908373ffffffffffffffffffffffffffffffffffffffff16021790555080600260006101000a81548173ffffffffffffffffffffffffffffffffffffffff021916908373ffffffffffffffffffffffffffffffffffffffff160217905550505050620001bd565b6000815190506200011381620001a3565b92915050565b6000806000606084860312156200012f57600080fd5b60006200013f8682870162000102565b9350506020620001528682870162000102565b9250506040620001658682870162000102565b9150509250925092565b60006200017c8262000183565b9050919050565b600073ffffffffffffffffffffffffffffffffffffffff82169050919050565b620001ae816200016f565b8114620001ba57600080fd5b50565b61507580620001cd6000396000f3fe60806040526004361061019c5760003560e01c8063452a9320116100ec578063d33219b41161008a578063ddf0b00911610064578063ddf0b009146105b1578063deaaa7cc146105da578063e23a9a5214610605578063fe0d94c1146106425761019c565b8063d33219b41461051e578063da35c66414610549578063da95691a146105745761019c565b80637bdbe4d0116100c65780637bdbe4d01461048857806391500671146104b3578063b58131b0146104dc578063b9a61961146105075761019c565b8063452a93201461041d5780634634c61f14610448578063760fbc13146104715761019c565b806320606b7011610159578063328dd98211610133578063328dd9821461034c5780633932abb11461038c5780633e4f49e6146103b757806340e58ee5146103f45761019c565b806320606b70146102cd57806321f43e42146102f857806324bc1a64146103215761019c565b8063013cf08b146101a157806302a251a3146101e657806306fdde031461021157806315373e3d1461023c578063166f46a71461026557806317977c6114610290575b600080fd5b3480156101ad57600080fd5b506101c860048036038101906101c391906133a1565b61065e565b6040516101dd99989796959493929190614b00565b60405180910390f35b3480156101f257600080fd5b506101fb6106e6565b6040516102089190614a35565b60405180910390f35b34801561021d57600080fd5b506102266106f0565b6040516102339190614758565b60405180910390f35b34801561024857600080fd5b50610263600480360381019061025e919061342f565b610729565b005b34801561027157600080fd5b5061027a610738565b6040516102879190614722565b60405180910390f35b34801561029c57600080fd5b506102b760048036038101906102b291906131ba565b61075e565b6040516102c49190614a35565b60405180910390f35b3480156102d957600080fd5b506102e2610776565b6040516102ef919061462b565b60405180910390f35b34801561030457600080fd5b5061031f600480360381019061031a91906131e3565b61079a565b005b34801561032d57600080fd5b50610336610925565b6040516103439190614a35565b60405180910390f35b34801561035857600080fd5b50610373600480360381019061036e91906133a1565b6109d6565b60405161038394939291906145ca565b60405180910390f35b34801561039857600080fd5b506103a1610cb3565b6040516103ae9190614a35565b60405180910390f35b3480156103c357600080fd5b506103de60048036038101906103d991906133a1565b610cbc565b6040516103eb919061473d565b60405180910390f35b34801561040057600080fd5b5061041b600480360381019061041691906133a1565b610e9f565b005b34801561042957600080fd5b50610432611229565b60405161043f91906143f7565b60405180910390f35b34801561045457600080fd5b5061046f600480360381019061046a919061346b565b61124f565b005b34801561047d57600080fd5b50610486611438565b005b34801561049457600080fd5b5061049d61150c565b6040516104aa9190614a35565b60405180910390f35b3480156104bf57600080fd5b506104da60048036038101906104d591906131e3565b611515565b005b3480156104e857600080fd5b506104f161169b565b6040516104fe9190614a35565b60405180910390f35b34801561051357600080fd5b5061051c61174c565b005b34801561052a57600080fd5b5061053361185e565b6040516105409190614707565b60405180910390f35b34801561055557600080fd5b5061055e611882565b60405161056b9190614a35565b60405180910390f35b34801561058057600080fd5b5061059b6004803603810190610596919061321f565b611888565b6040516105a89190614a35565b60405180910390f35b3480156105bd57600080fd5b506105d860048036038101906105d391906133a1565b611e47565b005b3480156105e657600080fd5b506105ef612192565b6040516105fc919061462b565b60405180910390f35b34801561061157600080fd5b5061062c600480360381019061062791906133f3565b6121b6565b6040516106399190614a1a565b60405180910390f35b61065c600480360381019061065791906133a1565b612264565b005b60046020528060005260406000206000915090508060000154908060010160009054906101000a900473ffffffffffffffffffffffffffffffffffffffff169080600201549080600701549080600801549080600901549080600a01549080600b0160009054906101000a900460ff169080600b0160019054906101000a900460ff16905089565b6000617080905090565b6040518060400160405280601781526020017f5a6f7261636c657320476f7665726e6f7220416c70686100000000000000000081525081565b6107343383836124ad565b5050565b600160009054906101000a900473ffffffffffffffffffffffffffffffffffffffff1681565b60056020528060005260406000206000915090505481565b7f8cad95687ba82c2ce50e74f7b754645e5117c3a5bec8151c0726d5857980a86681565b600260009054906101000a900473ffffffffffffffffffffffffffffffffffffffff1673ffffffffffffffffffffffffffffffffffffffff163373ffffffffffffffffffffffffffffffffffffffff161461082a576040517f08c379a0000000000000000000000000000000000000000000000000000000008152600401610821906147da565b60405180910390fd5b60008054906101000a900473ffffffffffffffffffffffffffffffffffffffff1673ffffffffffffffffffffffffffffffffffffffff16630825f38f60008054906101000a900473ffffffffffffffffffffffffffffffffffffffff1660008560405160200161089a91906143f7565b604051602081830303815290604052856040518563ffffffff1660e01b81526004016108c9949392919061443b565b600060405180830381600087803b1580156108e357600080fd5b505af11580156108f7573d6000803e3d6000fd5b505050506040513d6000823e3d601f19601f820116820180604052508101906109209190613360565b505050565b6000600a600160009054906101000a900473ffffffffffffffffffffffffffffffffffffffff1673ffffffffffffffffffffffffffffffffffffffff166318160ddd6040518163ffffffff1660e01b815260040160206040518083038186803b15801561099157600080fd5b505afa1580156109a5573d6000803e3d6000fd5b505050506040513d601f19601f820116820180604052508101906109c991906133ca565b816109d057fe5b04905090565b60608060608060006004600087815260200190815260200160002090508060030181600401826005018360060183805480602002602001604051908101604052809291908181526020018280548015610a8457602002820191906000526020600020905b8160009054906101000a900473ffffffffffffffffffffffffffffffffffffffff1673ffffffffffffffffffffffffffffffffffffffff1681526020019060010190808311610a3a575b5050505050935082805480602002602001604051908101604052809291908181526020018280548015610ad657602002820191906000526020600020905b815481526020019060010190808311610ac2575b5050505050925081805480602002602001604051908101604052809291908181526020016000905b82821015610bba578382906000526020600020018054600181600116156101000203166002900480601f016020809104026020016040519081016040528092919081815260200182805460018160011615610100020316600290048015610ba65780601f10610b7b57610100808354040283529160200191610ba6565b820191906000526020600020905b815481529060010190602001808311610b8957829003601f168201915b505050505081526020019060010190610afe565b50505050915080805480602002602001604051908101604052809291908181526020016000905b82821015610c9d578382906000526020600020018054600181600116156101000203166002900480601f016020809104026020016040519081016040528092919081815260200182805460018160011615610100020316600290048015610c895780601f10610c5e57610100808354040283529160200191610c89565b820191906000526020600020905b815481529060010190602001808311610c6c57829003601f168201915b505050505081526020019060010190610be1565b5050505090509450945094509450509193509193565b60006001905090565b60008160035410158015610cd05750600082115b610d0f576040517f08c379a0000000000000000000000000000000000000000000000000000000008152600401610d06906147fa565b60405180910390fd5b600060046000848152602001908152602001600020905080600b0160009054906101000a900460ff1615610d47576002915050610e9a565b80600701544311610d5c576000915050610e9a565b80600801544311610d71576001915050610e9a565b80600a01548160090154111580610d925750610d8b610925565b8160090154105b15610da1576003915050610e9a565b600081600201541415610db8576004915050610e9a565b80600b0160019054906101000a900460ff1615610dd9576007915050610e9a565b610e84816002015460008054906101000a900473ffffffffffffffffffffffffffffffffffffffff1673ffffffffffffffffffffffffffffffffffffffff1663c1a287e26040518163ffffffff1660e01b815260040160206040518083038186803b158015610e4757600080fd5b505afa158015610e5b573d6000803e3d6000fd5b505050506040513d601f19601f82011682018060405250810190610e7f91906133ca565b612736565b4210610e94576006915050610e9a565b60059150505b919050565b6000610eaa82610cbc565b9050600780811115610eb857fe5b816007811115610ec457fe5b1415610f05576040517f08c379a0000000000000000000000000000000000000000000000000000000008152600401610efc9061499a565b60405180910390fd5b6000600460008481526020019081526020016000209050600260009054906101000a900473ffffffffffffffffffffffffffffffffffffffff1673ffffffffffffffffffffffffffffffffffffffff163373ffffffffffffffffffffffffffffffffffffffff1614806110585750610f7b61169b565b600160009054906101000a900473ffffffffffffffffffffffffffffffffffffffff1673ffffffffffffffffffffffffffffffffffffffff1663782d6fe18360010160009054906101000a900473ffffffffffffffffffffffffffffffffffffffff16610fe943600161278b565b6040518363ffffffff1660e01b815260040161100692919061449a565b60206040518083038186803b15801561101e57600080fd5b505afa158015611032573d6000803e3d6000fd5b505050506040513d601f19601f8201168201806040525081019061105691906133ca565b105b611097576040517f08c379a000000000000000000000000000000000000000000000000000000000815260040161108e906148da565b60405180910390fd5b600181600b0160006101000a81548160ff02191690831515021790555060005b81600301805490508110156111ec5760008054906101000a900473ffffffffffffffffffffffffffffffffffffffff1673ffffffffffffffffffffffffffffffffffffffff1663591fcdfe83600301838154811061111157fe5b9060005260206000200160009054906101000a900473ffffffffffffffffffffffffffffffffffffffff1684600401848154811061114b57fe5b906000526020600020015485600501858154811061116557fe5b9060005260206000200186600601868154811061117e57fe5b9060005260206000200187600201546040518663ffffffff1660e01b81526004016111ad959493929190614569565b600060405180830381600087803b1580156111c757600080fd5b505af11580156111db573d6000803e3d6000fd5b5050505080806001019150506110b7565b507f789cf55be980739dad1d0699b93b58e806b51c9d96619bfa8fe0a28abaa7b30c8360405161121c9190614a35565b60405180910390a1505050565b600260009054906101000a900473ffffffffffffffffffffffffffffffffffffffff1681565b60007f8cad95687ba82c2ce50e74f7b754645e5117c3a5bec8151c0726d5857980a8666040518060400160405280601781526020017f5a6f7261636c657320476f7665726e6f7220416c706861000000000000000000815250805190602001206112b76127db565b306040516020016112cb9493929190614646565b60405160208183030381529060405280519060200120905060007f8e25870c07e0b0b3884c78da52790939a455c275406c44ae8b434b692fb916ee878760405160200161131a9392919061468b565b604051602081830303815290604052805190602001209050600082826040516020016113479291906143c0565b60405160208183030381529060405280519060200120905060006001828888886040516000815260200160405260405161138494939291906146c2565b6020604051602081039080840390855afa1580156113a6573d6000803e3d6000fd5b505050602060405103519050600073ffffffffffffffffffffffffffffffffffffffff168173ffffffffffffffffffffffffffffffffffffffff161415611422576040517f08c379a00000000000000000000000000000000000000000000000000000000081526004016114199061495a565b60405180910390fd5b61142d818a8a6124ad565b505050505050505050565b600260009054906101000a900473ffffffffffffffffffffffffffffffffffffffff1673ffffffffffffffffffffffffffffffffffffffff163373ffffffffffffffffffffffffffffffffffffffff16146114c8576040517f08c379a00000000000000000000000000000000000000000000000000000000081526004016114bf906149fa565b60405180910390fd5b6000600260006101000a81548173ffffffffffffffffffffffffffffffffffffffff021916908373ffffffffffffffffffffffffffffffffffffffff160217905550565b6000600a905090565b600260009054906101000a900473ffffffffffffffffffffffffffffffffffffffff1673ffffffffffffffffffffffffffffffffffffffff163373ffffffffffffffffffffffffffffffffffffffff16146115a5576040517f08c379a000000000000000000000000000000000000000000000000000000000815260040161159c9061485a565b60405180910390fd5b60008054906101000a900473ffffffffffffffffffffffffffffffffffffffff1673ffffffffffffffffffffffffffffffffffffffff16633a66f90160008054906101000a900473ffffffffffffffffffffffffffffffffffffffff1660008560405160200161161591906143f7565b604051602081830303815290604052856040518563ffffffff1660e01b8152600401611644949392919061443b565b602060405180830381600087803b15801561165e57600080fd5b505af1158015611672573d6000803e3d6000fd5b505050506040513d601f19601f820116820180604052508101906116969190613337565b505050565b60006064600160009054906101000a900473ffffffffffffffffffffffffffffffffffffffff1673ffffffffffffffffffffffffffffffffffffffff166318160ddd6040518163ffffffff1660e01b815260040160206040518083038186803b15801561170757600080fd5b505afa15801561171b573d6000803e3d6000fd5b505050506040513d601f19601f8201168201806040525081019061173f91906133ca565b8161174657fe5b04905090565b600260009054906101000a900473ffffffffffffffffffffffffffffffffffffffff1673ffffffffffffffffffffffffffffffffffffffff163373ffffffffffffffffffffffffffffffffffffffff16146117dc576040517f08c379a00000000000000000000000000000000000000000000000000000000081526004016117d39061477a565b60405180910390fd5b60008054906101000a900473ffffffffffffffffffffffffffffffffffffffff1673ffffffffffffffffffffffffffffffffffffffff16630e18b6816040518163ffffffff1660e01b8152600401600060405180830381600087803b15801561184457600080fd5b505af1158015611858573d6000803e3d6000fd5b50505050565b60008054906101000a900473ffffffffffffffffffffffffffffffffffffffff1681565b60035481565b600061189261169b565b600160009054906101000a900473ffffffffffffffffffffffffffffffffffffffff1673ffffffffffffffffffffffffffffffffffffffff1663782d6fe1336118dc43600161278b565b6040518363ffffffff1660e01b81526004016118f9929190614412565b60206040518083038186803b15801561191157600080fd5b505afa158015611925573d6000803e3d6000fd5b505050506040513d601f19601f8201168201806040525081019061194991906133ca565b11611989576040517f08c379a00000000000000000000000000000000000000000000000000000000081526004016119809061493a565b60405180910390fd5b8451865114801561199b575083518651145b80156119a8575082518651145b6119e7576040517f08c379a00000000000000000000000000000000000000000000000000000000081526004016119de906148ba565b60405180910390fd5b600086511415611a2c576040517f08c379a0000000000000000000000000000000000000000000000000000000008152600401611a239061491a565b60405180910390fd5b611a3461150c565b86511115611a77576040517f08c379a0000000000000000000000000000000000000000000000000000000008152600401611a6e9061487a565b60405180910390fd5b6000600560003373ffffffffffffffffffffffffffffffffffffffff1673ffffffffffffffffffffffffffffffffffffffff16815260200190815260200160002054905060008114611b86576000611ace82610cbc565b905060016007811115611add57fe5b816007811115611ae957fe5b1415611b2a576040517f08c379a0000000000000000000000000000000000000000000000000000000008152600401611b219061497a565b60405180910390fd5b60006007811115611b3757fe5b816007811115611b4357fe5b1415611b84576040517f08c379a0000000000000000000000000000000000000000000000000000000008152600401611b7b9061483a565b60405180910390fd5b505b6000611b9943611b94610cb3565b612736565b90506000611bae82611ba96106e6565b612736565b9050600360008154809291906001019190505550611bca6129ba565b604051806101a0016040528060035481526020013373ffffffffffffffffffffffffffffffffffffffff168152602001600081526020018b81526020018a815260200189815260200188815260200184815260200183815260200160008152602001600081526020016000151581526020016000151581525090508060046000836000015181526020019081526020016000206000820151816000015560208201518160010160006101000a81548173ffffffffffffffffffffffffffffffffffffffff021916908373ffffffffffffffffffffffffffffffffffffffff160217905550604082015181600201556060820151816003019080519060200190611cd4929190612a3c565b506080820151816004019080519060200190611cf1929190612ac6565b5060a0820151816005019080519060200190611d0e929190612b13565b5060c0820151816006019080519060200190611d2b929190612b73565b5060e082015181600701556101008201518160080155610120820151816009015561014082015181600a015561016082015181600b0160006101000a81548160ff02191690831515021790555061018082015181600b0160016101000a81548160ff021916908315150217905550905050806000015160056000836020015173ffffffffffffffffffffffffffffffffffffffff1673ffffffffffffffffffffffffffffffffffffffff168152602001908152602001600020819055507f7d84a6263ae0d98d3329bd7b46bb4e8d6f98cd35a7adb45c274c8b7fd5ebd5e08160000151338c8c8c8c89898e604051611e2b99989796959493929190614a50565b60405180910390a1806000015194505050505095945050505050565b60046007811115611e5457fe5b611e5d82610cbc565b6007811115611e6857fe5b14611ea8576040517f08c379a0000000000000000000000000000000000000000000000000000000008152600401611e9f9061479a565b60405180910390fd5b60006004600083815260200190815260200160002090506000611f684260008054906101000a900473ffffffffffffffffffffffffffffffffffffffff1673ffffffffffffffffffffffffffffffffffffffff16636a42b8f86040518163ffffffff1660e01b815260040160206040518083038186803b158015611f2b57600080fd5b505afa158015611f3f573d6000803e3d6000fd5b505050506040513d601f19601f82011682018060405250810190611f6391906133ca565b612736565b905060005b826003018054905081101561214a5761213d836003018281548110611f8e57fe5b9060005260206000200160009054906101000a900473ffffffffffffffffffffffffffffffffffffffff16846004018381548110611fc857fe5b9060005260206000200154856005018481548110611fe257fe5b906000526020600020018054600181600116156101000203166002900480601f0160208091040260200160405190810160405280929190818152602001828054600181600116156101000203166002900480156120805780601f1061205557610100808354040283529160200191612080565b820191906000526020600020905b81548152906001019060200180831161206357829003601f168201915b505050505086600601858154811061209457fe5b906000526020600020018054600181600116156101000203166002900480601f0160208091040260200160405190810160405280929190818152602001828054600181600116156101000203166002900480156121325780601f1061210757610100808354040283529160200191612132565b820191906000526020600020905b81548152906001019060200180831161211557829003601f168201915b5050505050866127e8565b8080600101915050611f6d565b508082600201819055507f9a2e42fd6722813d69113e7d0079d3d940171428df7373df9c7f7617cfda28928382604051612185929190614b8d565b60405180910390a1505050565b7f8e25870c07e0b0b3884c78da52790939a455c275406c44ae8b434b692fb916ee81565b6121be612bd3565b60046000848152602001908152602001600020600c0160008373ffffffffffffffffffffffffffffffffffffffff1673ffffffffffffffffffffffffffffffffffffffff1681526020019081526020016000206040518060600160405290816000820160009054906101000a900460ff161515151581526020016000820160019054906101000a900460ff16151515158152602001600182015481525050905092915050565b6005600781111561227157fe5b61227a82610cbc565b600781111561228557fe5b146122c5576040517f08c379a00000000000000000000000000000000000000000000000000000000081526004016122bc906147ba565b60405180910390fd5b6000600460008381526020019081526020016000209050600181600b0160016101000a81548160ff02191690831515021790555060005b81600301805490508110156124715760008054906101000a900473ffffffffffffffffffffffffffffffffffffffff1673ffffffffffffffffffffffffffffffffffffffff16630825f38f83600401838154811061235657fe5b906000526020600020015484600301848154811061237057fe5b9060005260206000200160009054906101000a900473ffffffffffffffffffffffffffffffffffffffff168560040185815481106123aa57fe5b90600052602060002001548660050186815481106123c457fe5b906000526020600020018760060187815481106123dd57fe5b9060005260206000200188600201546040518763ffffffff1660e01b815260040161240c959493929190614569565b6000604051808303818588803b15801561242557600080fd5b505af1158015612439573d6000803e3d6000fd5b50505050506040513d6000823e3d601f19601f820116820180604052508101906124639190613360565b5080806001019150506122fc565b507f712ae1383f79ac853f8d882153778e0260ef8f03b504e2866e0593e04d2b291f826040516124a19190614a35565b60405180910390a15050565b600160078111156124ba57fe5b6124c383610cbc565b60078111156124ce57fe5b1461250e576040517f08c379a0000000000000000000000000000000000000000000000000000000008152600401612505906149ba565b60405180910390fd5b6000600460008481526020019081526020016000209050600081600c0160008673ffffffffffffffffffffffffffffffffffffffff1673ffffffffffffffffffffffffffffffffffffffff1681526020019081526020016000209050600015158160000160009054906101000a900460ff161515146125c2576040517f08c379a00000000000000000000000000000000000000000000000000000000081526004016125b99061481a565b60405180910390fd5b6000600160009054906101000a900473ffffffffffffffffffffffffffffffffffffffff1673ffffffffffffffffffffffffffffffffffffffff1663782d6fe18785600701546040518363ffffffff1660e01b815260040161262592919061449a565b60206040518083038186803b15801561263d57600080fd5b505afa158015612651573d6000803e3d6000fd5b505050506040513d601f19601f8201168201806040525081019061267591906133ca565b905083156126985761268b836009015482612736565b83600901819055506126af565b6126a683600a015482612736565b83600a01819055505b60018260000160006101000a81548160ff021916908315150217905550838260000160016101000a81548160ff0219169083151502179055508082600101819055507f877856338e13f63d0c36822ff0ef736b80934cd90574a3a5bc9262c39d217c468686868460405161272694939291906144c3565b60405180910390a1505050505050565b600080828401905083811015612781576040517f08c379a00000000000000000000000000000000000000000000000000000000081526004016127789061489a565b60405180910390fd5b8091505092915050565b6000828211156127d0576040517f08c379a00000000000000000000000000000000000000000000000000000000081526004016127c7906149da565b60405180910390fd5b818303905092915050565b6000804690508091505090565b60008054906101000a900473ffffffffffffffffffffffffffffffffffffffff1673ffffffffffffffffffffffffffffffffffffffff1663f2b06537868686868660405160200161283d959493929190614508565b604051602081830303815290604052805190602001206040518263ffffffff1660e01b815260040161286f919061462b565b60206040518083038186803b15801561288757600080fd5b505afa15801561289b573d6000803e3d6000fd5b505050506040513d601f19601f820116820180604052508101906128bf919061330e565b156128ff576040517f08c379a00000000000000000000000000000000000000000000000000000000081526004016128f6906148fa565b60405180910390fd5b60008054906101000a900473ffffffffffffffffffffffffffffffffffffffff1673ffffffffffffffffffffffffffffffffffffffff16633a66f90186868686866040518663ffffffff1660e01b8152600401612960959493929190614508565b602060405180830381600087803b15801561297a57600080fd5b505af115801561298e573d6000803e3d6000fd5b505050506040513d601f19601f820116820180604052508101906129b29190613337565b505050505050565b604051806101a0016040528060008152602001600073ffffffffffffffffffffffffffffffffffffffff1681526020016000815260200160608152602001606081526020016060815260200160608152602001600081526020016000815260200160008152602001600081526020016000151581526020016000151581525090565b828054828255906000526020600020908101928215612ab5579160200282015b82811115612ab45782518260006101000a81548173ffffffffffffffffffffffffffffffffffffffff021916908373ffffffffffffffffffffffffffffffffffffffff16021790555091602001919060010190612a5c565b5b509050612ac29190612bf8565b5090565b828054828255906000526020600020908101928215612b02579160200282015b82811115612b01578251825591602001919060010190612ae6565b5b509050612b0f9190612c33565b5090565b828054828255906000526020600020908101928215612b62579160200282015b82811115612b61578251829080519060200190612b51929190612c50565b5091602001919060010190612b33565b5b509050612b6f9190612cd0565b5090565b828054828255906000526020600020908101928215612bc2579160200282015b82811115612bc1578251829080519060200190612bb1929190612cf4565b5091602001919060010190612b93565b5b509050612bcf9190612d74565b5090565b6040518060600160405280600015158152602001600015158152602001600081525090565b5b80821115612c2f57600081816101000a81549073ffffffffffffffffffffffffffffffffffffffff021916905550600101612bf9565b5090565b5b80821115612c4c576000816000905550600101612c34565b5090565b828054600181600116156101000203166002900490600052602060002090601f016020900481019282601f10612c9157805160ff1916838001178555612cbf565b82800160010185558215612cbf579182015b82811115612cbe578251825591602001919060010190612ca3565b5b509050612ccc9190612c33565b5090565b5b80821115612cf05760008181612ce79190612d98565b50600101612cd1565b5090565b828054600181600116156101000203166002900490600052602060002090601f016020900481019282601f10612d3557805160ff1916838001178555612d63565b82800160010185558215612d63579182015b82811115612d62578251825591602001919060010190612d47565b5b509050612d709190612c33565b5090565b5b80821115612d945760008181612d8b9190612de0565b50600101612d75565b5090565b50805460018160011615610100020316600290046000825580601f10612dbe5750612ddd565b601f016020900490600052602060002090810190612ddc9190612c33565b5b50565b50805460018160011615610100020316600290046000825580601f10612e065750612e25565b601f016020900490600052602060002090810190612e249190612c33565b5b50565b600081359050612e3781614fcc565b92915050565b600082601f830112612e4e57600080fd5b8135612e61612e5c82614be3565b614bb6565b91508181835260208401935060208101905083856020840282011115612e8657600080fd5b60005b83811015612eb65781612e9c8882612e28565b845260208401935060208301925050600181019050612e89565b5050505092915050565b600082601f830112612ed157600080fd5b8135612ee4612edf82614c0b565b614bb6565b9150818183526020840193506020810190508360005b83811015612f2a5781358601612f10888261307f565b845260208401935060208301925050600181019050612efa565b5050505092915050565b600082601f830112612f4557600080fd5b8135612f58612f5382614c33565b614bb6565b9150818183526020840193506020810190508360005b83811015612f9e5781358601612f848882613127565b845260208401935060208301925050600181019050612f6e565b5050505092915050565b600082601f830112612fb957600080fd5b8135612fcc612fc782614c5b565b614bb6565b91508181835260208401935060208101905083856020840282011115612ff157600080fd5b60005b838110156130215781613007888261317b565b845260208401935060208301925050600181019050612ff4565b5050505092915050565b60008135905061303a81614fe3565b92915050565b60008151905061304f81614fe3565b92915050565b60008135905061306481614ffa565b92915050565b60008151905061307981614ffa565b92915050565b600082601f83011261309057600080fd5b81356130a361309e82614c83565b614bb6565b915080825260208301602083018583830111156130bf57600080fd5b6130ca838284614f62565b50505092915050565b600082601f8301126130e457600080fd5b81516130f76130f282614c83565b614bb6565b9150808252602083016020830185838301111561311357600080fd5b61311e838284614f71565b50505092915050565b600082601f83011261313857600080fd5b813561314b61314682614caf565b614bb6565b9150808252602083016020830185838301111561316757600080fd5b613172838284614f62565b50505092915050565b60008135905061318a81615011565b92915050565b60008151905061319f81615011565b92915050565b6000813590506131b481615028565b92915050565b6000602082840312156131cc57600080fd5b60006131da84828501612e28565b91505092915050565b600080604083850312156131f657600080fd5b600061320485828601612e28565b92505060206132158582860161317b565b9150509250929050565b600080600080600060a0868803121561323757600080fd5b600086013567ffffffffffffffff81111561325157600080fd5b61325d88828901612e3d565b955050602086013567ffffffffffffffff81111561327a57600080fd5b61328688828901612fa8565b945050604086013567ffffffffffffffff8111156132a357600080fd5b6132af88828901612f34565b935050606086013567ffffffffffffffff8111156132cc57600080fd5b6132d888828901612ec0565b925050608086013567ffffffffffffffff8111156132f557600080fd5b61330188828901613127565b9150509295509295909350565b60006020828403121561332057600080fd5b600061332e84828501613040565b91505092915050565b60006020828403121561334957600080fd5b60006133578482850161306a565b91505092915050565b60006020828403121561337257600080fd5b600082015167ffffffffffffffff81111561338c57600080fd5b613398848285016130d3565b91505092915050565b6000602082840312156133b357600080fd5b60006133c18482850161317b565b91505092915050565b6000602082840312156133dc57600080fd5b60006133ea84828501613190565b91505092915050565b6000806040838503121561340657600080fd5b60006134148582860161317b565b925050602061342585828601612e28565b9150509250929050565b6000806040838503121561344257600080fd5b60006134508582860161317b565b92505060206134618582860161302b565b9150509250929050565b600080600080600060a0868803121561348357600080fd5b60006134918882890161317b565b95505060206134a28882890161302b565b94505060406134b3888289016131a5565b93505060606134c488828901613055565b92505060806134d588828901613055565b9150509295509295909350565b60006134ee8383613549565b60208301905092915050565b60006135068383613751565b905092915050565b600061351a838361388e565b905092915050565b600061352e8383614393565b60208301905092915050565b61354381614ec0565b82525050565b61355281614e4e565b82525050565b61356181614e4e565b82525050565b600061357282614d45565b61357c8185614dbb565b935061358783614cdb565b8060005b838110156135b857815161359f88826134e2565b97506135aa83614d87565b92505060018101905061358b565b5085935050505092915050565b60006135d082614d50565b6135da8185614dcc565b9350836020820285016135ec85614ceb565b8060005b85811015613628578484038952815161360985826134fa565b945061361483614d94565b925060208a019950506001810190506135f0565b50829750879550505050505092915050565b600061364582614d5b565b61364f8185614ddd565b93508360208202850161366185614cfb565b8060005b8581101561369d578484038952815161367e858261350e565b945061368983614da1565b925060208a01995050600181019050613665565b50829750879550505050505092915050565b60006136ba82614d66565b6136c48185614dee565b93506136cf83614d0b565b8060005b838110156137005781516136e78882613522565b97506136f283614dae565b9250506001810190506136d3565b5085935050505092915050565b61371681614e60565b82525050565b61372581614e60565b82525050565b61373481614e6c565b82525050565b61374b61374682614e6c565b614fa4565b82525050565b600061375c82614d71565b6137668185614dff565b9350613776818560208601614f71565b61377f81614fae565b840191505092915050565b600061379582614d71565b61379f8185614e10565b93506137af818560208601614f71565b6137b881614fae565b840191505092915050565b6000815460018116600081146137e057600181146138065761384a565b607f60028304166137f18187614e10565b955060ff19831686526020860193505061384a565b600282046138148187614e10565b955061381f85614d1b565b60005b8281101561384157815481890152600182019150602081019050613822565b80880195505050505b505092915050565b61385b81614ed2565b82525050565b61386a81614ef6565b82525050565b61387981614f1a565b82525050565b61388881614f2c565b82525050565b600061389982614d7c565b6138a38185614e21565b93506138b3818560208601614f71565b6138bc81614fae565b840191505092915050565b60006138d282614d7c565b6138dc8185614e32565b93506138ec818560208601614f71565b6138f581614fae565b840191505092915050565b60008154600181166000811461391d576001811461394357613987565b607f600283041661392e8187614e32565b955060ff198316865260208601935050613987565b600282046139518187614e32565b955061395c85614d30565b60005b8281101561397e5781548189015260018201915060208101905061395f565b80880195505050505b505092915050565b600061399c603983614e32565b91507f476f7665726e6f72416c7068613a3a5f5f61636365707441646d696e3a20736560008301527f6e646572206d75737420626520676f7620677561726469616e000000000000006020830152604082019050919050565b6000613a02604483614e32565b91507f476f7665726e6f72416c7068613a3a71756575653a2070726f706f73616c206360008301527f616e206f6e6c792062652071756575656420696620697420697320737563636560208301527f65646564000000000000000000000000000000000000000000000000000000006040830152606082019050919050565b6000613a8e604583614e32565b91507f476f7665726e6f72416c7068613a3a657865637574653a2070726f706f73616c60008301527f2063616e206f6e6c79206265206578656375746564206966206974206973207160208301527f75657565640000000000000000000000000000000000000000000000000000006040830152606082019050919050565b6000613b1a600283614e43565b91507f19010000000000000000000000000000000000000000000000000000000000006000830152600282019050919050565b6000613b5a604c83614e32565b91507f476f7665726e6f72416c7068613a3a5f5f6578656375746553657454696d656c60008301527f6f636b50656e64696e6741646d696e3a2073656e646572206d7573742062652060208301527f676f7620677561726469616e00000000000000000000000000000000000000006040830152606082019050919050565b6000613be6601883614e32565b91507f73657450656e64696e6741646d696e28616464726573732900000000000000006000830152602082019050919050565b6000613c26602983614e32565b91507f476f7665726e6f72416c7068613a3a73746174653a20696e76616c696420707260008301527f6f706f73616c20696400000000000000000000000000000000000000000000006020830152604082019050919050565b6000613c8c602d83614e32565b91507f476f7665726e6f72416c7068613a3a5f63617374566f74653a20766f7465722060008301527f616c726561647920766f746564000000000000000000000000000000000000006020830152604082019050919050565b6000613cf2605983614e32565b91507f476f7665726e6f72416c7068613a3a70726f706f73653a206f6e65206c69766560008301527f2070726f706f73616c207065722070726f706f7365722c20666f756e6420616e60208301527f20616c72656164792070656e64696e672070726f706f73616c000000000000006040830152606082019050919050565b6000613d7e604a83614e32565b91507f476f7665726e6f72416c7068613a3a5f5f717565756553657454696d656c6f6360008301527f6b50656e64696e6741646d696e3a2073656e646572206d75737420626520676f60208301527f7620677561726469616e000000000000000000000000000000000000000000006040830152606082019050919050565b6000613e0a602883614e32565b91507f476f7665726e6f72416c7068613a3a70726f706f73653a20746f6f206d616e7960008301527f20616374696f6e730000000000000000000000000000000000000000000000006020830152604082019050919050565b6000613e70601183614e32565b91507f6164646974696f6e206f766572666c6f770000000000000000000000000000006000830152602082019050919050565b6000613eb0604483614e32565b91507f476f7665726e6f72416c7068613a3a70726f706f73653a2070726f706f73616c60008301527f2066756e6374696f6e20696e666f726d6174696f6e206172697479206d69736d60208301527f61746368000000000000000000000000000000000000000000000000000000006040830152606082019050919050565b6000613f3c602f83614e32565b91507f476f7665726e6f72416c7068613a3a63616e63656c3a2070726f706f7365722060008301527f61626f7665207468726573686f6c6400000000000000000000000000000000006020830152604082019050919050565b6000613fa2604483614e32565b91507f476f7665726e6f72416c7068613a3a5f71756575654f725265766572743a207060008301527f726f706f73616c20616374696f6e20616c72656164792071756575656420617460208301527f20657461000000000000000000000000000000000000000000000000000000006040830152606082019050919050565b600061402e602c83614e32565b91507f476f7665726e6f72416c7068613a3a70726f706f73653a206d7573742070726f60008301527f7669646520616374696f6e7300000000000000000000000000000000000000006020830152604082019050919050565b6000614094603f83614e32565b91507f476f7665726e6f72416c7068613a3a70726f706f73653a2070726f706f73657260008301527f20766f7465732062656c6f772070726f706f73616c207468726573686f6c64006020830152604082019050919050565b60006140fa602f83614e32565b91507f476f7665726e6f72416c7068613a3a63617374566f746542795369673a20696e60008301527f76616c6964207369676e617475726500000000000000000000000000000000006020830152604082019050919050565b6000614160605883614e32565b91507f476f7665726e6f72416c7068613a3a70726f706f73653a206f6e65206c69766560008301527f2070726f706f73616c207065722070726f706f7365722c20666f756e6420616e60208301527f20616c7265616479206163746976652070726f706f73616c00000000000000006040830152606082019050919050565b60006141ec603683614e32565b91507f476f7665726e6f72416c7068613a3a63616e63656c3a2063616e6e6f7420636160008301527f6e63656c2065786563757465642070726f706f73616c000000000000000000006020830152604082019050919050565b6000614252602a83614e32565b91507f476f7665726e6f72416c7068613a3a5f63617374566f74653a20766f74696e6760008301527f20697320636c6f736564000000000000000000000000000000000000000000006020830152604082019050919050565b60006142b8601583614e32565b91507f7375627472616374696f6e20756e646572666c6f7700000000000000000000006000830152602082019050919050565b60006142f8603683614e32565b91507f476f7665726e6f72416c7068613a3a5f5f61626469636174653a2073656e646560008301527f72206d75737420626520676f7620677561726469616e000000000000000000006020830152604082019050919050565b606082016000820151614367600085018261370d565b50602082015161437a602085018261370d565b50604082015161438d6040850182614393565b50505050565b61439c81614ea9565b82525050565b6143ab81614ea9565b82525050565b6143ba81614eb3565b82525050565b60006143cb82613b0d565b91506143d7828561373a565b6020820191506143e7828461373a565b6020820191508190509392505050565b600060208201905061440c6000830184613558565b92915050565b6000604082019050614427600083018561353a565b61443460208301846143a2565b9392505050565b600060a0820190506144506000830187613558565b61445d602083018661387f565b818103604083015261446e81613bd9565b90508181036060830152614482818561378a565b905061449160808301846143a2565b95945050505050565b60006040820190506144af6000830185613558565b6144bc60208301846143a2565b9392505050565b60006080820190506144d86000830187613558565b6144e560208301866143a2565b6144f2604083018561371c565b6144ff60608301846143a2565b95945050505050565b600060a08201905061451d6000830188613558565b61452a60208301876143a2565b818103604083015261453c81866138c7565b90508181036060830152614550818561378a565b905061455f60808301846143a2565b9695505050505050565b600060a08201905061457e6000830188613558565b61458b60208301876143a2565b818103604083015261459d8186613900565b905081810360608301526145b181856137c3565b90506145c060808301846143a2565b9695505050505050565b600060808201905081810360008301526145e48187613567565b905081810360208301526145f881866136af565b9050818103604083015261460c818561363a565b9050818103606083015261462081846135c5565b905095945050505050565b6000602082019050614640600083018461372b565b92915050565b600060808201905061465b600083018761372b565b614668602083018661372b565b61467560408301856143a2565b6146826060830184613558565b95945050505050565b60006060820190506146a0600083018661372b565b6146ad60208301856143a2565b6146ba604083018461371c565b949350505050565b60006080820190506146d7600083018761372b565b6146e460208301866143b1565b6146f1604083018561372b565b6146fe606083018461372b565b95945050505050565b600060208201905061471c6000830184613852565b92915050565b60006020820190506147376000830184613861565b92915050565b60006020820190506147526000830184613870565b92915050565b6000602082019050818103600083015261477281846138c7565b905092915050565b600060208201905081810360008301526147938161398f565b9050919050565b600060208201905081810360008301526147b3816139f5565b9050919050565b600060208201905081810360008301526147d381613a81565b9050919050565b600060208201905081810360008301526147f381613b4d565b9050919050565b6000602082019050818103600083015261481381613c19565b9050919050565b6000602082019050818103600083015261483381613c7f565b9050919050565b6000602082019050818103600083015261485381613ce5565b9050919050565b6000602082019050818103600083015261487381613d71565b9050919050565b6000602082019050818103600083015261489381613dfd565b9050919050565b600060208201905081810360008301526148b381613e63565b9050919050565b600060208201905081810360008301526148d381613ea3565b9050919050565b600060208201905081810360008301526148f381613f2f565b9050919050565b6000602082019050818103600083015261491381613f95565b9050919050565b6000602082019050818103600083015261493381614021565b9050919050565b6000602082019050818103600083015261495381614087565b9050919050565b60006020820190508181036000830152614973816140ed565b9050919050565b6000602082019050818103600083015261499381614153565b9050919050565b600060208201905081810360008301526149b3816141df565b9050919050565b600060208201905081810360008301526149d381614245565b9050919050565b600060208201905081810360008301526149f3816142ab565b9050919050565b60006020820190508181036000830152614a13816142eb565b9050919050565b6000606082019050614a2f6000830184614351565b92915050565b6000602082019050614a4a60008301846143a2565b92915050565b600061012082019050614a66600083018c6143a2565b614a73602083018b61353a565b8181036040830152614a85818a613567565b90508181036060830152614a9981896136af565b90508181036080830152614aad818861363a565b905081810360a0830152614ac181876135c5565b9050614ad060c08301866143a2565b614add60e08301856143a2565b818103610100830152614af081846138c7565b90509a9950505050505050505050565b600061012082019050614b16600083018c6143a2565b614b23602083018b613558565b614b30604083018a6143a2565b614b3d60608301896143a2565b614b4a60808301886143a2565b614b5760a08301876143a2565b614b6460c08301866143a2565b614b7160e083018561371c565b614b7f61010083018461371c565b9a9950505050505050505050565b6000604082019050614ba260008301856143a2565b614baf60208301846143a2565b9392505050565b6000604051905081810181811067ffffffffffffffff82111715614bd957600080fd5b8060405250919050565b600067ffffffffffffffff821115614bfa57600080fd5b602082029050602081019050919050565b600067ffffffffffffffff821115614c2257600080fd5b602082029050602081019050919050565b600067ffffffffffffffff821115614c4a57600080fd5b602082029050602081019050919050565b600067ffffffffffffffff821115614c7257600080fd5b602082029050602081019050919050565b600067ffffffffffffffff821115614c9a57600080fd5b601f19601f8301169050602081019050919050565b600067ffffffffffffffff821115614cc657600080fd5b601f19601f8301169050602081019050919050565b6000819050602082019050919050565b6000819050602082019050919050565b6000819050602082019050919050565b6000819050602082019050919050565b60008190508160005260206000209050919050565b60008190508160005260206000209050919050565b600081519050919050565b600081519050919050565b600081519050919050565b600081519050919050565b600081519050919050565b600081519050919050565b6000602082019050919050565b6000602082019050919050565b6000602082019050919050565b6000602082019050919050565b600082825260208201905092915050565b600082825260208201905092915050565b600082825260208201905092915050565b600082825260208201905092915050565b600082825260208201905092915050565b600082825260208201905092915050565b600082825260208201905092915050565b600082825260208201905092915050565b600081905092915050565b6000614e5982614e89565b9050919050565b60008115159050919050565b6000819050919050565b6000819050614e8482614fbf565b919050565b600073ffffffffffffffffffffffffffffffffffffffff82169050919050565b6000819050919050565b600060ff82169050919050565b6000614ecb82614f3e565b9050919050565b6000614edd82614ee4565b9050919050565b6000614eef82614e89565b9050919050565b6000614f0182614f08565b9050919050565b6000614f1382614e89565b9050919050565b6000614f2582614e76565b9050919050565b6000614f3782614ea9565b9050919050565b6000614f4982614f50565b9050919050565b6000614f5b82614e89565b9050919050565b82818337600083830152505050565b60005b83811015614f8f578082015181840152602081019050614f74565b83811115614f9e576000848401525b50505050565b6000819050919050565b6000601f19601f8301169050919050565b60088110614fc957fe5b50565b614fd581614e4e565b8114614fe057600080fd5b50565b614fec81614e60565b8114614ff757600080fd5b50565b61500381614e6c565b811461500e57600080fd5b50565b61501a81614ea9565b811461502557600080fd5b50565b61503181614eb3565b811461503c57600080fd5b5056fea2646970667358221220766788c4234dc47d63826a873db8ffebf0b0fc8dbb7328bb6e11a9ec2c62f2a864736f6c634300060c0033",
  "immutableReferences": {},
  "source": "// SPDX-License-Identifier: NO_LICENSE\npragma solidity 0.6.12;\npragma experimental ABIEncoderV2;\n\nimport \"./Zoracles.sol\";\n\ncontract GovernorAlpha {\n    /// @notice The name of this contract\n    string public constant name = \"Zoracles Governor Alpha\";\n\n    /// @notice The number of votes in support of a proposal required in order for a quorum to be reached and for a vote to succeed\n    function quorumVotes() public view returns (uint256) {\n        return zora.totalSupply() / 10;\n    } // 10% of Total Supply\n\n    /// @notice The number of votes required in order for a voter to become a proposer\n    function proposalThreshold() public view returns (uint256) {\n        return zora.totalSupply() / 100;\n    } // 1% of Total Supply\n\n    /// @notice The maximum number of actions that can be included in a proposal\n    function proposalMaxOperations() public pure returns (uint256) {\n        return 10;\n    } // 10 actions\n\n    /// @notice The delay before voting on a proposal may take place, once proposed\n    function votingDelay() public pure returns (uint256) {\n        return 1;\n    } // 1 block\n\n    /// @notice The duration of voting on a proposal, in blocks\n    function votingPeriod() public pure returns (uint256) {\n        return 28800;\n    } // ~5 days in blocks (assuming 15s blocks)\n\n    /// @notice The address of the Compound Protocol Timelock\n    TimelockInterface public timelock;\n\n    /// @notice The address of the Compound governance token\n    // XXX: CompInterface public comp;\n    Zoracles public zora;\n\n    /// @notice The address of the Governor Guardian\n    address public guardian;\n\n    /// @notice The total number of proposals\n    uint256 public proposalCount;\n\n    struct Proposal {\n        /// @notice Unique id for looking up a proposal\n        uint256 id;\n        /// @notice Creator of the proposal\n        address proposer;\n        /// @notice The timestamp that the proposal will be available for execution, set once the vote succeeds\n        uint256 eta;\n        /// @notice the ordered list of target addresses for calls to be made\n        address[] targets;\n        /// @notice The ordered list of values (i.e. msg.value) to be passed to the calls to be made\n        uint256[] values;\n        /// @notice The ordered list of function signatures to be called\n        string[] signatures;\n        /// @notice The ordered list of calldata to be passed to each call\n        bytes[] calldatas;\n        /// @notice The block at which voting begins: holders must delegate their votes prior to this block\n        uint256 startBlock;\n        /// @notice The block at which voting ends: votes must be cast prior to this block\n        uint256 endBlock;\n        /// @notice Current number of votes in favor of this proposal\n        uint256 forVotes;\n        /// @notice Current number of votes in opposition to this proposal\n        uint256 againstVotes;\n        /// @notice Flag marking whether the proposal has been canceled\n        bool canceled;\n        /// @notice Flag marking whether the proposal has been executed\n        bool executed;\n        /// @notice Receipts of ballots for the entire set of voters\n        mapping(address => Receipt) receipts;\n    }\n\n    /// @notice Ballot receipt record for a voter\n    struct Receipt {\n        /// @notice Whether or not a vote has been cast\n        bool hasVoted;\n        /// @notice Whether or not the voter supports the proposal\n        bool support;\n        /// @notice The number of votes the voter had, which were cast\n        uint256 votes;\n    }\n\n    /// @notice Possible states that a proposal may be in\n    enum ProposalState {\n        Pending,\n        Active,\n        Canceled,\n        Defeated,\n        Succeeded,\n        Queued,\n        Expired,\n        Executed\n    }\n\n    /// @notice The official record of all proposals ever proposed\n    mapping(uint256 => Proposal) public proposals;\n\n    /// @notice The latest proposal for each proposer\n    mapping(address => uint256) public latestProposalIds;\n\n    /// @notice The EIP-712 typehash for the contract's domain\n    bytes32 public constant DOMAIN_TYPEHASH = keccak256(\n        \"EIP712Domain(string name,uint256 chainId,address verifyingContract)\"\n    );\n\n    /// @notice The EIP-712 typehash for the ballot struct used by the contract\n    bytes32 public constant BALLOT_TYPEHASH = keccak256(\n        \"Ballot(uint256 proposalId,bool support)\"\n    );\n\n    /// @notice An event emitted when a new proposal is created\n    event ProposalCreated(\n        uint256 id,\n        address proposer,\n        address[] targets,\n        uint256[] values,\n        string[] signatures,\n        bytes[] calldatas,\n        uint256 startBlock,\n        uint256 endBlock,\n        string description\n    );\n\n    /// @notice An event emitted when a vote has been cast on a proposal\n    event VoteCast(\n        address voter,\n        uint256 proposalId,\n        bool support,\n        uint256 votes\n    );\n\n    /// @notice An event emitted when a proposal has been canceled\n    event ProposalCanceled(uint256 id);\n\n    /// @notice An event emitted when a proposal has been queued in the Timelock\n    event ProposalQueued(uint256 id, uint256 eta);\n\n    /// @notice An event emitted when a proposal has been executed in the Timelock\n    event ProposalExecuted(uint256 id);\n\n    constructor(\n        address _timelock,\n        address _zora,\n        address _guardian\n    ) public {\n        timelock = TimelockInterface(_timelock);\n        zora = Zoracles(_zora);\n        guardian = _guardian;\n    }\n\n    function propose(\n        address[] memory targets,\n        uint256[] memory values,\n        string[] memory signatures,\n        bytes[] memory calldatas,\n        string memory description\n    ) public returns (uint256) {\n        require(\n            zora.getPriorVotes(msg.sender, sub256(block.number, 1)) >\n                proposalThreshold(),\n            \"GovernorAlpha::propose: proposer votes below proposal threshold\"\n        );\n        require(\n            targets.length == values.length &&\n                targets.length == signatures.length &&\n                targets.length == calldatas.length,\n            \"GovernorAlpha::propose: proposal function information arity mismatch\"\n        );\n        require(\n            targets.length != 0,\n            \"GovernorAlpha::propose: must provide actions\"\n        );\n        require(\n            targets.length <= proposalMaxOperations(),\n            \"GovernorAlpha::propose: too many actions\"\n        );\n\n        uint256 latestProposalId = latestProposalIds[msg.sender];\n        if (latestProposalId != 0) {\n            ProposalState proposersLatestProposalState = state(\n                latestProposalId\n            );\n            require(\n                proposersLatestProposalState != ProposalState.Active,\n                \"GovernorAlpha::propose: one live proposal per proposer, found an already active proposal\"\n            );\n            require(\n                proposersLatestProposalState != ProposalState.Pending,\n                \"GovernorAlpha::propose: one live proposal per proposer, found an already pending proposal\"\n            );\n        }\n\n        uint256 startBlock = add256(block.number, votingDelay());\n        uint256 endBlock = add256(startBlock, votingPeriod());\n\n        proposalCount++;\n        Proposal memory newProposal = Proposal({\n            id: proposalCount,\n            proposer: msg.sender,\n            eta: 0,\n            targets: targets,\n            values: values,\n            signatures: signatures,\n            calldatas: calldatas,\n            startBlock: startBlock,\n            endBlock: endBlock,\n            forVotes: 0,\n            againstVotes: 0,\n            canceled: false,\n            executed: false\n        });\n\n        proposals[newProposal.id] = newProposal;\n        latestProposalIds[newProposal.proposer] = newProposal.id;\n\n        emit ProposalCreated(\n            newProposal.id,\n            msg.sender,\n            targets,\n            values,\n            signatures,\n            calldatas,\n            startBlock,\n            endBlock,\n            description\n        );\n        return newProposal.id;\n    }\n\n    function queue(uint256 proposalId) public {\n        require(\n            state(proposalId) == ProposalState.Succeeded,\n            \"GovernorAlpha::queue: proposal can only be queued if it is succeeded\"\n        );\n        Proposal storage proposal = proposals[proposalId];\n        uint256 eta = add256(block.timestamp, timelock.delay());\n        for (uint256 i = 0; i < proposal.targets.length; i++) {\n            _queueOrRevert(\n                proposal.targets[i],\n                proposal.values[i],\n                proposal.signatures[i],\n                proposal.calldatas[i],\n                eta\n            );\n        }\n        proposal.eta = eta;\n        emit ProposalQueued(proposalId, eta);\n    }\n\n    function _queueOrRevert(\n        address target,\n        uint256 value,\n        string memory signature,\n        bytes memory data,\n        uint256 eta\n    ) internal {\n        require(\n            !timelock.queuedTransactions(\n                keccak256(abi.encode(target, value, signature, data, eta))\n            ),\n            \"GovernorAlpha::_queueOrRevert: proposal action already queued at eta\"\n        );\n        timelock.queueTransaction(target, value, signature, data, eta);\n    }\n\n    function execute(uint256 proposalId) public payable {\n        require(\n            state(proposalId) == ProposalState.Queued,\n            \"GovernorAlpha::execute: proposal can only be executed if it is queued\"\n        );\n        Proposal storage proposal = proposals[proposalId];\n        proposal.executed = true;\n        for (uint256 i = 0; i < proposal.targets.length; i++) {\n            timelock.executeTransaction.value(proposal.values[i])(\n                proposal.targets[i],\n                proposal.values[i],\n                proposal.signatures[i],\n                proposal.calldatas[i],\n                proposal.eta\n            );\n        }\n        emit ProposalExecuted(proposalId);\n    }\n\n    function cancel(uint256 proposalId) public {\n        ProposalState state = state(proposalId);\n        require(\n            state != ProposalState.Executed,\n            \"GovernorAlpha::cancel: cannot cancel executed proposal\"\n        );\n\n        Proposal storage proposal = proposals[proposalId];\n        require(\n            msg.sender == guardian ||\n                zora.getPriorVotes(proposal.proposer, sub256(block.number, 1)) <\n                proposalThreshold(),\n            \"GovernorAlpha::cancel: proposer above threshold\"\n        );\n\n        proposal.canceled = true;\n        for (uint256 i = 0; i < proposal.targets.length; i++) {\n            timelock.cancelTransaction(\n                proposal.targets[i],\n                proposal.values[i],\n                proposal.signatures[i],\n                proposal.calldatas[i],\n                proposal.eta\n            );\n        }\n\n        emit ProposalCanceled(proposalId);\n    }\n\n    function getActions(uint256 proposalId)\n        public\n        view\n        returns (\n            address[] memory targets,\n            uint256[] memory values,\n            string[] memory signatures,\n            bytes[] memory calldatas\n        )\n    {\n        Proposal storage p = proposals[proposalId];\n        return (p.targets, p.values, p.signatures, p.calldatas);\n    }\n\n    function getReceipt(uint256 proposalId, address voter)\n        public\n        view\n        returns (Receipt memory)\n    {\n        return proposals[proposalId].receipts[voter];\n    }\n\n    function state(uint256 proposalId) public view returns (ProposalState) {\n        require(\n            proposalCount >= proposalId && proposalId > 0,\n            \"GovernorAlpha::state: invalid proposal id\"\n        );\n        Proposal storage proposal = proposals[proposalId];\n        if (proposal.canceled) {\n            return ProposalState.Canceled;\n        } else if (block.number <= proposal.startBlock) {\n            return ProposalState.Pending;\n        } else if (block.number <= proposal.endBlock) {\n            return ProposalState.Active;\n        } else if (\n            proposal.forVotes <= proposal.againstVotes ||\n            proposal.forVotes < quorumVotes()\n        ) {\n            return ProposalState.Defeated;\n        } else if (proposal.eta == 0) {\n            return ProposalState.Succeeded;\n        } else if (proposal.executed) {\n            return ProposalState.Executed;\n        } else if (\n            block.timestamp >= add256(proposal.eta, timelock.GRACE_PERIOD())\n        ) {\n            return ProposalState.Expired;\n        } else {\n            return ProposalState.Queued;\n        }\n    }\n\n    function castVote(uint256 proposalId, bool support) public {\n        return _castVote(msg.sender, proposalId, support);\n    }\n\n    function castVoteBySig(\n        uint256 proposalId,\n        bool support,\n        uint8 v,\n        bytes32 r,\n        bytes32 s\n    ) public {\n        bytes32 domainSeparator = keccak256(\n            abi.encode(\n                DOMAIN_TYPEHASH,\n                keccak256(bytes(name)),\n                getChainId(),\n                address(this)\n            )\n        );\n        bytes32 structHash = keccak256(\n            abi.encode(BALLOT_TYPEHASH, proposalId, support)\n        );\n        bytes32 digest = keccak256(\n            abi.encodePacked(\"\\x19\\x01\", domainSeparator, structHash)\n        );\n        address signatory = ecrecover(digest, v, r, s);\n        require(\n            signatory != address(0),\n            \"GovernorAlpha::castVoteBySig: invalid signature\"\n        );\n        return _castVote(signatory, proposalId, support);\n    }\n\n    function _castVote(\n        address voter,\n        uint256 proposalId,\n        bool support\n    ) internal {\n        require(\n            state(proposalId) == ProposalState.Active,\n            \"GovernorAlpha::_castVote: voting is closed\"\n        );\n        Proposal storage proposal = proposals[proposalId];\n        Receipt storage receipt = proposal.receipts[voter];\n        require(\n            receipt.hasVoted == false,\n            \"GovernorAlpha::_castVote: voter already voted\"\n        );\n        uint256 votes = zora.getPriorVotes(voter, proposal.startBlock);\n\n        if (support) {\n            proposal.forVotes = add256(proposal.forVotes, votes);\n        } else {\n            proposal.againstVotes = add256(proposal.againstVotes, votes);\n        }\n\n        receipt.hasVoted = true;\n        receipt.support = support;\n        receipt.votes = votes;\n\n        emit VoteCast(voter, proposalId, support, votes);\n    }\n\n    function __acceptAdmin() public {\n        require(\n            msg.sender == guardian,\n            \"GovernorAlpha::__acceptAdmin: sender must be gov guardian\"\n        );\n        timelock.acceptAdmin();\n    }\n\n    function __abdicate() public {\n        require(\n            msg.sender == guardian,\n            \"GovernorAlpha::__abdicate: sender must be gov guardian\"\n        );\n        guardian = address(0);\n    }\n\n    function __queueSetTimelockPendingAdmin(\n        address newPendingAdmin,\n        uint256 eta\n    ) public {\n        require(\n            msg.sender == guardian,\n            \"GovernorAlpha::__queueSetTimelockPendingAdmin: sender must be gov guardian\"\n        );\n        timelock.queueTransaction(\n            address(timelock),\n            0,\n            \"setPendingAdmin(address)\",\n            abi.encode(newPendingAdmin),\n            eta\n        );\n    }\n\n    function __executeSetTimelockPendingAdmin(\n        address newPendingAdmin,\n        uint256 eta\n    ) public {\n        require(\n            msg.sender == guardian,\n            \"GovernorAlpha::__executeSetTimelockPendingAdmin: sender must be gov guardian\"\n        );\n        timelock.executeTransaction(\n            address(timelock),\n            0,\n            \"setPendingAdmin(address)\",\n            abi.encode(newPendingAdmin),\n            eta\n        );\n    }\n\n    function add256(uint256 a, uint256 b) internal pure returns (uint256) {\n        uint256 c = a + b;\n        require(c >= a, \"addition overflow\");\n        return c;\n    }\n\n    function sub256(uint256 a, uint256 b) internal pure returns (uint256) {\n        require(b <= a, \"subtraction underflow\");\n        return a - b;\n    }\n\n    function getChainId() internal pure returns (uint256) {\n        uint256 chainId;\n        assembly {\n            chainId := chainid()\n        }\n        return chainId;\n    }\n}\n\ninterface TimelockInterface {\n    function delay() external view returns (uint256);\n\n    function GRACE_PERIOD() external view returns (uint256);\n\n    function acceptAdmin() external;\n\n    function queuedTransactions(bytes32 hash) external view returns (bool);\n\n    function queueTransaction(\n        address target,\n        uint256 value,\n        string calldata signature,\n        bytes calldata data,\n        uint256 eta\n    ) external returns (bytes32);\n\n    function cancelTransaction(\n        address target,\n        uint256 value,\n        string calldata signature,\n        bytes calldata data,\n        uint256 eta\n    ) external;\n\n    function executeTransaction(\n        address target,\n        uint256 value,\n        string calldata signature,\n        bytes calldata data,\n        uint256 eta\n    ) external payable returns (bytes memory);\n}\n",
  "sourcePath": "/home/prince/zoracles/contracts/Governance.sol",
  "compiler": {
    "name": "solc",
    "version": "0.6.12+commit.27d51765.Emscripten.clang"
  },
  "schemaVersion": "3.3.2",
  "updatedAt": "2020-11-17T15:57:12.701Z",
  "devdoc": {
    "kind": "dev",
    "methods": {},
    "version": 1
  },
  "userdoc": {
    "events": {
      "ProposalCanceled(uint256)": {
        "notice": "An event emitted when a proposal has been canceled"
      },
      "ProposalCreated(uint256,address,address[],uint256[],string[],bytes[],uint256,uint256,string)": {
        "notice": "An event emitted when a new proposal is created"
      },
      "ProposalExecuted(uint256)": {
        "notice": "An event emitted when a proposal has been executed in the Timelock"
      },
      "ProposalQueued(uint256,uint256)": {
        "notice": "An event emitted when a proposal has been queued in the Timelock"
      },
      "VoteCast(address,uint256,bool,uint256)": {
        "notice": "An event emitted when a vote has been cast on a proposal"
      }
    },
    "kind": "user",
    "methods": {
      "BALLOT_TYPEHASH()": {
        "notice": "The EIP-712 typehash for the ballot struct used by the contract"
      },
      "DOMAIN_TYPEHASH()": {
        "notice": "The EIP-712 typehash for the contract's domain"
      },
      "guardian()": {
        "notice": "The address of the Governor Guardian"
      },
      "latestProposalIds(address)": {
        "notice": "The latest proposal for each proposer"
      },
      "name()": {
        "notice": "The name of this contract"
      },
      "proposalCount()": {
        "notice": "The total number of proposals"
      },
      "proposalMaxOperations()": {
        "notice": "The maximum number of actions that can be included in a proposal"
      },
      "proposalThreshold()": {
        "notice": "The number of votes required in order for a voter to become a proposer"
      },
      "proposals(uint256)": {
        "notice": "The official record of all proposals ever proposed"
      },
      "quorumVotes()": {
        "notice": "The number of votes in support of a proposal required in order for a quorum to be reached and for a vote to succeed"
      },
      "timelock()": {
        "notice": "The address of the Compound Protocol Timelock"
      },
      "votingDelay()": {
        "notice": "The delay before voting on a proposal may take place, once proposed"
      },
      "votingPeriod()": {
        "notice": "The duration of voting on a proposal, in blocks"
      },
      "zora()": {
        "notice": "The address of the Compound governance token"
      }
    },
    "version": 1
  }
}