{
  "contractName": "GovernorAlpha",
  "abi": [
    {
      "anonymous": false,
      "inputs": [
        {
          "indexed": false,
          "internalType": "uint256",
          "name": "id",
          "type": "uint256"
        }
      ],
      "name": "ProposalCanceled",
      "type": "event"
    },
    {
      "anonymous": false,
      "inputs": [
        {
          "indexed": false,
          "internalType": "uint256",
          "name": "id",
          "type": "uint256"
        },
        {
          "indexed": false,
          "internalType": "address",
          "name": "proposer",
          "type": "address"
        },
        {
          "indexed": false,
          "internalType": "address[]",
          "name": "targets",
          "type": "address[]"
        },
        {
          "indexed": false,
          "internalType": "uint256[]",
          "name": "values",
          "type": "uint256[]"
        },
        {
          "indexed": false,
          "internalType": "string[]",
          "name": "signatures",
          "type": "string[]"
        },
        {
          "indexed": false,
          "internalType": "bytes[]",
          "name": "calldatas",
          "type": "bytes[]"
        },
        {
          "indexed": false,
          "internalType": "uint256",
          "name": "startBlock",
          "type": "uint256"
        },
        {
          "indexed": false,
          "internalType": "uint256",
          "name": "endBlock",
          "type": "uint256"
        },
        {
          "indexed": false,
          "internalType": "string",
          "name": "description",
          "type": "string"
        }
      ],
      "name": "ProposalCreated",
      "type": "event"
    },
    {
      "anonymous": false,
      "inputs": [
        {
          "indexed": false,
          "internalType": "uint256",
          "name": "id",
          "type": "uint256"
        }
      ],
      "name": "ProposalExecuted",
      "type": "event"
    },
    {
      "anonymous": false,
      "inputs": [
        {
          "indexed": false,
          "internalType": "uint256",
          "name": "id",
          "type": "uint256"
        },
        {
          "indexed": false,
          "internalType": "uint256",
          "name": "eta",
          "type": "uint256"
        }
      ],
      "name": "ProposalQueued",
      "type": "event"
    },
    {
      "anonymous": false,
      "inputs": [
        {
          "indexed": false,
          "internalType": "address",
          "name": "voter",
          "type": "address"
        },
        {
          "indexed": false,
          "internalType": "uint256",
          "name": "proposalId",
          "type": "uint256"
        },
        {
          "indexed": false,
          "internalType": "bool",
          "name": "support",
          "type": "bool"
        },
        {
          "indexed": false,
          "internalType": "uint256",
          "name": "votes",
          "type": "uint256"
        }
      ],
      "name": "VoteCast",
      "type": "event"
    },
    {
      "inputs": [],
      "name": "BALLOT_TYPEHASH",
      "outputs": [
        {
          "internalType": "bytes32",
          "name": "",
          "type": "bytes32"
        }
      ],
      "stateMutability": "view",
      "type": "function"
    },
    {
      "inputs": [],
      "name": "DOMAIN_TYPEHASH",
      "outputs": [
        {
          "internalType": "bytes32",
          "name": "",
          "type": "bytes32"
        }
      ],
      "stateMutability": "view",
      "type": "function"
    },
    {
      "inputs": [],
      "name": "guardian",
      "outputs": [
        {
          "internalType": "address",
          "name": "",
          "type": "address"
        }
      ],
      "stateMutability": "view",
      "type": "function"
    },
    {
      "inputs": [
        {
          "internalType": "address",
          "name": "",
          "type": "address"
        }
      ],
      "name": "latestProposalIds",
      "outputs": [
        {
          "internalType": "uint256",
          "name": "",
          "type": "uint256"
        }
      ],
      "stateMutability": "view",
      "type": "function"
    },
    {
      "inputs": [],
      "name": "name",
      "outputs": [
        {
          "internalType": "string",
          "name": "",
          "type": "string"
        }
      ],
      "stateMutability": "view",
      "type": "function"
    },
    {
      "inputs": [],
      "name": "proposalCount",
      "outputs": [
        {
          "internalType": "uint256",
          "name": "",
          "type": "uint256"
        }
      ],
      "stateMutability": "view",
      "type": "function"
    },
    {
      "inputs": [
        {
          "internalType": "uint256",
          "name": "",
          "type": "uint256"
        }
      ],
      "name": "proposals",
      "outputs": [
        {
          "internalType": "uint256",
          "name": "id",
          "type": "uint256"
        },
        {
          "internalType": "address",
          "name": "proposer",
          "type": "address"
        },
        {
          "internalType": "uint256",
          "name": "eta",
          "type": "uint256"
        },
        {
          "internalType": "uint256",
          "name": "startBlock",
          "type": "uint256"
        },
        {
          "internalType": "uint256",
          "name": "endBlock",
          "type": "uint256"
        },
        {
          "internalType": "uint256",
          "name": "forVotes",
          "type": "uint256"
        },
        {
          "internalType": "uint256",
          "name": "againstVotes",
          "type": "uint256"
        },
        {
          "internalType": "bool",
          "name": "canceled",
          "type": "bool"
        },
        {
          "internalType": "bool",
          "name": "executed",
          "type": "bool"
        }
      ],
      "stateMutability": "view",
      "type": "function"
    },
    {
      "inputs": [],
      "name": "timelock",
      "outputs": [
        {
          "internalType": "contract TimelockInterface",
          "name": "",
          "type": "address"
        }
      ],
      "stateMutability": "view",
      "type": "function"
    },
    {
      "inputs": [],
      "name": "zora",
      "outputs": [
        {
          "internalType": "contract Zoracles",
          "name": "",
          "type": "address"
        }
      ],
      "stateMutability": "view",
      "type": "function"
    },
    {
      "inputs": [],
      "name": "quorumVotes",
      "outputs": [
        {
          "internalType": "uint256",
          "name": "",
          "type": "uint256"
        }
      ],
      "stateMutability": "view",
      "type": "function"
    },
    {
      "inputs": [],
      "name": "proposalThreshold",
      "outputs": [
        {
          "internalType": "uint256",
          "name": "",
          "type": "uint256"
        }
      ],
      "stateMutability": "view",
      "type": "function"
    },
    {
      "inputs": [],
      "name": "proposalMaxOperations",
      "outputs": [
        {
          "internalType": "uint256",
          "name": "",
          "type": "uint256"
        }
      ],
      "stateMutability": "pure",
      "type": "function"
    },
    {
      "inputs": [],
      "name": "votingDelay",
      "outputs": [
        {
          "internalType": "uint256",
          "name": "",
          "type": "uint256"
        }
      ],
      "stateMutability": "pure",
      "type": "function"
    },
    {
      "inputs": [],
      "name": "votingPeriod",
      "outputs": [
        {
          "internalType": "uint256",
          "name": "",
          "type": "uint256"
        }
      ],
      "stateMutability": "pure",
      "type": "function"
    },
    {
      "inputs": [
        {
          "internalType": "address",
          "name": "_timelock",
          "type": "address"
        },
        {
          "internalType": "address",
          "name": "_zora",
          "type": "address"
        },
        {
          "internalType": "address",
          "name": "_guardian",
          "type": "address"
        }
      ],
      "name": "initialize",
      "outputs": [],
      "stateMutability": "nonpayable",
      "type": "function"
    },
    {
      "inputs": [
        {
          "internalType": "address[]",
          "name": "targets",
          "type": "address[]"
        },
        {
          "internalType": "uint256[]",
          "name": "values",
          "type": "uint256[]"
        },
        {
          "internalType": "string[]",
          "name": "signatures",
          "type": "string[]"
        },
        {
          "internalType": "bytes[]",
          "name": "calldatas",
          "type": "bytes[]"
        },
        {
          "internalType": "string",
          "name": "description",
          "type": "string"
        }
      ],
      "name": "propose",
      "outputs": [
        {
          "internalType": "uint256",
          "name": "",
          "type": "uint256"
        }
      ],
      "stateMutability": "nonpayable",
      "type": "function"
    },
    {
      "inputs": [
        {
          "internalType": "uint256",
          "name": "proposalId",
          "type": "uint256"
        }
      ],
      "name": "queue",
      "outputs": [],
      "stateMutability": "nonpayable",
      "type": "function"
    },
    {
      "inputs": [
        {
          "internalType": "uint256",
          "name": "proposalId",
          "type": "uint256"
        }
      ],
      "name": "execute",
      "outputs": [],
      "stateMutability": "payable",
      "type": "function"
    },
    {
      "inputs": [
        {
          "internalType": "uint256",
          "name": "proposalId",
          "type": "uint256"
        }
      ],
      "name": "cancel",
      "outputs": [],
      "stateMutability": "nonpayable",
      "type": "function"
    },
    {
      "inputs": [
        {
          "internalType": "uint256",
          "name": "proposalId",
          "type": "uint256"
        }
      ],
      "name": "getActions",
      "outputs": [
        {
          "internalType": "address[]",
          "name": "targets",
          "type": "address[]"
        },
        {
          "internalType": "uint256[]",
          "name": "values",
          "type": "uint256[]"
        },
        {
          "internalType": "string[]",
          "name": "signatures",
          "type": "string[]"
        },
        {
          "internalType": "bytes[]",
          "name": "calldatas",
          "type": "bytes[]"
        }
      ],
      "stateMutability": "view",
      "type": "function"
    },
    {
      "inputs": [
        {
          "internalType": "uint256",
          "name": "proposalId",
          "type": "uint256"
        },
        {
          "internalType": "address",
          "name": "voter",
          "type": "address"
        }
      ],
      "name": "getReceipt",
      "outputs": [
        {
          "components": [
            {
              "internalType": "bool",
              "name": "hasVoted",
              "type": "bool"
            },
            {
              "internalType": "bool",
              "name": "support",
              "type": "bool"
            },
            {
              "internalType": "uint256",
              "name": "votes",
              "type": "uint256"
            }
          ],
          "internalType": "struct GovernorAlpha.Receipt",
          "name": "",
          "type": "tuple"
        }
      ],
      "stateMutability": "view",
      "type": "function"
    },
    {
      "inputs": [
        {
          "internalType": "uint256",
          "name": "proposalId",
          "type": "uint256"
        }
      ],
      "name": "state",
      "outputs": [
        {
          "internalType": "enum GovernorAlpha.ProposalState",
          "name": "",
          "type": "uint8"
        }
      ],
      "stateMutability": "view",
      "type": "function"
    },
    {
      "inputs": [
        {
          "internalType": "uint256",
          "name": "proposalId",
          "type": "uint256"
        },
        {
          "internalType": "bool",
          "name": "support",
          "type": "bool"
        }
      ],
      "name": "castVote",
      "outputs": [],
      "stateMutability": "nonpayable",
      "type": "function"
    },
    {
      "inputs": [
        {
          "internalType": "uint256",
          "name": "proposalId",
          "type": "uint256"
        },
        {
          "internalType": "bool",
          "name": "support",
          "type": "bool"
        },
        {
          "internalType": "uint8",
          "name": "v",
          "type": "uint8"
        },
        {
          "internalType": "bytes32",
          "name": "r",
          "type": "bytes32"
        },
        {
          "internalType": "bytes32",
          "name": "s",
          "type": "bytes32"
        }
      ],
      "name": "castVoteBySig",
      "outputs": [],
      "stateMutability": "nonpayable",
      "type": "function"
    },
    {
      "inputs": [],
      "name": "__acceptAdmin",
      "outputs": [],
      "stateMutability": "nonpayable",
      "type": "function"
    },
    {
      "inputs": [],
      "name": "__abdicate",
      "outputs": [],
      "stateMutability": "nonpayable",
      "type": "function"
    },
    {
      "inputs": [
        {
          "internalType": "address",
          "name": "newPendingAdmin",
          "type": "address"
        },
        {
          "internalType": "uint256",
          "name": "eta",
          "type": "uint256"
        }
      ],
      "name": "__queueSetTimelockPendingAdmin",
      "outputs": [],
      "stateMutability": "nonpayable",
      "type": "function"
    },
    {
      "inputs": [
        {
          "internalType": "address",
          "name": "newPendingAdmin",
          "type": "address"
        },
        {
          "internalType": "uint256",
          "name": "eta",
          "type": "uint256"
        }
      ],
      "name": "__executeSetTimelockPendingAdmin",
      "outputs": [],
      "stateMutability": "nonpayable",
      "type": "function"
    }
  ],
  "bytecode": "0x608060405234801561001057600080fd5b50615365806100206000396000f3fe6080604052600436106101b75760003560e01c80634634c61f116100ec578063d33219b41161008a578063ddf0b00911610064578063ddf0b009146105f5578063deaaa7cc1461061e578063e23a9a5214610649578063fe0d94c114610686576101b7565b8063d33219b414610562578063da35c6641461058d578063da95691a146105b8576101b7565b806391500671116100c657806391500671146104ce578063b58131b0146104f7578063b9a6196114610522578063c0c53b8b14610539576101b7565b80634634c61f14610463578063760fbc131461048c5780637bdbe4d0146104a3576101b7565b806321f43e42116101595780633932abb1116101335780633932abb1146103a75780633e4f49e6146103d257806340e58ee51461040f578063452a932014610438576101b7565b806321f43e421461031357806324bc1a641461033c578063328dd98214610367576101b7565b806315373e3d1161019557806315373e3d14610257578063166f46a71461028057806317977c61146102ab57806320606b70146102e8576101b7565b8063013cf08b146101bc57806302a251a31461020157806306fdde031461022c575b600080fd5b3480156101c857600080fd5b506101e360048036038101906101de919061360b565b6106a2565b6040516101f899989796959493929190614df0565b60405180910390f35b34801561020d57600080fd5b5061021661072a565b6040516102239190614d25565b60405180910390f35b34801561023857600080fd5b50610241610734565b60405161024e9190614a28565b60405180910390f35b34801561026357600080fd5b5061027e60048036038101906102799190613699565b61076d565b005b34801561028c57600080fd5b5061029561077c565b6040516102a291906149f2565b60405180910390f35b3480156102b757600080fd5b506102d260048036038101906102cd91906133d5565b6107a2565b6040516102df9190614d25565b60405180910390f35b3480156102f457600080fd5b506102fd6107ba565b60405161030a91906148fb565b60405180910390f35b34801561031f57600080fd5b5061033a6004803603810190610335919061344d565b6107de565b005b34801561034857600080fd5b5061035161096d565b60405161035e9190614d25565b60405180910390f35b34801561037357600080fd5b5061038e6004803603810190610389919061360b565b610a1e565b60405161039e949392919061489a565b60405180910390f35b3480156103b357600080fd5b506103bc610cfb565b6040516103c99190614d25565b60405180910390f35b3480156103de57600080fd5b506103f960048036038101906103f4919061360b565b610d04565b6040516104069190614a0d565b60405180910390f35b34801561041b57600080fd5b506104366004803603810190610431919061360b565b610ee9565b005b34801561044457600080fd5b5061044d611275565b60405161045a91906146c7565b60405180910390f35b34801561046f57600080fd5b5061048a600480360381019061048591906136d5565b61129b565b005b34801561049857600080fd5b506104a1611484565b005b3480156104af57600080fd5b506104b8611558565b6040516104c59190614d25565b60405180910390f35b3480156104da57600080fd5b506104f560048036038101906104f0919061344d565b611561565b005b34801561050357600080fd5b5061050c6116eb565b6040516105199190614d25565b60405180910390f35b34801561052e57600080fd5b5061053761179c565b005b34801561054557600080fd5b50610560600480360381019061055b91906133fe565b6118b0565b005b34801561056e57600080fd5b50610577611a5e565b60405161058491906149d7565b60405180910390f35b34801561059957600080fd5b506105a2611a84565b6040516105af9190614d25565b60405180910390f35b3480156105c457600080fd5b506105df60048036038101906105da9190613489565b611a8a565b6040516105ec9190614d25565b60405180910390f35b34801561060157600080fd5b5061061c6004803603810190610617919061360b565b612049565b005b34801561062a57600080fd5b50610633612396565b60405161064091906148fb565b60405180910390f35b34801561065557600080fd5b50610670600480360381019061066b919061365d565b6123ba565b60405161067d9190614d0a565b60405180910390f35b6106a0600480360381019061069b919061360b565b612468565b005b60046020528060005260406000206000915090508060000154908060010160009054906101000a900473ffffffffffffffffffffffffffffffffffffffff169080600201549080600701549080600801549080600901549080600a01549080600b0160009054906101000a900460ff169080600b0160019054906101000a900460ff16905089565b6000617080905090565b6040518060400160405280601781526020017f5a6f7261636c657320476f7665726e6f7220416c70686100000000000000000081525081565b6107783383836126b3565b5050565b600160009054906101000a900473ffffffffffffffffffffffffffffffffffffffff1681565b60056020528060005260406000206000915090505481565b7f8cad95687ba82c2ce50e74f7b754645e5117c3a5bec8151c0726d5857980a86681565b600260009054906101000a900473ffffffffffffffffffffffffffffffffffffffff1673ffffffffffffffffffffffffffffffffffffffff163373ffffffffffffffffffffffffffffffffffffffff161461086e576040517f08c379a000000000000000000000000000000000000000000000000000000000815260040161086590614aaa565b60405180910390fd5b600060029054906101000a900473ffffffffffffffffffffffffffffffffffffffff1673ffffffffffffffffffffffffffffffffffffffff16630825f38f600060029054906101000a900473ffffffffffffffffffffffffffffffffffffffff166000856040516020016108e291906146c7565b604051602081830303815290604052856040518563ffffffff1660e01b8152600401610911949392919061470b565b600060405180830381600087803b15801561092b57600080fd5b505af115801561093f573d6000803e3d6000fd5b505050506040513d6000823e3d601f19601f8201168201806040525081019061096891906135ca565b505050565b6000600a600160009054906101000a900473ffffffffffffffffffffffffffffffffffffffff1673ffffffffffffffffffffffffffffffffffffffff166318160ddd6040518163ffffffff1660e01b815260040160206040518083038186803b1580156109d957600080fd5b505afa1580156109ed573d6000803e3d6000fd5b505050506040513d601f19601f82011682018060405250810190610a119190613634565b81610a1857fe5b04905090565b60608060608060006004600087815260200190815260200160002090508060030181600401826005018360060183805480602002602001604051908101604052809291908181526020018280548015610acc57602002820191906000526020600020905b8160009054906101000a900473ffffffffffffffffffffffffffffffffffffffff1673ffffffffffffffffffffffffffffffffffffffff1681526020019060010190808311610a82575b5050505050935082805480602002602001604051908101604052809291908181526020018280548015610b1e57602002820191906000526020600020905b815481526020019060010190808311610b0a575b5050505050925081805480602002602001604051908101604052809291908181526020016000905b82821015610c02578382906000526020600020018054600181600116156101000203166002900480601f016020809104026020016040519081016040528092919081815260200182805460018160011615610100020316600290048015610bee5780601f10610bc357610100808354040283529160200191610bee565b820191906000526020600020905b815481529060010190602001808311610bd157829003601f168201915b505050505081526020019060010190610b46565b50505050915080805480602002602001604051908101604052809291908181526020016000905b82821015610ce5578382906000526020600020018054600181600116156101000203166002900480601f016020809104026020016040519081016040528092919081815260200182805460018160011615610100020316600290048015610cd15780601f10610ca657610100808354040283529160200191610cd1565b820191906000526020600020905b815481529060010190602001808311610cb457829003601f168201915b505050505081526020019060010190610c29565b5050505090509450945094509450509193509193565b60006001905090565b60008160035410158015610d185750600082115b610d57576040517f08c379a0000000000000000000000000000000000000000000000000000000008152600401610d4e90614aca565b60405180910390fd5b600060046000848152602001908152602001600020905080600b0160009054906101000a900460ff1615610d8f576002915050610ee4565b80600701544311610da4576000915050610ee4565b80600801544311610db9576001915050610ee4565b80600a01548160090154111580610dda5750610dd361096d565b8160090154105b15610de9576003915050610ee4565b600081600201541415610e00576004915050610ee4565b80600b0160019054906101000a900460ff1615610e21576007915050610ee4565b610ece8160020154600060029054906101000a900473ffffffffffffffffffffffffffffffffffffffff1673ffffffffffffffffffffffffffffffffffffffff1663c1a287e26040518163ffffffff1660e01b815260040160206040518083038186803b158015610e9157600080fd5b505afa158015610ea5573d6000803e3d6000fd5b505050506040513d601f19601f82011682018060405250810190610ec99190613634565b612936565b4210610ede576006915050610ee4565b60059150505b919050565b6000610ef482610d04565b9050600780811115610f0257fe5b816007811115610f0e57fe5b1415610f4f576040517f08c379a0000000000000000000000000000000000000000000000000000000008152600401610f4690614c8a565b60405180910390fd5b6000600460008481526020019081526020016000209050600260009054906101000a900473ffffffffffffffffffffffffffffffffffffffff1673ffffffffffffffffffffffffffffffffffffffff163373ffffffffffffffffffffffffffffffffffffffff1614806110a25750610fc56116eb565b600160009054906101000a900473ffffffffffffffffffffffffffffffffffffffff1673ffffffffffffffffffffffffffffffffffffffff1663782d6fe18360010160009054906101000a900473ffffffffffffffffffffffffffffffffffffffff1661103343600161298b565b6040518363ffffffff1660e01b815260040161105092919061476a565b60206040518083038186803b15801561106857600080fd5b505afa15801561107c573d6000803e3d6000fd5b505050506040513d601f19601f820116820180604052508101906110a09190613634565b105b6110e1576040517f08c379a00000000000000000000000000000000000000000000000000000000081526004016110d890614bca565b60405180910390fd5b600181600b0160006101000a81548160ff02191690831515021790555060005b816003018054905081101561123857600060029054906101000a900473ffffffffffffffffffffffffffffffffffffffff1673ffffffffffffffffffffffffffffffffffffffff1663591fcdfe83600301838154811061115d57fe5b9060005260206000200160009054906101000a900473ffffffffffffffffffffffffffffffffffffffff1684600401848154811061119757fe5b90600052602060002001548560050185815481106111b157fe5b906000526020600020018660060186815481106111ca57fe5b9060005260206000200187600201546040518663ffffffff1660e01b81526004016111f9959493929190614839565b600060405180830381600087803b15801561121357600080fd5b505af1158015611227573d6000803e3d6000fd5b505050508080600101915050611101565b507f789cf55be980739dad1d0699b93b58e806b51c9d96619bfa8fe0a28abaa7b30c836040516112689190614d25565b60405180910390a1505050565b600260009054906101000a900473ffffffffffffffffffffffffffffffffffffffff1681565b60007f8cad95687ba82c2ce50e74f7b754645e5117c3a5bec8151c0726d5857980a8666040518060400160405280601781526020017f5a6f7261636c657320476f7665726e6f7220416c706861000000000000000000815250805190602001206113036129db565b306040516020016113179493929190614916565b60405160208183030381529060405280519060200120905060007f8e25870c07e0b0b3884c78da52790939a455c275406c44ae8b434b692fb916ee87876040516020016113669392919061495b565b60405160208183030381529060405280519060200120905060008282604051602001611393929190614690565b6040516020818303038152906040528051906020012090506000600182888888604051600081526020016040526040516113d09493929190614992565b6020604051602081039080840390855afa1580156113f2573d6000803e3d6000fd5b505050602060405103519050600073ffffffffffffffffffffffffffffffffffffffff168173ffffffffffffffffffffffffffffffffffffffff16141561146e576040517f08c379a000000000000000000000000000000000000000000000000000000000815260040161146590614c4a565b60405180910390fd5b611479818a8a6126b3565b505050505050505050565b600260009054906101000a900473ffffffffffffffffffffffffffffffffffffffff1673ffffffffffffffffffffffffffffffffffffffff163373ffffffffffffffffffffffffffffffffffffffff1614611514576040517f08c379a000000000000000000000000000000000000000000000000000000000815260040161150b90614cea565b60405180910390fd5b6000600260006101000a81548173ffffffffffffffffffffffffffffffffffffffff021916908373ffffffffffffffffffffffffffffffffffffffff160217905550565b6000600a905090565b600260009054906101000a900473ffffffffffffffffffffffffffffffffffffffff1673ffffffffffffffffffffffffffffffffffffffff163373ffffffffffffffffffffffffffffffffffffffff16146115f1576040517f08c379a00000000000000000000000000000000000000000000000000000000081526004016115e890614b2a565b60405180910390fd5b600060029054906101000a900473ffffffffffffffffffffffffffffffffffffffff1673ffffffffffffffffffffffffffffffffffffffff16633a66f901600060029054906101000a900473ffffffffffffffffffffffffffffffffffffffff1660008560405160200161166591906146c7565b604051602081830303815290604052856040518563ffffffff1660e01b8152600401611694949392919061470b565b602060405180830381600087803b1580156116ae57600080fd5b505af11580156116c2573d6000803e3d6000fd5b505050506040513d601f19601f820116820180604052508101906116e691906135a1565b505050565b60006064600160009054906101000a900473ffffffffffffffffffffffffffffffffffffffff1673ffffffffffffffffffffffffffffffffffffffff166318160ddd6040518163ffffffff1660e01b815260040160206040518083038186803b15801561175757600080fd5b505afa15801561176b573d6000803e3d6000fd5b505050506040513d601f19601f8201168201806040525081019061178f9190613634565b8161179657fe5b04905090565b600260009054906101000a900473ffffffffffffffffffffffffffffffffffffffff1673ffffffffffffffffffffffffffffffffffffffff163373ffffffffffffffffffffffffffffffffffffffff161461182c576040517f08c379a000000000000000000000000000000000000000000000000000000000815260040161182390614a4a565b60405180910390fd5b600060029054906101000a900473ffffffffffffffffffffffffffffffffffffffff1673ffffffffffffffffffffffffffffffffffffffff16630e18b6816040518163ffffffff1660e01b8152600401600060405180830381600087803b15801561189657600080fd5b505af11580156118aa573d6000803e3d6000fd5b50505050565b600060019054906101000a900460ff16806118cf57506118ce6129e8565b5b806118e5575060008054906101000a900460ff16155b611924576040517f08c379a000000000000000000000000000000000000000000000000000000000815260040161191b90614b4a565b60405180910390fd5b60008060019054906101000a900460ff161590508015611974576001600060016101000a81548160ff02191690831515021790555060016000806101000a81548160ff0219169083151502179055505b83600060026101000a81548173ffffffffffffffffffffffffffffffffffffffff021916908373ffffffffffffffffffffffffffffffffffffffff16021790555082600160006101000a81548173ffffffffffffffffffffffffffffffffffffffff021916908373ffffffffffffffffffffffffffffffffffffffff16021790555081600260006101000a81548173ffffffffffffffffffffffffffffffffffffffff021916908373ffffffffffffffffffffffffffffffffffffffff1602179055508015611a585760008060016101000a81548160ff0219169083151502179055505b50505050565b600060029054906101000a900473ffffffffffffffffffffffffffffffffffffffff1681565b60035481565b6000611a946116eb565b600160009054906101000a900473ffffffffffffffffffffffffffffffffffffffff1673ffffffffffffffffffffffffffffffffffffffff1663782d6fe133611ade43600161298b565b6040518363ffffffff1660e01b8152600401611afb9291906146e2565b60206040518083038186803b158015611b1357600080fd5b505afa158015611b27573d6000803e3d6000fd5b505050506040513d601f19601f82011682018060405250810190611b4b9190613634565b11611b8b576040517f08c379a0000000000000000000000000000000000000000000000000000000008152600401611b8290614c2a565b60405180910390fd5b84518651148015611b9d575083518651145b8015611baa575082518651145b611be9576040517f08c379a0000000000000000000000000000000000000000000000000000000008152600401611be090614baa565b60405180910390fd5b600086511415611c2e576040517f08c379a0000000000000000000000000000000000000000000000000000000008152600401611c2590614c0a565b60405180910390fd5b611c36611558565b86511115611c79576040517f08c379a0000000000000000000000000000000000000000000000000000000008152600401611c7090614b6a565b60405180910390fd5b6000600560003373ffffffffffffffffffffffffffffffffffffffff1673ffffffffffffffffffffffffffffffffffffffff16815260200190815260200160002054905060008114611d88576000611cd082610d04565b905060016007811115611cdf57fe5b816007811115611ceb57fe5b1415611d2c576040517f08c379a0000000000000000000000000000000000000000000000000000000008152600401611d2390614c6a565b60405180910390fd5b60006007811115611d3957fe5b816007811115611d4557fe5b1415611d86576040517f08c379a0000000000000000000000000000000000000000000000000000000008152600401611d7d90614b0a565b60405180910390fd5b505b6000611d9b43611d96610cfb565b612936565b90506000611db082611dab61072a565b612936565b9050600360008154809291906001019190505550611dcc612bd5565b604051806101a0016040528060035481526020013373ffffffffffffffffffffffffffffffffffffffff168152602001600081526020018b81526020018a815260200189815260200188815260200184815260200183815260200160008152602001600081526020016000151581526020016000151581525090508060046000836000015181526020019081526020016000206000820151816000015560208201518160010160006101000a81548173ffffffffffffffffffffffffffffffffffffffff021916908373ffffffffffffffffffffffffffffffffffffffff160217905550604082015181600201556060820151816003019080519060200190611ed6929190612c57565b506080820151816004019080519060200190611ef3929190612ce1565b5060a0820151816005019080519060200190611f10929190612d2e565b5060c0820151816006019080519060200190611f2d929190612d8e565b5060e082015181600701556101008201518160080155610120820151816009015561014082015181600a015561016082015181600b0160006101000a81548160ff02191690831515021790555061018082015181600b0160016101000a81548160ff021916908315150217905550905050806000015160056000836020015173ffffffffffffffffffffffffffffffffffffffff1673ffffffffffffffffffffffffffffffffffffffff168152602001908152602001600020819055507f7d84a6263ae0d98d3329bd7b46bb4e8d6f98cd35a7adb45c274c8b7fd5ebd5e08160000151338c8c8c8c89898e60405161202d99989796959493929190614d40565b60405180910390a1806000015194505050505095945050505050565b6004600781111561205657fe5b61205f82610d04565b600781111561206a57fe5b146120aa576040517f08c379a00000000000000000000000000000000000000000000000000000000081526004016120a190614a6a565b60405180910390fd5b6000600460008381526020019081526020016000209050600061216c42600060029054906101000a900473ffffffffffffffffffffffffffffffffffffffff1673ffffffffffffffffffffffffffffffffffffffff16636a42b8f86040518163ffffffff1660e01b815260040160206040518083038186803b15801561212f57600080fd5b505afa158015612143573d6000803e3d6000fd5b505050506040513d601f19601f820116820180604052508101906121679190613634565b612936565b905060005b826003018054905081101561234e5761234183600301828154811061219257fe5b9060005260206000200160009054906101000a900473ffffffffffffffffffffffffffffffffffffffff168460040183815481106121cc57fe5b90600052602060002001548560050184815481106121e657fe5b906000526020600020018054600181600116156101000203166002900480601f0160208091040260200160405190810160405280929190818152602001828054600181600116156101000203166002900480156122845780601f1061225957610100808354040283529160200191612284565b820191906000526020600020905b81548152906001019060200180831161226757829003601f168201915b505050505086600601858154811061229857fe5b906000526020600020018054600181600116156101000203166002900480601f0160208091040260200160405190810160405280929190818152602001828054600181600116156101000203166002900480156123365780601f1061230b57610100808354040283529160200191612336565b820191906000526020600020905b81548152906001019060200180831161231957829003601f168201915b5050505050866129ff565b8080600101915050612171565b508082600201819055507f9a2e42fd6722813d69113e7d0079d3d940171428df7373df9c7f7617cfda28928382604051612389929190614e7d565b60405180910390a1505050565b7f8e25870c07e0b0b3884c78da52790939a455c275406c44ae8b434b692fb916ee81565b6123c2612dee565b60046000848152602001908152602001600020600c0160008373ffffffffffffffffffffffffffffffffffffffff1673ffffffffffffffffffffffffffffffffffffffff1681526020019081526020016000206040518060600160405290816000820160009054906101000a900460ff161515151581526020016000820160019054906101000a900460ff16151515158152602001600182015481525050905092915050565b6005600781111561247557fe5b61247e82610d04565b600781111561248957fe5b146124c9576040517f08c379a00000000000000000000000000000000000000000000000000000000081526004016124c090614a8a565b60405180910390fd5b6000600460008381526020019081526020016000209050600181600b0160016101000a81548160ff02191690831515021790555060005b816003018054905081101561267757600060029054906101000a900473ffffffffffffffffffffffffffffffffffffffff1673ffffffffffffffffffffffffffffffffffffffff16630825f38f83600401838154811061255c57fe5b906000526020600020015484600301848154811061257657fe5b9060005260206000200160009054906101000a900473ffffffffffffffffffffffffffffffffffffffff168560040185815481106125b057fe5b90600052602060002001548660050186815481106125ca57fe5b906000526020600020018760060187815481106125e357fe5b9060005260206000200188600201546040518763ffffffff1660e01b8152600401612612959493929190614839565b6000604051808303818588803b15801561262b57600080fd5b505af115801561263f573d6000803e3d6000fd5b50505050506040513d6000823e3d601f19601f8201168201806040525081019061266991906135ca565b508080600101915050612500565b507f712ae1383f79ac853f8d882153778e0260ef8f03b504e2866e0593e04d2b291f826040516126a79190614d25565b60405180910390a15050565b600160078111156126c057fe5b6126c983610d04565b60078111156126d457fe5b14612714576040517f08c379a000000000000000000000000000000000000000000000000000000000815260040161270b90614caa565b60405180910390fd5b6000600460008481526020019081526020016000209050600081600c0160008673ffffffffffffffffffffffffffffffffffffffff1673ffffffffffffffffffffffffffffffffffffffff16815260200190815260200160002090508060000160009054906101000a900460ff16156127c2576040517f08c379a00000000000000000000000000000000000000000000000000000000081526004016127b990614aea565b60405180910390fd5b6000600160009054906101000a900473ffffffffffffffffffffffffffffffffffffffff1673ffffffffffffffffffffffffffffffffffffffff1663782d6fe18785600701546040518363ffffffff1660e01b815260040161282592919061476a565b60206040518083038186803b15801561283d57600080fd5b505afa158015612851573d6000803e3d6000fd5b505050506040513d601f19601f820116820180604052508101906128759190613634565b905083156128985761288b836009015482612936565b83600901819055506128af565b6128a683600a015482612936565b83600a01819055505b60018260000160006101000a81548160ff021916908315150217905550838260000160016101000a81548160ff0219169083151502179055508082600101819055507f877856338e13f63d0c36822ff0ef736b80934cd90574a3a5bc9262c39d217c46868686846040516129269493929190614793565b60405180910390a1505050505050565b600080828401905083811015612981576040517f08c379a000000000000000000000000000000000000000000000000000000000815260040161297890614b8a565b60405180910390fd5b8091505092915050565b6000828211156129d0576040517f08c379a00000000000000000000000000000000000000000000000000000000081526004016129c790614cca565b60405180910390fd5b818303905092915050565b6000804690508091505090565b6000803090506000813b9050600081149250505090565b600060029054906101000a900473ffffffffffffffffffffffffffffffffffffffff1673ffffffffffffffffffffffffffffffffffffffff1663f2b065378686868686604051602001612a569594939291906147d8565b604051602081830303815290604052805190602001206040518263ffffffff1660e01b8152600401612a8891906148fb565b60206040518083038186803b158015612aa057600080fd5b505afa158015612ab4573d6000803e3d6000fd5b505050506040513d601f19601f82011682018060405250810190612ad89190613578565b15612b18576040517f08c379a0000000000000000000000000000000000000000000000000000000008152600401612b0f90614bea565b60405180910390fd5b600060029054906101000a900473ffffffffffffffffffffffffffffffffffffffff1673ffffffffffffffffffffffffffffffffffffffff16633a66f90186868686866040518663ffffffff1660e01b8152600401612b7b9594939291906147d8565b602060405180830381600087803b158015612b9557600080fd5b505af1158015612ba9573d6000803e3d6000fd5b505050506040513d601f19601f82011682018060405250810190612bcd91906135a1565b505050505050565b604051806101a0016040528060008152602001600073ffffffffffffffffffffffffffffffffffffffff1681526020016000815260200160608152602001606081526020016060815260200160608152602001600081526020016000815260200160008152602001600081526020016000151581526020016000151581525090565b828054828255906000526020600020908101928215612cd0579160200282015b82811115612ccf5782518260006101000a81548173ffffffffffffffffffffffffffffffffffffffff021916908373ffffffffffffffffffffffffffffffffffffffff16021790555091602001919060010190612c77565b5b509050612cdd9190612e13565b5090565b828054828255906000526020600020908101928215612d1d579160200282015b82811115612d1c578251825591602001919060010190612d01565b5b509050612d2a9190612e4e565b5090565b828054828255906000526020600020908101928215612d7d579160200282015b82811115612d7c578251829080519060200190612d6c929190612e6b565b5091602001919060010190612d4e565b5b509050612d8a9190612eeb565b5090565b828054828255906000526020600020908101928215612ddd579160200282015b82811115612ddc578251829080519060200190612dcc929190612f0f565b5091602001919060010190612dae565b5b509050612dea9190612f8f565b5090565b6040518060600160405280600015158152602001600015158152602001600081525090565b5b80821115612e4a57600081816101000a81549073ffffffffffffffffffffffffffffffffffffffff021916905550600101612e14565b5090565b5b80821115612e67576000816000905550600101612e4f565b5090565b828054600181600116156101000203166002900490600052602060002090601f016020900481019282601f10612eac57805160ff1916838001178555612eda565b82800160010185558215612eda579182015b82811115612ed9578251825591602001919060010190612ebe565b5b509050612ee79190612e4e565b5090565b5b80821115612f0b5760008181612f029190612fb3565b50600101612eec565b5090565b828054600181600116156101000203166002900490600052602060002090601f016020900481019282601f10612f5057805160ff1916838001178555612f7e565b82800160010185558215612f7e579182015b82811115612f7d578251825591602001919060010190612f62565b5b509050612f8b9190612e4e565b5090565b5b80821115612faf5760008181612fa69190612ffb565b50600101612f90565b5090565b50805460018160011615610100020316600290046000825580601f10612fd95750612ff8565b601f016020900490600052602060002090810190612ff79190612e4e565b5b50565b50805460018160011615610100020316600290046000825580601f106130215750613040565b601f01602090049060005260206000209081019061303f9190612e4e565b5b50565b600081359050613052816152bc565b92915050565b600082601f83011261306957600080fd5b813561307c61307782614ed3565b614ea6565b915081818352602084019350602081019050838560208402820111156130a157600080fd5b60005b838110156130d157816130b78882613043565b8452602084019350602083019250506001810190506130a4565b5050505092915050565b600082601f8301126130ec57600080fd5b81356130ff6130fa82614efb565b614ea6565b9150818183526020840193506020810190508360005b83811015613145578135860161312b888261329a565b845260208401935060208301925050600181019050613115565b5050505092915050565b600082601f83011261316057600080fd5b813561317361316e82614f23565b614ea6565b9150818183526020840193506020810190508360005b838110156131b9578135860161319f8882613342565b845260208401935060208301925050600181019050613189565b5050505092915050565b600082601f8301126131d457600080fd5b81356131e76131e282614f4b565b614ea6565b9150818183526020840193506020810190508385602084028201111561320c57600080fd5b60005b8381101561323c57816132228882613396565b84526020840193506020830192505060018101905061320f565b5050505092915050565b600081359050613255816152d3565b92915050565b60008151905061326a816152d3565b92915050565b60008135905061327f816152ea565b92915050565b600081519050613294816152ea565b92915050565b600082601f8301126132ab57600080fd5b81356132be6132b982614f73565b614ea6565b915080825260208301602083018583830111156132da57600080fd5b6132e5838284615252565b50505092915050565b600082601f8301126132ff57600080fd5b815161331261330d82614f73565b614ea6565b9150808252602083016020830185838301111561332e57600080fd5b613339838284615261565b50505092915050565b600082601f83011261335357600080fd5b813561336661336182614f9f565b614ea6565b9150808252602083016020830185838301111561338257600080fd5b61338d838284615252565b50505092915050565b6000813590506133a581615301565b92915050565b6000815190506133ba81615301565b92915050565b6000813590506133cf81615318565b92915050565b6000602082840312156133e757600080fd5b60006133f584828501613043565b91505092915050565b60008060006060848603121561341357600080fd5b600061342186828701613043565b935050602061343286828701613043565b925050604061344386828701613043565b9150509250925092565b6000806040838503121561346057600080fd5b600061346e85828601613043565b925050602061347f85828601613396565b9150509250929050565b600080600080600060a086880312156134a157600080fd5b600086013567ffffffffffffffff8111156134bb57600080fd5b6134c788828901613058565b955050602086013567ffffffffffffffff8111156134e457600080fd5b6134f0888289016131c3565b945050604086013567ffffffffffffffff81111561350d57600080fd5b6135198882890161314f565b935050606086013567ffffffffffffffff81111561353657600080fd5b613542888289016130db565b925050608086013567ffffffffffffffff81111561355f57600080fd5b61356b88828901613342565b9150509295509295909350565b60006020828403121561358a57600080fd5b60006135988482850161325b565b91505092915050565b6000602082840312156135b357600080fd5b60006135c184828501613285565b91505092915050565b6000602082840312156135dc57600080fd5b600082015167ffffffffffffffff8111156135f657600080fd5b613602848285016132ee565b91505092915050565b60006020828403121561361d57600080fd5b600061362b84828501613396565b91505092915050565b60006020828403121561364657600080fd5b6000613654848285016133ab565b91505092915050565b6000806040838503121561367057600080fd5b600061367e85828601613396565b925050602061368f85828601613043565b9150509250929050565b600080604083850312156136ac57600080fd5b60006136ba85828601613396565b92505060206136cb85828601613246565b9150509250929050565b600080600080600060a086880312156136ed57600080fd5b60006136fb88828901613396565b955050602061370c88828901613246565b945050604061371d888289016133c0565b935050606061372e88828901613270565b925050608061373f88828901613270565b9150509295509295909350565b600061375883836137b3565b60208301905092915050565b600061377083836139bb565b905092915050565b60006137848383613af8565b905092915050565b60006137988383614663565b60208301905092915050565b6137ad816151b0565b82525050565b6137bc8161513e565b82525050565b6137cb8161513e565b82525050565b60006137dc82615035565b6137e681856150ab565b93506137f183614fcb565b8060005b83811015613822578151613809888261374c565b975061381483615077565b9250506001810190506137f5565b5085935050505092915050565b600061383a82615040565b61384481856150bc565b93508360208202850161385685614fdb565b8060005b8581101561389257848403895281516138738582613764565b945061387e83615084565b925060208a0199505060018101905061385a565b50829750879550505050505092915050565b60006138af8261504b565b6138b981856150cd565b9350836020820285016138cb85614feb565b8060005b8581101561390757848403895281516138e88582613778565b94506138f383615091565b925060208a019950506001810190506138cf565b50829750879550505050505092915050565b600061392482615056565b61392e81856150de565b935061393983614ffb565b8060005b8381101561396a578151613951888261378c565b975061395c8361509e565b92505060018101905061393d565b5085935050505092915050565b61398081615150565b82525050565b61398f81615150565b82525050565b61399e8161515c565b82525050565b6139b56139b08261515c565b615294565b82525050565b60006139c682615061565b6139d081856150ef565b93506139e0818560208601615261565b6139e98161529e565b840191505092915050565b60006139ff82615061565b613a098185615100565b9350613a19818560208601615261565b613a228161529e565b840191505092915050565b600081546001811660008114613a4a5760018114613a7057613ab4565b607f6002830416613a5b8187615100565b955060ff198316865260208601935050613ab4565b60028204613a7e8187615100565b9550613a898561500b565b60005b82811015613aab57815481890152600182019150602081019050613a8c565b80880195505050505b505092915050565b613ac5816151c2565b82525050565b613ad4816151e6565b82525050565b613ae38161520a565b82525050565b613af28161521c565b82525050565b6000613b038261506c565b613b0d8185615111565b9350613b1d818560208601615261565b613b268161529e565b840191505092915050565b6000613b3c8261506c565b613b468185615122565b9350613b56818560208601615261565b613b5f8161529e565b840191505092915050565b600081546001811660008114613b875760018114613bad57613bf1565b607f6002830416613b988187615122565b955060ff198316865260208601935050613bf1565b60028204613bbb8187615122565b9550613bc685615020565b60005b82811015613be857815481890152600182019150602081019050613bc9565b80880195505050505b505092915050565b6000613c06603983615122565b91507f476f7665726e6f72416c7068613a3a5f5f61636365707441646d696e3a20736560008301527f6e646572206d75737420626520676f7620677561726469616e000000000000006020830152604082019050919050565b6000613c6c604483615122565b91507f476f7665726e6f72416c7068613a3a71756575653a2070726f706f73616c206360008301527f616e206f6e6c792062652071756575656420696620697420697320737563636560208301527f65646564000000000000000000000000000000000000000000000000000000006040830152606082019050919050565b6000613cf8604583615122565b91507f476f7665726e6f72416c7068613a3a657865637574653a2070726f706f73616c60008301527f2063616e206f6e6c79206265206578656375746564206966206974206973207160208301527f75657565640000000000000000000000000000000000000000000000000000006040830152606082019050919050565b6000613d84600283615133565b91507f19010000000000000000000000000000000000000000000000000000000000006000830152600282019050919050565b6000613dc4604c83615122565b91507f476f7665726e6f72416c7068613a3a5f5f6578656375746553657454696d656c60008301527f6f636b50656e64696e6741646d696e3a2073656e646572206d7573742062652060208301527f676f7620677561726469616e00000000000000000000000000000000000000006040830152606082019050919050565b6000613e50601883615122565b91507f73657450656e64696e6741646d696e28616464726573732900000000000000006000830152602082019050919050565b6000613e90602983615122565b91507f476f7665726e6f72416c7068613a3a73746174653a20696e76616c696420707260008301527f6f706f73616c20696400000000000000000000000000000000000000000000006020830152604082019050919050565b6000613ef6602d83615122565b91507f476f7665726e6f72416c7068613a3a5f63617374566f74653a20766f7465722060008301527f616c726561647920766f746564000000000000000000000000000000000000006020830152604082019050919050565b6000613f5c605983615122565b91507f476f7665726e6f72416c7068613a3a70726f706f73653a206f6e65206c69766560008301527f2070726f706f73616c207065722070726f706f7365722c20666f756e6420616e60208301527f20616c72656164792070656e64696e672070726f706f73616c000000000000006040830152606082019050919050565b6000613fe8604a83615122565b91507f476f7665726e6f72416c7068613a3a5f5f717565756553657454696d656c6f6360008301527f6b50656e64696e6741646d696e3a2073656e646572206d75737420626520676f60208301527f7620677561726469616e000000000000000000000000000000000000000000006040830152606082019050919050565b6000614074602e83615122565b91507f496e697469616c697a61626c653a20636f6e747261637420697320616c72656160008301527f647920696e697469616c697a65640000000000000000000000000000000000006020830152604082019050919050565b60006140da602883615122565b91507f476f7665726e6f72416c7068613a3a70726f706f73653a20746f6f206d616e7960008301527f20616374696f6e730000000000000000000000000000000000000000000000006020830152604082019050919050565b6000614140601183615122565b91507f6164646974696f6e206f766572666c6f770000000000000000000000000000006000830152602082019050919050565b6000614180604483615122565b91507f476f7665726e6f72416c7068613a3a70726f706f73653a2070726f706f73616c60008301527f2066756e6374696f6e20696e666f726d6174696f6e206172697479206d69736d60208301527f61746368000000000000000000000000000000000000000000000000000000006040830152606082019050919050565b600061420c602f83615122565b91507f476f7665726e6f72416c7068613a3a63616e63656c3a2070726f706f7365722060008301527f61626f7665207468726573686f6c6400000000000000000000000000000000006020830152604082019050919050565b6000614272604483615122565b91507f476f7665726e6f72416c7068613a3a5f71756575654f725265766572743a207060008301527f726f706f73616c20616374696f6e20616c72656164792071756575656420617460208301527f20657461000000000000000000000000000000000000000000000000000000006040830152606082019050919050565b60006142fe602c83615122565b91507f476f7665726e6f72416c7068613a3a70726f706f73653a206d7573742070726f60008301527f7669646520616374696f6e7300000000000000000000000000000000000000006020830152604082019050919050565b6000614364603f83615122565b91507f476f7665726e6f72416c7068613a3a70726f706f73653a2070726f706f73657260008301527f20766f7465732062656c6f772070726f706f73616c207468726573686f6c64006020830152604082019050919050565b60006143ca602f83615122565b91507f476f7665726e6f72416c7068613a3a63617374566f746542795369673a20696e60008301527f76616c6964207369676e617475726500000000000000000000000000000000006020830152604082019050919050565b6000614430605883615122565b91507f476f7665726e6f72416c7068613a3a70726f706f73653a206f6e65206c69766560008301527f2070726f706f73616c207065722070726f706f7365722c20666f756e6420616e60208301527f20616c7265616479206163746976652070726f706f73616c00000000000000006040830152606082019050919050565b60006144bc603683615122565b91507f476f7665726e6f72416c7068613a3a63616e63656c3a2063616e6e6f7420636160008301527f6e63656c2065786563757465642070726f706f73616c000000000000000000006020830152604082019050919050565b6000614522602a83615122565b91507f476f7665726e6f72416c7068613a3a5f63617374566f74653a20766f74696e6760008301527f20697320636c6f736564000000000000000000000000000000000000000000006020830152604082019050919050565b6000614588601583615122565b91507f7375627472616374696f6e20756e646572666c6f7700000000000000000000006000830152602082019050919050565b60006145c8603683615122565b91507f476f7665726e6f72416c7068613a3a5f5f61626469636174653a2073656e646560008301527f72206d75737420626520676f7620677561726469616e000000000000000000006020830152604082019050919050565b6060820160008201516146376000850182613977565b50602082015161464a6020850182613977565b50604082015161465d6040850182614663565b50505050565b61466c81615199565b82525050565b61467b81615199565b82525050565b61468a816151a3565b82525050565b600061469b82613d77565b91506146a782856139a4565b6020820191506146b782846139a4565b6020820191508190509392505050565b60006020820190506146dc60008301846137c2565b92915050565b60006040820190506146f760008301856137a4565b6147046020830184614672565b9392505050565b600060a08201905061472060008301876137c2565b61472d6020830186613ae9565b818103604083015261473e81613e43565b9050818103606083015261475281856139f4565b90506147616080830184614672565b95945050505050565b600060408201905061477f60008301856137c2565b61478c6020830184614672565b9392505050565b60006080820190506147a860008301876137c2565b6147b56020830186614672565b6147c26040830185613986565b6147cf6060830184614672565b95945050505050565b600060a0820190506147ed60008301886137c2565b6147fa6020830187614672565b818103604083015261480c8186613b31565b9050818103606083015261482081856139f4565b905061482f6080830184614672565b9695505050505050565b600060a08201905061484e60008301886137c2565b61485b6020830187614672565b818103604083015261486d8186613b6a565b905081810360608301526148818185613a2d565b90506148906080830184614672565b9695505050505050565b600060808201905081810360008301526148b481876137d1565b905081810360208301526148c88186613919565b905081810360408301526148dc81856138a4565b905081810360608301526148f0818461382f565b905095945050505050565b60006020820190506149106000830184613995565b92915050565b600060808201905061492b6000830187613995565b6149386020830186613995565b6149456040830185614672565b61495260608301846137c2565b95945050505050565b60006060820190506149706000830186613995565b61497d6020830185614672565b61498a6040830184613986565b949350505050565b60006080820190506149a76000830187613995565b6149b46020830186614681565b6149c16040830185613995565b6149ce6060830184613995565b95945050505050565b60006020820190506149ec6000830184613abc565b92915050565b6000602082019050614a076000830184613acb565b92915050565b6000602082019050614a226000830184613ada565b92915050565b60006020820190508181036000830152614a428184613b31565b905092915050565b60006020820190508181036000830152614a6381613bf9565b9050919050565b60006020820190508181036000830152614a8381613c5f565b9050919050565b60006020820190508181036000830152614aa381613ceb565b9050919050565b60006020820190508181036000830152614ac381613db7565b9050919050565b60006020820190508181036000830152614ae381613e83565b9050919050565b60006020820190508181036000830152614b0381613ee9565b9050919050565b60006020820190508181036000830152614b2381613f4f565b9050919050565b60006020820190508181036000830152614b4381613fdb565b9050919050565b60006020820190508181036000830152614b6381614067565b9050919050565b60006020820190508181036000830152614b83816140cd565b9050919050565b60006020820190508181036000830152614ba381614133565b9050919050565b60006020820190508181036000830152614bc381614173565b9050919050565b60006020820190508181036000830152614be3816141ff565b9050919050565b60006020820190508181036000830152614c0381614265565b9050919050565b60006020820190508181036000830152614c23816142f1565b9050919050565b60006020820190508181036000830152614c4381614357565b9050919050565b60006020820190508181036000830152614c63816143bd565b9050919050565b60006020820190508181036000830152614c8381614423565b9050919050565b60006020820190508181036000830152614ca3816144af565b9050919050565b60006020820190508181036000830152614cc381614515565b9050919050565b60006020820190508181036000830152614ce38161457b565b9050919050565b60006020820190508181036000830152614d03816145bb565b9050919050565b6000606082019050614d1f6000830184614621565b92915050565b6000602082019050614d3a6000830184614672565b92915050565b600061012082019050614d56600083018c614672565b614d63602083018b6137a4565b8181036040830152614d75818a6137d1565b90508181036060830152614d898189613919565b90508181036080830152614d9d81886138a4565b905081810360a0830152614db1818761382f565b9050614dc060c0830186614672565b614dcd60e0830185614672565b818103610100830152614de08184613b31565b90509a9950505050505050505050565b600061012082019050614e06600083018c614672565b614e13602083018b6137c2565b614e20604083018a614672565b614e2d6060830189614672565b614e3a6080830188614672565b614e4760a0830187614672565b614e5460c0830186614672565b614e6160e0830185613986565b614e6f610100830184613986565b9a9950505050505050505050565b6000604082019050614e926000830185614672565b614e9f6020830184614672565b9392505050565b6000604051905081810181811067ffffffffffffffff82111715614ec957600080fd5b8060405250919050565b600067ffffffffffffffff821115614eea57600080fd5b602082029050602081019050919050565b600067ffffffffffffffff821115614f1257600080fd5b602082029050602081019050919050565b600067ffffffffffffffff821115614f3a57600080fd5b602082029050602081019050919050565b600067ffffffffffffffff821115614f6257600080fd5b602082029050602081019050919050565b600067ffffffffffffffff821115614f8a57600080fd5b601f19601f8301169050602081019050919050565b600067ffffffffffffffff821115614fb657600080fd5b601f19601f8301169050602081019050919050565b6000819050602082019050919050565b6000819050602082019050919050565b6000819050602082019050919050565b6000819050602082019050919050565b60008190508160005260206000209050919050565b60008190508160005260206000209050919050565b600081519050919050565b600081519050919050565b600081519050919050565b600081519050919050565b600081519050919050565b600081519050919050565b6000602082019050919050565b6000602082019050919050565b6000602082019050919050565b6000602082019050919050565b600082825260208201905092915050565b600082825260208201905092915050565b600082825260208201905092915050565b600082825260208201905092915050565b600082825260208201905092915050565b600082825260208201905092915050565b600082825260208201905092915050565b600082825260208201905092915050565b600081905092915050565b600061514982615179565b9050919050565b60008115159050919050565b6000819050919050565b6000819050615174826152af565b919050565b600073ffffffffffffffffffffffffffffffffffffffff82169050919050565b6000819050919050565b600060ff82169050919050565b60006151bb8261522e565b9050919050565b60006151cd826151d4565b9050919050565b60006151df82615179565b9050919050565b60006151f1826151f8565b9050919050565b600061520382615179565b9050919050565b600061521582615166565b9050919050565b600061522782615199565b9050919050565b600061523982615240565b9050919050565b600061524b82615179565b9050919050565b82818337600083830152505050565b60005b8381101561527f578082015181840152602081019050615264565b8381111561528e576000848401525b50505050565b6000819050919050565b6000601f19601f8301169050919050565b600881106152b957fe5b50565b6152c58161513e565b81146152d057600080fd5b50565b6152dc81615150565b81146152e757600080fd5b50565b6152f38161515c565b81146152fe57600080fd5b50565b61530a81615199565b811461531557600080fd5b50565b615321816151a3565b811461532c57600080fd5b5056fea264697066735822122036acb39a89925d81712d176d27491cf03da7b12458cfe45c7ada6c05632682b964736f6c634300060c0033",
  "immutableReferences": {},
  "source": "// SPDX-License-Identifier: MIT\npragma solidity 0.6.12;\npragma experimental ABIEncoderV2;\n\nimport \"./Zoracles.sol\";\nimport \"@openzeppelin/contracts-upgradeable/proxy/Initializable.sol\";\n\ncontract GovernorAlpha is Initializable {\n    /// @notice The name of this contract\n    string public constant name = \"Zoracles Governor Alpha\";\n\n    /// @notice The number of votes in support of a proposal required in order for a quorum to be reached and for a vote to succeed\n    function quorumVotes() public view returns (uint256) {\n        return zora.totalSupply() / 10;\n    } // 10% of Total Supply\n\n    /// @notice The number of votes required in order for a voter to become a proposer\n    function proposalThreshold() public view returns (uint256) {\n        return zora.totalSupply() / 100;\n    } // 1% of Total Supply\n\n    /// @notice The maximum number of actions that can be included in a proposal\n    function proposalMaxOperations() public pure returns (uint256) {\n        return 10;\n    } // 10 actions\n\n    /// @notice The delay before voting on a proposal may take place, once proposed\n    function votingDelay() public pure returns (uint256) {\n        return 1;\n    } // 1 block\n\n    /// @notice The duration of voting on a proposal, in blocks\n    function votingPeriod() public pure returns (uint256) {\n        return 28800;\n    } // ~5 days in blocks (assuming 15s blocks)\n\n    /// @notice The address of the Zoracle Timelock\n    TimelockInterface public timelock;\n\n    /// @notice The address of the Zoracle governance token\n    // XXX: ZoracleInterface public zora;\n    Zoracles public zora;\n\n    /// @notice The address of the Governor Guardian\n    address public guardian;\n\n    /// @notice The total number of proposals\n    uint256 public proposalCount;\n\n    struct Proposal {\n        /// @notice Unique id for looking up a proposal\n        uint256 id;\n        /// @notice Creator of the proposal\n        address proposer;\n        /// @notice The timestamp that the proposal will be available for execution, set once the vote succeeds\n        uint256 eta;\n        /// @notice the ordered list of target addresses for calls to be made\n        address[] targets;\n        /// @notice The ordered list of values (i.e. msg.value) to be passed to the calls to be made\n        uint256[] values;\n        /// @notice The ordered list of function signatures to be called\n        string[] signatures;\n        /// @notice The ordered list of calldata to be passed to each call\n        bytes[] calldatas;\n        /// @notice The block at which voting begins: holders must delegate their votes prior to this block\n        uint256 startBlock;\n        /// @notice The block at which voting ends: votes must be cast prior to this block\n        uint256 endBlock;\n        /// @notice Current number of votes in favor of this proposal\n        uint256 forVotes;\n        /// @notice Current number of votes in opposition to this proposal\n        uint256 againstVotes;\n        /// @notice Flag marking whether the proposal has been canceled\n        bool canceled;\n        /// @notice Flag marking whether the proposal has been executed\n        bool executed;\n        /// @notice Receipts of ballots for the entire set of voters\n        mapping(address => Receipt) receipts;\n    }\n\n    /// @notice Ballot receipt record for a voter\n    struct Receipt {\n        /// @notice Whether or not a vote has been cast\n        bool hasVoted;\n        /// @notice Whether or not the voter supports the proposal\n        bool support;\n        /// @notice The number of votes the voter had, which were cast\n        uint256 votes;\n    }\n\n    /// @notice Possible states that a proposal may be in\n    enum ProposalState {\n        Pending,\n        Active,\n        Canceled,\n        Defeated,\n        Succeeded,\n        Queued,\n        Expired,\n        Executed\n    }\n\n    /// @notice The official record of all proposals ever proposed\n    mapping(uint256 => Proposal) public proposals;\n\n    /// @notice The latest proposal for each proposer\n    mapping(address => uint256) public latestProposalIds;\n\n    /// @notice The EIP-712 typehash for the contract's domain\n    bytes32 public constant DOMAIN_TYPEHASH = keccak256(\n        \"EIP712Domain(string name,uint256 chainId,address verifyingContract)\"\n    );\n\n    /// @notice The EIP-712 typehash for the ballot struct used by the contract\n    bytes32 public constant BALLOT_TYPEHASH = keccak256(\n        \"Ballot(uint256 proposalId,bool support)\"\n    );\n\n    /// @notice An event emitted when a new proposal is created\n    event ProposalCreated(\n        uint256 id,\n        address proposer,\n        address[] targets,\n        uint256[] values,\n        string[] signatures,\n        bytes[] calldatas,\n        uint256 startBlock,\n        uint256 endBlock,\n        string description\n    );\n\n    /// @notice An event emitted when a vote has been cast on a proposal\n    event VoteCast(\n        address voter,\n        uint256 proposalId,\n        bool support,\n        uint256 votes\n    );\n\n    /// @notice An event emitted when a proposal has been canceled\n    event ProposalCanceled(uint256 id);\n\n    /// @notice An event emitted when a proposal has been queued in the Timelock\n    event ProposalQueued(uint256 id, uint256 eta);\n\n    /// @notice An event emitted when a proposal has been executed in the Timelock\n    event ProposalExecuted(uint256 id);\n\n    function initialize(\n        address _timelock,\n        address _zora,\n        address _guardian\n    ) public initializer {\n        timelock = TimelockInterface(_timelock);\n        zora = Zoracles(_zora);\n        guardian = _guardian;\n    }\n\n    function propose(\n        address[] memory targets,\n        uint256[] memory values,\n        string[] memory signatures,\n        bytes[] memory calldatas,\n        string memory description\n    ) public returns (uint256) {\n        require(\n            zora.getPriorVotes(msg.sender, sub256(block.number, 1)) >\n                proposalThreshold(),\n            \"GovernorAlpha::propose: proposer votes below proposal threshold\"\n        );\n        require(\n            targets.length == values.length &&\n                targets.length == signatures.length &&\n                targets.length == calldatas.length,\n            \"GovernorAlpha::propose: proposal function information arity mismatch\"\n        );\n        require(\n            targets.length != 0,\n            \"GovernorAlpha::propose: must provide actions\"\n        );\n        require(\n            targets.length <= proposalMaxOperations(),\n            \"GovernorAlpha::propose: too many actions\"\n        );\n\n        uint256 latestProposalId = latestProposalIds[msg.sender];\n        if (latestProposalId != 0) {\n            ProposalState proposersLatestProposalState = state(\n                latestProposalId\n            );\n            require(\n                proposersLatestProposalState != ProposalState.Active,\n                \"GovernorAlpha::propose: one live proposal per proposer, found an already active proposal\"\n            );\n            require(\n                proposersLatestProposalState != ProposalState.Pending,\n                \"GovernorAlpha::propose: one live proposal per proposer, found an already pending proposal\"\n            );\n        }\n\n        uint256 startBlock = add256(block.number, votingDelay());\n        uint256 endBlock = add256(startBlock, votingPeriod());\n\n        proposalCount++;\n        Proposal memory newProposal = Proposal({\n            id: proposalCount,\n            proposer: msg.sender,\n            eta: 0,\n            targets: targets,\n            values: values,\n            signatures: signatures,\n            calldatas: calldatas,\n            startBlock: startBlock,\n            endBlock: endBlock,\n            forVotes: 0,\n            againstVotes: 0,\n            canceled: false,\n            executed: false\n        });\n\n        proposals[newProposal.id] = newProposal;\n        latestProposalIds[newProposal.proposer] = newProposal.id;\n\n        emit ProposalCreated(\n            newProposal.id,\n            msg.sender,\n            targets,\n            values,\n            signatures,\n            calldatas,\n            startBlock,\n            endBlock,\n            description\n        );\n        return newProposal.id;\n    }\n\n    function queue(uint256 proposalId) public {\n        require(\n            state(proposalId) == ProposalState.Succeeded,\n            \"GovernorAlpha::queue: proposal can only be queued if it is succeeded\"\n        );\n        Proposal storage proposal = proposals[proposalId];\n        uint256 eta = add256(block.timestamp, timelock.delay());\n        for (uint256 i = 0; i < proposal.targets.length; i++) {\n            _queueOrRevert(\n                proposal.targets[i],\n                proposal.values[i],\n                proposal.signatures[i],\n                proposal.calldatas[i],\n                eta\n            );\n        }\n        proposal.eta = eta;\n        emit ProposalQueued(proposalId, eta);\n    }\n\n    function _queueOrRevert(\n        address target,\n        uint256 value,\n        string memory signature,\n        bytes memory data,\n        uint256 eta\n    ) internal {\n        require(\n            !timelock.queuedTransactions(\n                keccak256(abi.encode(target, value, signature, data, eta))\n            ),\n            \"GovernorAlpha::_queueOrRevert: proposal action already queued at eta\"\n        );\n        timelock.queueTransaction(target, value, signature, data, eta);\n    }\n\n    function execute(uint256 proposalId) public payable {\n        require(\n            state(proposalId) == ProposalState.Queued,\n            \"GovernorAlpha::execute: proposal can only be executed if it is queued\"\n        );\n        Proposal storage proposal = proposals[proposalId];\n        proposal.executed = true;\n        for (uint256 i = 0; i < proposal.targets.length; i++) {\n            timelock.executeTransaction.value(proposal.values[i])(\n                proposal.targets[i],\n                proposal.values[i],\n                proposal.signatures[i],\n                proposal.calldatas[i],\n                proposal.eta\n            );\n        }\n        emit ProposalExecuted(proposalId);\n    }\n\n    function cancel(uint256 proposalId) public {\n        ProposalState state = state(proposalId);\n        require(\n            state != ProposalState.Executed,\n            \"GovernorAlpha::cancel: cannot cancel executed proposal\"\n        );\n\n        Proposal storage proposal = proposals[proposalId];\n        require(\n            msg.sender == guardian ||\n                zora.getPriorVotes(proposal.proposer, sub256(block.number, 1)) <\n                proposalThreshold(),\n            \"GovernorAlpha::cancel: proposer above threshold\"\n        );\n\n        proposal.canceled = true;\n        for (uint256 i = 0; i < proposal.targets.length; i++) {\n            timelock.cancelTransaction(\n                proposal.targets[i],\n                proposal.values[i],\n                proposal.signatures[i],\n                proposal.calldatas[i],\n                proposal.eta\n            );\n        }\n\n        emit ProposalCanceled(proposalId);\n    }\n\n    function getActions(uint256 proposalId)\n        public\n        view\n        returns (\n            address[] memory targets,\n            uint256[] memory values,\n            string[] memory signatures,\n            bytes[] memory calldatas\n        )\n    {\n        Proposal storage p = proposals[proposalId];\n        return (p.targets, p.values, p.signatures, p.calldatas);\n    }\n\n    function getReceipt(uint256 proposalId, address voter)\n        public\n        view\n        returns (Receipt memory)\n    {\n        return proposals[proposalId].receipts[voter];\n    }\n\n    function state(uint256 proposalId) public view returns (ProposalState) {\n        require(\n            proposalCount >= proposalId && proposalId > 0,\n            \"GovernorAlpha::state: invalid proposal id\"\n        );\n        Proposal storage proposal = proposals[proposalId];\n        if (proposal.canceled) {\n            return ProposalState.Canceled;\n        } else if (block.number <= proposal.startBlock) {\n            return ProposalState.Pending;\n        } else if (block.number <= proposal.endBlock) {\n            return ProposalState.Active;\n        } else if (\n            proposal.forVotes <= proposal.againstVotes ||\n            proposal.forVotes < quorumVotes()\n        ) {\n            return ProposalState.Defeated;\n        } else if (proposal.eta == 0) {\n            return ProposalState.Succeeded;\n        } else if (proposal.executed) {\n            return ProposalState.Executed;\n        } else if (\n            block.timestamp >= add256(proposal.eta, timelock.GRACE_PERIOD())\n        ) {\n            return ProposalState.Expired;\n        } else {\n            return ProposalState.Queued;\n        }\n    }\n\n    function castVote(uint256 proposalId, bool support) public {\n        return _castVote(msg.sender, proposalId, support);\n    }\n\n    function castVoteBySig(\n        uint256 proposalId,\n        bool support,\n        uint8 v,\n        bytes32 r,\n        bytes32 s\n    ) public {\n        bytes32 domainSeparator = keccak256(\n            abi.encode(\n                DOMAIN_TYPEHASH,\n                keccak256(bytes(name)),\n                getChainId(),\n                address(this)\n            )\n        );\n        bytes32 structHash = keccak256(\n            abi.encode(BALLOT_TYPEHASH, proposalId, support)\n        );\n        bytes32 digest = keccak256(\n            abi.encodePacked(\"\\x19\\x01\", domainSeparator, structHash)\n        );\n        address signatory = ecrecover(digest, v, r, s);\n        require(\n            signatory != address(0),\n            \"GovernorAlpha::castVoteBySig: invalid signature\"\n        );\n        return _castVote(signatory, proposalId, support);\n    }\n\n    function _castVote(\n        address voter,\n        uint256 proposalId,\n        bool support\n    ) internal {\n        require(\n            state(proposalId) == ProposalState.Active,\n            \"GovernorAlpha::_castVote: voting is closed\"\n        );\n        Proposal storage proposal = proposals[proposalId];\n        Receipt storage receipt = proposal.receipts[voter];\n        require(\n            !receipt.hasVoted,\n            \"GovernorAlpha::_castVote: voter already voted\"\n        );\n        uint256 votes = zora.getPriorVotes(voter, proposal.startBlock);\n\n        if (support) {\n            proposal.forVotes = add256(proposal.forVotes, votes);\n        } else {\n            proposal.againstVotes = add256(proposal.againstVotes, votes);\n        }\n\n        receipt.hasVoted = true;\n        receipt.support = support;\n        receipt.votes = votes;\n\n        emit VoteCast(voter, proposalId, support, votes);\n    }\n\n    function __acceptAdmin() public {\n        require(\n            msg.sender == guardian,\n            \"GovernorAlpha::__acceptAdmin: sender must be gov guardian\"\n        );\n        timelock.acceptAdmin();\n    }\n\n    function __abdicate() public {\n        require(\n            msg.sender == guardian,\n            \"GovernorAlpha::__abdicate: sender must be gov guardian\"\n        );\n        guardian = address(0);\n    }\n\n    function __queueSetTimelockPendingAdmin(\n        address newPendingAdmin,\n        uint256 eta\n    ) public {\n        require(\n            msg.sender == guardian,\n            \"GovernorAlpha::__queueSetTimelockPendingAdmin: sender must be gov guardian\"\n        );\n        timelock.queueTransaction(\n            address(timelock),\n            0,\n            \"setPendingAdmin(address)\",\n            abi.encode(newPendingAdmin),\n            eta\n        );\n    }\n\n    function __executeSetTimelockPendingAdmin(\n        address newPendingAdmin,\n        uint256 eta\n    ) public {\n        require(\n            msg.sender == guardian,\n            \"GovernorAlpha::__executeSetTimelockPendingAdmin: sender must be gov guardian\"\n        );\n        timelock.executeTransaction(\n            address(timelock),\n            0,\n            \"setPendingAdmin(address)\",\n            abi.encode(newPendingAdmin),\n            eta\n        );\n    }\n\n    function add256(uint256 a, uint256 b) internal pure returns (uint256) {\n        uint256 c = a + b;\n        require(c >= a, \"addition overflow\");\n        return c;\n    }\n\n    function sub256(uint256 a, uint256 b) internal pure returns (uint256) {\n        require(b <= a, \"subtraction underflow\");\n        return a - b;\n    }\n\n    function getChainId() internal pure returns (uint256) {\n        uint256 chainId;\n        assembly {\n            chainId := chainid()\n        }\n        return chainId;\n    }\n}\n\ninterface TimelockInterface {\n    function delay() external view returns (uint256);\n\n    function GRACE_PERIOD() external view returns (uint256);\n\n    function acceptAdmin() external;\n\n    function queuedTransactions(bytes32 hash) external view returns (bool);\n\n    function queueTransaction(\n        address target,\n        uint256 value,\n        string calldata signature,\n        bytes calldata data,\n        uint256 eta\n    ) external returns (bytes32);\n\n    function cancelTransaction(\n        address target,\n        uint256 value,\n        string calldata signature,\n        bytes calldata data,\n        uint256 eta\n    ) external;\n\n    function executeTransaction(\n        address target,\n        uint256 value,\n        string calldata signature,\n        bytes calldata data,\n        uint256 eta\n    ) external payable returns (bytes memory);\n}\n",
  "sourcePath": "/Users/Sheed/Desktop/Zora2/migration/contracts/Governance.sol",
  "compiler": {
    "name": "solc",
    "version": "0.6.12+commit.27d51765.Emscripten.clang"
  },
  "schemaVersion": "3.3.2",
  "updatedAt": "2020-11-26T13:47:22.013Z",
  "devdoc": {
    "kind": "dev",
    "methods": {},
    "version": 1
  },
  "userdoc": {
    "events": {
      "ProposalCanceled(uint256)": {
        "notice": "An event emitted when a proposal has been canceled"
      },
      "ProposalCreated(uint256,address,address[],uint256[],string[],bytes[],uint256,uint256,string)": {
        "notice": "An event emitted when a new proposal is created"
      },
      "ProposalExecuted(uint256)": {
        "notice": "An event emitted when a proposal has been executed in the Timelock"
      },
      "ProposalQueued(uint256,uint256)": {
        "notice": "An event emitted when a proposal has been queued in the Timelock"
      },
      "VoteCast(address,uint256,bool,uint256)": {
        "notice": "An event emitted when a vote has been cast on a proposal"
      }
    },
    "kind": "user",
    "methods": {
      "BALLOT_TYPEHASH()": {
        "notice": "The EIP-712 typehash for the ballot struct used by the contract"
      },
      "DOMAIN_TYPEHASH()": {
        "notice": "The EIP-712 typehash for the contract's domain"
      },
      "guardian()": {
        "notice": "The address of the Governor Guardian"
      },
      "latestProposalIds(address)": {
        "notice": "The latest proposal for each proposer"
      },
      "name()": {
        "notice": "The name of this contract"
      },
      "proposalCount()": {
        "notice": "The total number of proposals"
      },
      "proposalMaxOperations()": {
        "notice": "The maximum number of actions that can be included in a proposal"
      },
      "proposalThreshold()": {
        "notice": "The number of votes required in order for a voter to become a proposer"
      },
      "proposals(uint256)": {
        "notice": "The official record of all proposals ever proposed"
      },
      "quorumVotes()": {
        "notice": "The number of votes in support of a proposal required in order for a quorum to be reached and for a vote to succeed"
      },
      "timelock()": {
        "notice": "The address of the Zoracle Timelock"
      },
      "votingDelay()": {
        "notice": "The delay before voting on a proposal may take place, once proposed"
      },
      "votingPeriod()": {
        "notice": "The duration of voting on a proposal, in blocks"
      },
      "zora()": {
        "notice": "The address of the Zoracle governance token"
      }
    },
    "version": 1
  }
}