{
  "contractName": "GovernorAlpha",
  "abi": [
    {
      "anonymous": false,
      "inputs": [
        {
          "indexed": false,
          "internalType": "uint256",
          "name": "id",
          "type": "uint256"
        }
      ],
      "name": "ProposalCanceled",
      "type": "event"
    },
    {
      "anonymous": false,
      "inputs": [
        {
          "indexed": false,
          "internalType": "uint256",
          "name": "id",
          "type": "uint256"
        },
        {
          "indexed": false,
          "internalType": "address",
          "name": "proposer",
          "type": "address"
        },
        {
          "indexed": false,
          "internalType": "address[]",
          "name": "targets",
          "type": "address[]"
        },
        {
          "indexed": false,
          "internalType": "uint256[]",
          "name": "values",
          "type": "uint256[]"
        },
        {
          "indexed": false,
          "internalType": "string[]",
          "name": "signatures",
          "type": "string[]"
        },
        {
          "indexed": false,
          "internalType": "bytes[]",
          "name": "calldatas",
          "type": "bytes[]"
        },
        {
          "indexed": false,
          "internalType": "uint256",
          "name": "startBlock",
          "type": "uint256"
        },
        {
          "indexed": false,
          "internalType": "uint256",
          "name": "endBlock",
          "type": "uint256"
        },
        {
          "indexed": false,
          "internalType": "string",
          "name": "description",
          "type": "string"
        }
      ],
      "name": "ProposalCreated",
      "type": "event"
    },
    {
      "anonymous": false,
      "inputs": [
        {
          "indexed": false,
          "internalType": "uint256",
          "name": "id",
          "type": "uint256"
        }
      ],
      "name": "ProposalExecuted",
      "type": "event"
    },
    {
      "anonymous": false,
      "inputs": [
        {
          "indexed": false,
          "internalType": "uint256",
          "name": "id",
          "type": "uint256"
        },
        {
          "indexed": false,
          "internalType": "uint256",
          "name": "eta",
          "type": "uint256"
        }
      ],
      "name": "ProposalQueued",
      "type": "event"
    },
    {
      "anonymous": false,
      "inputs": [
        {
          "indexed": false,
          "internalType": "address",
          "name": "voter",
          "type": "address"
        },
        {
          "indexed": false,
          "internalType": "uint256",
          "name": "proposalId",
          "type": "uint256"
        },
        {
          "indexed": false,
          "internalType": "bool",
          "name": "support",
          "type": "bool"
        },
        {
          "indexed": false,
          "internalType": "uint256",
          "name": "votes",
          "type": "uint256"
        }
      ],
      "name": "VoteCast",
      "type": "event"
    },
    {
      "inputs": [],
      "name": "BALLOT_TYPEHASH",
      "outputs": [
        {
          "internalType": "bytes32",
          "name": "",
          "type": "bytes32"
        }
      ],
      "stateMutability": "view",
      "type": "function",
      "constant": true
    },
    {
      "inputs": [],
      "name": "DOMAIN_TYPEHASH",
      "outputs": [
        {
          "internalType": "bytes32",
          "name": "",
          "type": "bytes32"
        }
      ],
      "stateMutability": "view",
      "type": "function",
      "constant": true
    },
    {
      "inputs": [],
      "name": "guardian",
      "outputs": [
        {
          "internalType": "address",
          "name": "",
          "type": "address"
        }
      ],
      "stateMutability": "view",
      "type": "function",
      "constant": true
    },
    {
      "inputs": [
        {
          "internalType": "address",
          "name": "",
          "type": "address"
        }
      ],
      "name": "latestProposalIds",
      "outputs": [
        {
          "internalType": "uint256",
          "name": "",
          "type": "uint256"
        }
      ],
      "stateMutability": "view",
      "type": "function",
      "constant": true
    },
    {
      "inputs": [],
      "name": "name",
      "outputs": [
        {
          "internalType": "string",
          "name": "",
          "type": "string"
        }
      ],
      "stateMutability": "view",
      "type": "function",
      "constant": true
    },
    {
      "inputs": [],
      "name": "proposalCount",
      "outputs": [
        {
          "internalType": "uint256",
          "name": "",
          "type": "uint256"
        }
      ],
      "stateMutability": "view",
      "type": "function",
      "constant": true
    },
    {
      "inputs": [
        {
          "internalType": "uint256",
          "name": "",
          "type": "uint256"
        }
      ],
      "name": "proposals",
      "outputs": [
        {
          "internalType": "uint256",
          "name": "id",
          "type": "uint256"
        },
        {
          "internalType": "address",
          "name": "proposer",
          "type": "address"
        },
        {
          "internalType": "uint256",
          "name": "eta",
          "type": "uint256"
        },
        {
          "internalType": "uint256",
          "name": "startBlock",
          "type": "uint256"
        },
        {
          "internalType": "uint256",
          "name": "endBlock",
          "type": "uint256"
        },
        {
          "internalType": "uint256",
          "name": "forVotes",
          "type": "uint256"
        },
        {
          "internalType": "uint256",
          "name": "againstVotes",
          "type": "uint256"
        },
        {
          "internalType": "bool",
          "name": "canceled",
          "type": "bool"
        },
        {
          "internalType": "bool",
          "name": "executed",
          "type": "bool"
        }
      ],
      "stateMutability": "view",
      "type": "function",
      "constant": true
    },
    {
      "inputs": [],
      "name": "timelock",
      "outputs": [
        {
          "internalType": "contract TimelockInterface",
          "name": "",
          "type": "address"
        }
      ],
      "stateMutability": "view",
      "type": "function",
      "constant": true
    },
    {
      "inputs": [],
      "name": "zora",
      "outputs": [
        {
          "internalType": "contract Zoracles",
          "name": "",
          "type": "address"
        }
      ],
      "stateMutability": "view",
      "type": "function",
      "constant": true
    },
    {
      "inputs": [],
      "name": "quorumVotes",
      "outputs": [
        {
          "internalType": "uint256",
          "name": "",
          "type": "uint256"
        }
      ],
      "stateMutability": "view",
      "type": "function",
      "constant": true
    },
    {
      "inputs": [],
      "name": "proposalThreshold",
      "outputs": [
        {
          "internalType": "uint256",
          "name": "",
          "type": "uint256"
        }
      ],
      "stateMutability": "view",
      "type": "function",
      "constant": true
    },
    {
      "inputs": [],
      "name": "proposalMaxOperations",
      "outputs": [
        {
          "internalType": "uint256",
          "name": "",
          "type": "uint256"
        }
      ],
      "stateMutability": "pure",
      "type": "function",
      "constant": true
    },
    {
      "inputs": [],
      "name": "votingDelay",
      "outputs": [
        {
          "internalType": "uint256",
          "name": "",
          "type": "uint256"
        }
      ],
      "stateMutability": "pure",
      "type": "function",
      "constant": true
    },
    {
      "inputs": [],
      "name": "votingPeriod",
      "outputs": [
        {
          "internalType": "uint256",
          "name": "",
          "type": "uint256"
        }
      ],
      "stateMutability": "pure",
      "type": "function",
      "constant": true
    },
    {
      "inputs": [
        {
          "internalType": "address",
          "name": "_timelock",
          "type": "address"
        },
        {
          "internalType": "address",
          "name": "_zora",
          "type": "address"
        },
        {
          "internalType": "address",
          "name": "_guardian",
          "type": "address"
        }
      ],
      "name": "initialize",
      "outputs": [],
      "stateMutability": "nonpayable",
      "type": "function"
    },
    {
      "inputs": [
        {
          "internalType": "address[]",
          "name": "targets",
          "type": "address[]"
        },
        {
          "internalType": "uint256[]",
          "name": "values",
          "type": "uint256[]"
        },
        {
          "internalType": "string[]",
          "name": "signatures",
          "type": "string[]"
        },
        {
          "internalType": "bytes[]",
          "name": "calldatas",
          "type": "bytes[]"
        },
        {
          "internalType": "string",
          "name": "description",
          "type": "string"
        }
      ],
      "name": "propose",
      "outputs": [
        {
          "internalType": "uint256",
          "name": "",
          "type": "uint256"
        }
      ],
      "stateMutability": "nonpayable",
      "type": "function"
    },
    {
      "inputs": [
        {
          "internalType": "uint256",
          "name": "proposalId",
          "type": "uint256"
        }
      ],
      "name": "queue",
      "outputs": [],
      "stateMutability": "nonpayable",
      "type": "function"
    },
    {
      "inputs": [
        {
          "internalType": "uint256",
          "name": "proposalId",
          "type": "uint256"
        }
      ],
      "name": "execute",
      "outputs": [],
      "stateMutability": "payable",
      "type": "function",
      "payable": true
    },
    {
      "inputs": [
        {
          "internalType": "uint256",
          "name": "proposalId",
          "type": "uint256"
        }
      ],
      "name": "cancel",
      "outputs": [],
      "stateMutability": "nonpayable",
      "type": "function"
    },
    {
      "inputs": [
        {
          "internalType": "uint256",
          "name": "proposalId",
          "type": "uint256"
        }
      ],
      "name": "getActions",
      "outputs": [
        {
          "internalType": "address[]",
          "name": "targets",
          "type": "address[]"
        },
        {
          "internalType": "uint256[]",
          "name": "values",
          "type": "uint256[]"
        },
        {
          "internalType": "string[]",
          "name": "signatures",
          "type": "string[]"
        },
        {
          "internalType": "bytes[]",
          "name": "calldatas",
          "type": "bytes[]"
        }
      ],
      "stateMutability": "view",
      "type": "function",
      "constant": true
    },
    {
      "inputs": [
        {
          "internalType": "uint256",
          "name": "proposalId",
          "type": "uint256"
        },
        {
          "internalType": "address",
          "name": "voter",
          "type": "address"
        }
      ],
      "name": "getReceipt",
      "outputs": [
        {
          "components": [
            {
              "internalType": "bool",
              "name": "hasVoted",
              "type": "bool"
            },
            {
              "internalType": "bool",
              "name": "support",
              "type": "bool"
            },
            {
              "internalType": "uint256",
              "name": "votes",
              "type": "uint256"
            }
          ],
          "internalType": "struct GovernorAlpha.Receipt",
          "name": "",
          "type": "tuple"
        }
      ],
      "stateMutability": "view",
      "type": "function",
      "constant": true
    },
    {
      "inputs": [
        {
          "internalType": "uint256",
          "name": "proposalId",
          "type": "uint256"
        }
      ],
      "name": "state",
      "outputs": [
        {
          "internalType": "enum GovernorAlpha.ProposalState",
          "name": "",
          "type": "uint8"
        }
      ],
      "stateMutability": "view",
      "type": "function",
      "constant": true
    },
    {
      "inputs": [
        {
          "internalType": "uint256",
          "name": "proposalId",
          "type": "uint256"
        },
        {
          "internalType": "bool",
          "name": "support",
          "type": "bool"
        }
      ],
      "name": "castVote",
      "outputs": [],
      "stateMutability": "nonpayable",
      "type": "function"
    },
    {
      "inputs": [
        {
          "internalType": "uint256",
          "name": "proposalId",
          "type": "uint256"
        },
        {
          "internalType": "bool",
          "name": "support",
          "type": "bool"
        },
        {
          "internalType": "uint8",
          "name": "v",
          "type": "uint8"
        },
        {
          "internalType": "bytes32",
          "name": "r",
          "type": "bytes32"
        },
        {
          "internalType": "bytes32",
          "name": "s",
          "type": "bytes32"
        }
      ],
      "name": "castVoteBySig",
      "outputs": [],
      "stateMutability": "nonpayable",
      "type": "function"
    },
    {
      "inputs": [],
      "name": "__acceptAdmin",
      "outputs": [],
      "stateMutability": "nonpayable",
      "type": "function"
    },
    {
      "inputs": [],
      "name": "__abdicate",
      "outputs": [],
      "stateMutability": "nonpayable",
      "type": "function"
    },
    {
      "inputs": [
        {
          "internalType": "address",
          "name": "newPendingAdmin",
          "type": "address"
        },
        {
          "internalType": "uint256",
          "name": "eta",
          "type": "uint256"
        }
      ],
      "name": "__queueSetTimelockPendingAdmin",
      "outputs": [],
      "stateMutability": "nonpayable",
      "type": "function"
    },
    {
      "inputs": [
        {
          "internalType": "address",
          "name": "newPendingAdmin",
          "type": "address"
        },
        {
          "internalType": "uint256",
          "name": "eta",
          "type": "uint256"
        }
      ],
      "name": "__executeSetTimelockPendingAdmin",
      "outputs": [],
      "stateMutability": "nonpayable",
      "type": "function"
    }
  ],
  "bytecode": "0x608060405234801561001057600080fd5b5061536b806100206000396000f3fe6080604052600436106101b75760003560e01c80634634c61f116100ec578063d33219b41161008a578063ddf0b00911610064578063ddf0b009146105f5578063deaaa7cc1461061e578063e23a9a5214610649578063fe0d94c114610686576101b7565b8063d33219b414610562578063da35c6641461058d578063da95691a146105b8576101b7565b806391500671116100c657806391500671146104ce578063b58131b0146104f7578063b9a6196114610522578063c0c53b8b14610539576101b7565b80634634c61f14610463578063760fbc131461048c5780637bdbe4d0146104a3576101b7565b806321f43e42116101595780633932abb1116101335780633932abb1146103a75780633e4f49e6146103d257806340e58ee51461040f578063452a932014610438576101b7565b806321f43e421461031357806324bc1a641461033c578063328dd98214610367576101b7565b806315373e3d1161019557806315373e3d14610257578063166f46a71461028057806317977c61146102ab57806320606b70146102e8576101b7565b8063013cf08b146101bc57806302a251a31461020157806306fdde031461022c575b600080fd5b3480156101c857600080fd5b506101e360048036038101906101de9190613611565b6106a2565b6040516101f899989796959493929190614df6565b60405180910390f35b34801561020d57600080fd5b5061021661072a565b6040516102239190614d2b565b60405180910390f35b34801561023857600080fd5b50610241610734565b60405161024e9190614a2e565b60405180910390f35b34801561026357600080fd5b5061027e6004803603810190610279919061369f565b61076d565b005b34801561028c57600080fd5b5061029561077c565b6040516102a291906149f8565b60405180910390f35b3480156102b757600080fd5b506102d260048036038101906102cd91906133db565b6107a2565b6040516102df9190614d2b565b60405180910390f35b3480156102f457600080fd5b506102fd6107ba565b60405161030a9190614901565b60405180910390f35b34801561031f57600080fd5b5061033a60048036038101906103359190613453565b6107de565b005b34801561034857600080fd5b5061035161096d565b60405161035e9190614d2b565b60405180910390f35b34801561037357600080fd5b5061038e60048036038101906103899190613611565b610a1e565b60405161039e94939291906148a0565b60405180910390f35b3480156103b357600080fd5b506103bc610cfb565b6040516103c99190614d2b565b60405180910390f35b3480156103de57600080fd5b506103f960048036038101906103f49190613611565b610d04565b6040516104069190614a13565b60405180910390f35b34801561041b57600080fd5b5061043660048036038101906104319190613611565b610ee9565b005b34801561044457600080fd5b5061044d611275565b60405161045a91906146cd565b60405180910390f35b34801561046f57600080fd5b5061048a600480360381019061048591906136db565b61129b565b005b34801561049857600080fd5b506104a1611484565b005b3480156104af57600080fd5b506104b8611558565b6040516104c59190614d2b565b60405180910390f35b3480156104da57600080fd5b506104f560048036038101906104f09190613453565b611561565b005b34801561050357600080fd5b5061050c6116eb565b6040516105199190614d2b565b60405180910390f35b34801561052e57600080fd5b5061053761179c565b005b34801561054557600080fd5b50610560600480360381019061055b9190613404565b6118b0565b005b34801561056e57600080fd5b50610577611a5e565b60405161058491906149dd565b60405180910390f35b34801561059957600080fd5b506105a2611a84565b6040516105af9190614d2b565b60405180910390f35b3480156105c457600080fd5b506105df60048036038101906105da919061348f565b611a8a565b6040516105ec9190614d2b565b60405180910390f35b34801561060157600080fd5b5061061c60048036038101906106179190613611565b612049565b005b34801561062a57600080fd5b50610633612396565b6040516106409190614901565b60405180910390f35b34801561065557600080fd5b50610670600480360381019061066b9190613663565b6123ba565b60405161067d9190614d10565b60405180910390f35b6106a0600480360381019061069b9190613611565b612468565b005b60046020528060005260406000206000915090508060000154908060010160009054906101000a900473ffffffffffffffffffffffffffffffffffffffff169080600201549080600701549080600801549080600901549080600a01549080600b0160009054906101000a900460ff169080600b0160019054906101000a900460ff16905089565b6000617080905090565b6040518060400160405280601781526020017f5a6f7261636c657320476f7665726e6f7220416c70686100000000000000000081525081565b6107783383836126b3565b5050565b600160009054906101000a900473ffffffffffffffffffffffffffffffffffffffff1681565b60056020528060005260406000206000915090505481565b7f8cad95687ba82c2ce50e74f7b754645e5117c3a5bec8151c0726d5857980a86681565b600260009054906101000a900473ffffffffffffffffffffffffffffffffffffffff1673ffffffffffffffffffffffffffffffffffffffff163373ffffffffffffffffffffffffffffffffffffffff161461086e576040517f08c379a000000000000000000000000000000000000000000000000000000000815260040161086590614ab0565b60405180910390fd5b600060029054906101000a900473ffffffffffffffffffffffffffffffffffffffff1673ffffffffffffffffffffffffffffffffffffffff16630825f38f600060029054906101000a900473ffffffffffffffffffffffffffffffffffffffff166000856040516020016108e291906146cd565b604051602081830303815290604052856040518563ffffffff1660e01b81526004016109119493929190614711565b600060405180830381600087803b15801561092b57600080fd5b505af115801561093f573d6000803e3d6000fd5b505050506040513d6000823e3d601f19601f8201168201806040525081019061096891906135d0565b505050565b6000600a600160009054906101000a900473ffffffffffffffffffffffffffffffffffffffff1673ffffffffffffffffffffffffffffffffffffffff166318160ddd6040518163ffffffff1660e01b815260040160206040518083038186803b1580156109d957600080fd5b505afa1580156109ed573d6000803e3d6000fd5b505050506040513d601f19601f82011682018060405250810190610a11919061363a565b81610a1857fe5b04905090565b60608060608060006004600087815260200190815260200160002090508060030181600401826005018360060183805480602002602001604051908101604052809291908181526020018280548015610acc57602002820191906000526020600020905b8160009054906101000a900473ffffffffffffffffffffffffffffffffffffffff1673ffffffffffffffffffffffffffffffffffffffff1681526020019060010190808311610a82575b5050505050935082805480602002602001604051908101604052809291908181526020018280548015610b1e57602002820191906000526020600020905b815481526020019060010190808311610b0a575b5050505050925081805480602002602001604051908101604052809291908181526020016000905b82821015610c02578382906000526020600020018054600181600116156101000203166002900480601f016020809104026020016040519081016040528092919081815260200182805460018160011615610100020316600290048015610bee5780601f10610bc357610100808354040283529160200191610bee565b820191906000526020600020905b815481529060010190602001808311610bd157829003601f168201915b505050505081526020019060010190610b46565b50505050915080805480602002602001604051908101604052809291908181526020016000905b82821015610ce5578382906000526020600020018054600181600116156101000203166002900480601f016020809104026020016040519081016040528092919081815260200182805460018160011615610100020316600290048015610cd15780601f10610ca657610100808354040283529160200191610cd1565b820191906000526020600020905b815481529060010190602001808311610cb457829003601f168201915b505050505081526020019060010190610c29565b5050505090509450945094509450509193509193565b60006001905090565b60008160035410158015610d185750600082115b610d57576040517f08c379a0000000000000000000000000000000000000000000000000000000008152600401610d4e90614ad0565b60405180910390fd5b600060046000848152602001908152602001600020905080600b0160009054906101000a900460ff1615610d8f576002915050610ee4565b80600701544311610da4576000915050610ee4565b80600801544311610db9576001915050610ee4565b80600a01548160090154111580610dda5750610dd361096d565b8160090154105b15610de9576003915050610ee4565b600081600201541415610e00576004915050610ee4565b80600b0160019054906101000a900460ff1615610e21576007915050610ee4565b610ece8160020154600060029054906101000a900473ffffffffffffffffffffffffffffffffffffffff1673ffffffffffffffffffffffffffffffffffffffff1663c1a287e26040518163ffffffff1660e01b815260040160206040518083038186803b158015610e9157600080fd5b505afa158015610ea5573d6000803e3d6000fd5b505050506040513d601f19601f82011682018060405250810190610ec9919061363a565b61293c565b4210610ede576006915050610ee4565b60059150505b919050565b6000610ef482610d04565b9050600780811115610f0257fe5b816007811115610f0e57fe5b1415610f4f576040517f08c379a0000000000000000000000000000000000000000000000000000000008152600401610f4690614c90565b60405180910390fd5b6000600460008481526020019081526020016000209050600260009054906101000a900473ffffffffffffffffffffffffffffffffffffffff1673ffffffffffffffffffffffffffffffffffffffff163373ffffffffffffffffffffffffffffffffffffffff1614806110a25750610fc56116eb565b600160009054906101000a900473ffffffffffffffffffffffffffffffffffffffff1673ffffffffffffffffffffffffffffffffffffffff1663782d6fe18360010160009054906101000a900473ffffffffffffffffffffffffffffffffffffffff16611033436001612991565b6040518363ffffffff1660e01b8152600401611050929190614770565b60206040518083038186803b15801561106857600080fd5b505afa15801561107c573d6000803e3d6000fd5b505050506040513d601f19601f820116820180604052508101906110a0919061363a565b105b6110e1576040517f08c379a00000000000000000000000000000000000000000000000000000000081526004016110d890614bd0565b60405180910390fd5b600181600b0160006101000a81548160ff02191690831515021790555060005b816003018054905081101561123857600060029054906101000a900473ffffffffffffffffffffffffffffffffffffffff1673ffffffffffffffffffffffffffffffffffffffff1663591fcdfe83600301838154811061115d57fe5b9060005260206000200160009054906101000a900473ffffffffffffffffffffffffffffffffffffffff1684600401848154811061119757fe5b90600052602060002001548560050185815481106111b157fe5b906000526020600020018660060186815481106111ca57fe5b9060005260206000200187600201546040518663ffffffff1660e01b81526004016111f995949392919061483f565b600060405180830381600087803b15801561121357600080fd5b505af1158015611227573d6000803e3d6000fd5b505050508080600101915050611101565b507f789cf55be980739dad1d0699b93b58e806b51c9d96619bfa8fe0a28abaa7b30c836040516112689190614d2b565b60405180910390a1505050565b600260009054906101000a900473ffffffffffffffffffffffffffffffffffffffff1681565b60007f8cad95687ba82c2ce50e74f7b754645e5117c3a5bec8151c0726d5857980a8666040518060400160405280601781526020017f5a6f7261636c657320476f7665726e6f7220416c706861000000000000000000815250805190602001206113036129e1565b30604051602001611317949392919061491c565b60405160208183030381529060405280519060200120905060007f8e25870c07e0b0b3884c78da52790939a455c275406c44ae8b434b692fb916ee878760405160200161136693929190614961565b60405160208183030381529060405280519060200120905060008282604051602001611393929190614696565b6040516020818303038152906040528051906020012090506000600182888888604051600081526020016040526040516113d09493929190614998565b6020604051602081039080840390855afa1580156113f2573d6000803e3d6000fd5b505050602060405103519050600073ffffffffffffffffffffffffffffffffffffffff168173ffffffffffffffffffffffffffffffffffffffff16141561146e576040517f08c379a000000000000000000000000000000000000000000000000000000000815260040161146590614c50565b60405180910390fd5b611479818a8a6126b3565b505050505050505050565b600260009054906101000a900473ffffffffffffffffffffffffffffffffffffffff1673ffffffffffffffffffffffffffffffffffffffff163373ffffffffffffffffffffffffffffffffffffffff1614611514576040517f08c379a000000000000000000000000000000000000000000000000000000000815260040161150b90614cf0565b60405180910390fd5b6000600260006101000a81548173ffffffffffffffffffffffffffffffffffffffff021916908373ffffffffffffffffffffffffffffffffffffffff160217905550565b6000600a905090565b600260009054906101000a900473ffffffffffffffffffffffffffffffffffffffff1673ffffffffffffffffffffffffffffffffffffffff163373ffffffffffffffffffffffffffffffffffffffff16146115f1576040517f08c379a00000000000000000000000000000000000000000000000000000000081526004016115e890614b30565b60405180910390fd5b600060029054906101000a900473ffffffffffffffffffffffffffffffffffffffff1673ffffffffffffffffffffffffffffffffffffffff16633a66f901600060029054906101000a900473ffffffffffffffffffffffffffffffffffffffff1660008560405160200161166591906146cd565b604051602081830303815290604052856040518563ffffffff1660e01b81526004016116949493929190614711565b602060405180830381600087803b1580156116ae57600080fd5b505af11580156116c2573d6000803e3d6000fd5b505050506040513d601f19601f820116820180604052508101906116e691906135a7565b505050565b60006064600160009054906101000a900473ffffffffffffffffffffffffffffffffffffffff1673ffffffffffffffffffffffffffffffffffffffff166318160ddd6040518163ffffffff1660e01b815260040160206040518083038186803b15801561175757600080fd5b505afa15801561176b573d6000803e3d6000fd5b505050506040513d601f19601f8201168201806040525081019061178f919061363a565b8161179657fe5b04905090565b600260009054906101000a900473ffffffffffffffffffffffffffffffffffffffff1673ffffffffffffffffffffffffffffffffffffffff163373ffffffffffffffffffffffffffffffffffffffff161461182c576040517f08c379a000000000000000000000000000000000000000000000000000000000815260040161182390614a50565b60405180910390fd5b600060029054906101000a900473ffffffffffffffffffffffffffffffffffffffff1673ffffffffffffffffffffffffffffffffffffffff16630e18b6816040518163ffffffff1660e01b8152600401600060405180830381600087803b15801561189657600080fd5b505af11580156118aa573d6000803e3d6000fd5b50505050565b600060019054906101000a900460ff16806118cf57506118ce6129ee565b5b806118e5575060008054906101000a900460ff16155b611924576040517f08c379a000000000000000000000000000000000000000000000000000000000815260040161191b90614b50565b60405180910390fd5b60008060019054906101000a900460ff161590508015611974576001600060016101000a81548160ff02191690831515021790555060016000806101000a81548160ff0219169083151502179055505b83600060026101000a81548173ffffffffffffffffffffffffffffffffffffffff021916908373ffffffffffffffffffffffffffffffffffffffff16021790555082600160006101000a81548173ffffffffffffffffffffffffffffffffffffffff021916908373ffffffffffffffffffffffffffffffffffffffff16021790555081600260006101000a81548173ffffffffffffffffffffffffffffffffffffffff021916908373ffffffffffffffffffffffffffffffffffffffff1602179055508015611a585760008060016101000a81548160ff0219169083151502179055505b50505050565b600060029054906101000a900473ffffffffffffffffffffffffffffffffffffffff1681565b60035481565b6000611a946116eb565b600160009054906101000a900473ffffffffffffffffffffffffffffffffffffffff1673ffffffffffffffffffffffffffffffffffffffff1663782d6fe133611ade436001612991565b6040518363ffffffff1660e01b8152600401611afb9291906146e8565b60206040518083038186803b158015611b1357600080fd5b505afa158015611b27573d6000803e3d6000fd5b505050506040513d601f19601f82011682018060405250810190611b4b919061363a565b11611b8b576040517f08c379a0000000000000000000000000000000000000000000000000000000008152600401611b8290614c30565b60405180910390fd5b84518651148015611b9d575083518651145b8015611baa575082518651145b611be9576040517f08c379a0000000000000000000000000000000000000000000000000000000008152600401611be090614bb0565b60405180910390fd5b600086511415611c2e576040517f08c379a0000000000000000000000000000000000000000000000000000000008152600401611c2590614c10565b60405180910390fd5b611c36611558565b86511115611c79576040517f08c379a0000000000000000000000000000000000000000000000000000000008152600401611c7090614b70565b60405180910390fd5b6000600560003373ffffffffffffffffffffffffffffffffffffffff1673ffffffffffffffffffffffffffffffffffffffff16815260200190815260200160002054905060008114611d88576000611cd082610d04565b905060016007811115611cdf57fe5b816007811115611ceb57fe5b1415611d2c576040517f08c379a0000000000000000000000000000000000000000000000000000000008152600401611d2390614c70565b60405180910390fd5b60006007811115611d3957fe5b816007811115611d4557fe5b1415611d86576040517f08c379a0000000000000000000000000000000000000000000000000000000008152600401611d7d90614b10565b60405180910390fd5b505b6000611d9b43611d96610cfb565b61293c565b90506000611db082611dab61072a565b61293c565b9050600360008154809291906001019190505550611dcc612bdb565b604051806101a0016040528060035481526020013373ffffffffffffffffffffffffffffffffffffffff168152602001600081526020018b81526020018a815260200189815260200188815260200184815260200183815260200160008152602001600081526020016000151581526020016000151581525090508060046000836000015181526020019081526020016000206000820151816000015560208201518160010160006101000a81548173ffffffffffffffffffffffffffffffffffffffff021916908373ffffffffffffffffffffffffffffffffffffffff160217905550604082015181600201556060820151816003019080519060200190611ed6929190612c5d565b506080820151816004019080519060200190611ef3929190612ce7565b5060a0820151816005019080519060200190611f10929190612d34565b5060c0820151816006019080519060200190611f2d929190612d94565b5060e082015181600701556101008201518160080155610120820151816009015561014082015181600a015561016082015181600b0160006101000a81548160ff02191690831515021790555061018082015181600b0160016101000a81548160ff021916908315150217905550905050806000015160056000836020015173ffffffffffffffffffffffffffffffffffffffff1673ffffffffffffffffffffffffffffffffffffffff168152602001908152602001600020819055507f7d84a6263ae0d98d3329bd7b46bb4e8d6f98cd35a7adb45c274c8b7fd5ebd5e08160000151338c8c8c8c89898e60405161202d99989796959493929190614d46565b60405180910390a1806000015194505050505095945050505050565b6004600781111561205657fe5b61205f82610d04565b600781111561206a57fe5b146120aa576040517f08c379a00000000000000000000000000000000000000000000000000000000081526004016120a190614a70565b60405180910390fd5b6000600460008381526020019081526020016000209050600061216c42600060029054906101000a900473ffffffffffffffffffffffffffffffffffffffff1673ffffffffffffffffffffffffffffffffffffffff16636a42b8f86040518163ffffffff1660e01b815260040160206040518083038186803b15801561212f57600080fd5b505afa158015612143573d6000803e3d6000fd5b505050506040513d601f19601f82011682018060405250810190612167919061363a565b61293c565b905060005b826003018054905081101561234e5761234183600301828154811061219257fe5b9060005260206000200160009054906101000a900473ffffffffffffffffffffffffffffffffffffffff168460040183815481106121cc57fe5b90600052602060002001548560050184815481106121e657fe5b906000526020600020018054600181600116156101000203166002900480601f0160208091040260200160405190810160405280929190818152602001828054600181600116156101000203166002900480156122845780601f1061225957610100808354040283529160200191612284565b820191906000526020600020905b81548152906001019060200180831161226757829003601f168201915b505050505086600601858154811061229857fe5b906000526020600020018054600181600116156101000203166002900480601f0160208091040260200160405190810160405280929190818152602001828054600181600116156101000203166002900480156123365780601f1061230b57610100808354040283529160200191612336565b820191906000526020600020905b81548152906001019060200180831161231957829003601f168201915b505050505086612a05565b8080600101915050612171565b508082600201819055507f9a2e42fd6722813d69113e7d0079d3d940171428df7373df9c7f7617cfda28928382604051612389929190614e83565b60405180910390a1505050565b7f8e25870c07e0b0b3884c78da52790939a455c275406c44ae8b434b692fb916ee81565b6123c2612df4565b60046000848152602001908152602001600020600c0160008373ffffffffffffffffffffffffffffffffffffffff1673ffffffffffffffffffffffffffffffffffffffff1681526020019081526020016000206040518060600160405290816000820160009054906101000a900460ff161515151581526020016000820160019054906101000a900460ff16151515158152602001600182015481525050905092915050565b6005600781111561247557fe5b61247e82610d04565b600781111561248957fe5b146124c9576040517f08c379a00000000000000000000000000000000000000000000000000000000081526004016124c090614a90565b60405180910390fd5b6000600460008381526020019081526020016000209050600181600b0160016101000a81548160ff02191690831515021790555060005b816003018054905081101561267757600060029054906101000a900473ffffffffffffffffffffffffffffffffffffffff1673ffffffffffffffffffffffffffffffffffffffff16630825f38f83600401838154811061255c57fe5b906000526020600020015484600301848154811061257657fe5b9060005260206000200160009054906101000a900473ffffffffffffffffffffffffffffffffffffffff168560040185815481106125b057fe5b90600052602060002001548660050186815481106125ca57fe5b906000526020600020018760060187815481106125e357fe5b9060005260206000200188600201546040518763ffffffff1660e01b815260040161261295949392919061483f565b6000604051808303818588803b15801561262b57600080fd5b505af115801561263f573d6000803e3d6000fd5b50505050506040513d6000823e3d601f19601f8201168201806040525081019061266991906135d0565b508080600101915050612500565b507f712ae1383f79ac853f8d882153778e0260ef8f03b504e2866e0593e04d2b291f826040516126a79190614d2b565b60405180910390a15050565b600160078111156126c057fe5b6126c983610d04565b60078111156126d457fe5b14612714576040517f08c379a000000000000000000000000000000000000000000000000000000000815260040161270b90614cb0565b60405180910390fd5b6000600460008481526020019081526020016000209050600081600c0160008673ffffffffffffffffffffffffffffffffffffffff1673ffffffffffffffffffffffffffffffffffffffff1681526020019081526020016000209050600015158160000160009054906101000a900460ff161515146127c8576040517f08c379a00000000000000000000000000000000000000000000000000000000081526004016127bf90614af0565b60405180910390fd5b6000600160009054906101000a900473ffffffffffffffffffffffffffffffffffffffff1673ffffffffffffffffffffffffffffffffffffffff1663782d6fe18785600701546040518363ffffffff1660e01b815260040161282b929190614770565b60206040518083038186803b15801561284357600080fd5b505afa158015612857573d6000803e3d6000fd5b505050506040513d601f19601f8201168201806040525081019061287b919061363a565b9050831561289e5761289183600901548261293c565b83600901819055506128b5565b6128ac83600a01548261293c565b83600a01819055505b60018260000160006101000a81548160ff021916908315150217905550838260000160016101000a81548160ff0219169083151502179055508082600101819055507f877856338e13f63d0c36822ff0ef736b80934cd90574a3a5bc9262c39d217c468686868460405161292c9493929190614799565b60405180910390a1505050505050565b600080828401905083811015612987576040517f08c379a000000000000000000000000000000000000000000000000000000000815260040161297e90614b90565b60405180910390fd5b8091505092915050565b6000828211156129d6576040517f08c379a00000000000000000000000000000000000000000000000000000000081526004016129cd90614cd0565b60405180910390fd5b818303905092915050565b6000804690508091505090565b6000803090506000813b9050600081149250505090565b600060029054906101000a900473ffffffffffffffffffffffffffffffffffffffff1673ffffffffffffffffffffffffffffffffffffffff1663f2b065378686868686604051602001612a5c9594939291906147de565b604051602081830303815290604052805190602001206040518263ffffffff1660e01b8152600401612a8e9190614901565b60206040518083038186803b158015612aa657600080fd5b505afa158015612aba573d6000803e3d6000fd5b505050506040513d601f19601f82011682018060405250810190612ade919061357e565b15612b1e576040517f08c379a0000000000000000000000000000000000000000000000000000000008152600401612b1590614bf0565b60405180910390fd5b600060029054906101000a900473ffffffffffffffffffffffffffffffffffffffff1673ffffffffffffffffffffffffffffffffffffffff16633a66f90186868686866040518663ffffffff1660e01b8152600401612b819594939291906147de565b602060405180830381600087803b158015612b9b57600080fd5b505af1158015612baf573d6000803e3d6000fd5b505050506040513d601f19601f82011682018060405250810190612bd391906135a7565b505050505050565b604051806101a0016040528060008152602001600073ffffffffffffffffffffffffffffffffffffffff1681526020016000815260200160608152602001606081526020016060815260200160608152602001600081526020016000815260200160008152602001600081526020016000151581526020016000151581525090565b828054828255906000526020600020908101928215612cd6579160200282015b82811115612cd55782518260006101000a81548173ffffffffffffffffffffffffffffffffffffffff021916908373ffffffffffffffffffffffffffffffffffffffff16021790555091602001919060010190612c7d565b5b509050612ce39190612e19565b5090565b828054828255906000526020600020908101928215612d23579160200282015b82811115612d22578251825591602001919060010190612d07565b5b509050612d309190612e54565b5090565b828054828255906000526020600020908101928215612d83579160200282015b82811115612d82578251829080519060200190612d72929190612e71565b5091602001919060010190612d54565b5b509050612d909190612ef1565b5090565b828054828255906000526020600020908101928215612de3579160200282015b82811115612de2578251829080519060200190612dd2929190612f15565b5091602001919060010190612db4565b5b509050612df09190612f95565b5090565b6040518060600160405280600015158152602001600015158152602001600081525090565b5b80821115612e5057600081816101000a81549073ffffffffffffffffffffffffffffffffffffffff021916905550600101612e1a565b5090565b5b80821115612e6d576000816000905550600101612e55565b5090565b828054600181600116156101000203166002900490600052602060002090601f016020900481019282601f10612eb257805160ff1916838001178555612ee0565b82800160010185558215612ee0579182015b82811115612edf578251825591602001919060010190612ec4565b5b509050612eed9190612e54565b5090565b5b80821115612f115760008181612f089190612fb9565b50600101612ef2565b5090565b828054600181600116156101000203166002900490600052602060002090601f016020900481019282601f10612f5657805160ff1916838001178555612f84565b82800160010185558215612f84579182015b82811115612f83578251825591602001919060010190612f68565b5b509050612f919190612e54565b5090565b5b80821115612fb55760008181612fac9190613001565b50600101612f96565b5090565b50805460018160011615610100020316600290046000825580601f10612fdf5750612ffe565b601f016020900490600052602060002090810190612ffd9190612e54565b5b50565b50805460018160011615610100020316600290046000825580601f106130275750613046565b601f0160209004906000526020600020908101906130459190612e54565b5b50565b600081359050613058816152c2565b92915050565b600082601f83011261306f57600080fd5b813561308261307d82614ed9565b614eac565b915081818352602084019350602081019050838560208402820111156130a757600080fd5b60005b838110156130d757816130bd8882613049565b8452602084019350602083019250506001810190506130aa565b5050505092915050565b600082601f8301126130f257600080fd5b813561310561310082614f01565b614eac565b9150818183526020840193506020810190508360005b8381101561314b578135860161313188826132a0565b84526020840193506020830192505060018101905061311b565b5050505092915050565b600082601f83011261316657600080fd5b813561317961317482614f29565b614eac565b9150818183526020840193506020810190508360005b838110156131bf57813586016131a58882613348565b84526020840193506020830192505060018101905061318f565b5050505092915050565b600082601f8301126131da57600080fd5b81356131ed6131e882614f51565b614eac565b9150818183526020840193506020810190508385602084028201111561321257600080fd5b60005b838110156132425781613228888261339c565b845260208401935060208301925050600181019050613215565b5050505092915050565b60008135905061325b816152d9565b92915050565b600081519050613270816152d9565b92915050565b600081359050613285816152f0565b92915050565b60008151905061329a816152f0565b92915050565b600082601f8301126132b157600080fd5b81356132c46132bf82614f79565b614eac565b915080825260208301602083018583830111156132e057600080fd5b6132eb838284615258565b50505092915050565b600082601f83011261330557600080fd5b815161331861331382614f79565b614eac565b9150808252602083016020830185838301111561333457600080fd5b61333f838284615267565b50505092915050565b600082601f83011261335957600080fd5b813561336c61336782614fa5565b614eac565b9150808252602083016020830185838301111561338857600080fd5b613393838284615258565b50505092915050565b6000813590506133ab81615307565b92915050565b6000815190506133c081615307565b92915050565b6000813590506133d58161531e565b92915050565b6000602082840312156133ed57600080fd5b60006133fb84828501613049565b91505092915050565b60008060006060848603121561341957600080fd5b600061342786828701613049565b935050602061343886828701613049565b925050604061344986828701613049565b9150509250925092565b6000806040838503121561346657600080fd5b600061347485828601613049565b92505060206134858582860161339c565b9150509250929050565b600080600080600060a086880312156134a757600080fd5b600086013567ffffffffffffffff8111156134c157600080fd5b6134cd8882890161305e565b955050602086013567ffffffffffffffff8111156134ea57600080fd5b6134f6888289016131c9565b945050604086013567ffffffffffffffff81111561351357600080fd5b61351f88828901613155565b935050606086013567ffffffffffffffff81111561353c57600080fd5b613548888289016130e1565b925050608086013567ffffffffffffffff81111561356557600080fd5b61357188828901613348565b9150509295509295909350565b60006020828403121561359057600080fd5b600061359e84828501613261565b91505092915050565b6000602082840312156135b957600080fd5b60006135c78482850161328b565b91505092915050565b6000602082840312156135e257600080fd5b600082015167ffffffffffffffff8111156135fc57600080fd5b613608848285016132f4565b91505092915050565b60006020828403121561362357600080fd5b60006136318482850161339c565b91505092915050565b60006020828403121561364c57600080fd5b600061365a848285016133b1565b91505092915050565b6000806040838503121561367657600080fd5b60006136848582860161339c565b925050602061369585828601613049565b9150509250929050565b600080604083850312156136b257600080fd5b60006136c08582860161339c565b92505060206136d18582860161324c565b9150509250929050565b600080600080600060a086880312156136f357600080fd5b60006137018882890161339c565b95505060206137128882890161324c565b9450506040613723888289016133c6565b935050606061373488828901613276565b925050608061374588828901613276565b9150509295509295909350565b600061375e83836137b9565b60208301905092915050565b600061377683836139c1565b905092915050565b600061378a8383613afe565b905092915050565b600061379e8383614669565b60208301905092915050565b6137b3816151b6565b82525050565b6137c281615144565b82525050565b6137d181615144565b82525050565b60006137e28261503b565b6137ec81856150b1565b93506137f783614fd1565b8060005b8381101561382857815161380f8882613752565b975061381a8361507d565b9250506001810190506137fb565b5085935050505092915050565b600061384082615046565b61384a81856150c2565b93508360208202850161385c85614fe1565b8060005b858110156138985784840389528151613879858261376a565b94506138848361508a565b925060208a01995050600181019050613860565b50829750879550505050505092915050565b60006138b582615051565b6138bf81856150d3565b9350836020820285016138d185614ff1565b8060005b8581101561390d57848403895281516138ee858261377e565b94506138f983615097565b925060208a019950506001810190506138d5565b50829750879550505050505092915050565b600061392a8261505c565b61393481856150e4565b935061393f83615001565b8060005b838110156139705781516139578882613792565b9750613962836150a4565b925050600181019050613943565b5085935050505092915050565b61398681615156565b82525050565b61399581615156565b82525050565b6139a481615162565b82525050565b6139bb6139b682615162565b61529a565b82525050565b60006139cc82615067565b6139d681856150f5565b93506139e6818560208601615267565b6139ef816152a4565b840191505092915050565b6000613a0582615067565b613a0f8185615106565b9350613a1f818560208601615267565b613a28816152a4565b840191505092915050565b600081546001811660008114613a505760018114613a7657613aba565b607f6002830416613a618187615106565b955060ff198316865260208601935050613aba565b60028204613a848187615106565b9550613a8f85615011565b60005b82811015613ab157815481890152600182019150602081019050613a92565b80880195505050505b505092915050565b613acb816151c8565b82525050565b613ada816151ec565b82525050565b613ae981615210565b82525050565b613af881615222565b82525050565b6000613b0982615072565b613b138185615117565b9350613b23818560208601615267565b613b2c816152a4565b840191505092915050565b6000613b4282615072565b613b4c8185615128565b9350613b5c818560208601615267565b613b65816152a4565b840191505092915050565b600081546001811660008114613b8d5760018114613bb357613bf7565b607f6002830416613b9e8187615128565b955060ff198316865260208601935050613bf7565b60028204613bc18187615128565b9550613bcc85615026565b60005b82811015613bee57815481890152600182019150602081019050613bcf565b80880195505050505b505092915050565b6000613c0c603983615128565b91507f476f7665726e6f72416c7068613a3a5f5f61636365707441646d696e3a20736560008301527f6e646572206d75737420626520676f7620677561726469616e000000000000006020830152604082019050919050565b6000613c72604483615128565b91507f476f7665726e6f72416c7068613a3a71756575653a2070726f706f73616c206360008301527f616e206f6e6c792062652071756575656420696620697420697320737563636560208301527f65646564000000000000000000000000000000000000000000000000000000006040830152606082019050919050565b6000613cfe604583615128565b91507f476f7665726e6f72416c7068613a3a657865637574653a2070726f706f73616c60008301527f2063616e206f6e6c79206265206578656375746564206966206974206973207160208301527f75657565640000000000000000000000000000000000000000000000000000006040830152606082019050919050565b6000613d8a600283615139565b91507f19010000000000000000000000000000000000000000000000000000000000006000830152600282019050919050565b6000613dca604c83615128565b91507f476f7665726e6f72416c7068613a3a5f5f6578656375746553657454696d656c60008301527f6f636b50656e64696e6741646d696e3a2073656e646572206d7573742062652060208301527f676f7620677561726469616e00000000000000000000000000000000000000006040830152606082019050919050565b6000613e56601883615128565b91507f73657450656e64696e6741646d696e28616464726573732900000000000000006000830152602082019050919050565b6000613e96602983615128565b91507f476f7665726e6f72416c7068613a3a73746174653a20696e76616c696420707260008301527f6f706f73616c20696400000000000000000000000000000000000000000000006020830152604082019050919050565b6000613efc602d83615128565b91507f476f7665726e6f72416c7068613a3a5f63617374566f74653a20766f7465722060008301527f616c726561647920766f746564000000000000000000000000000000000000006020830152604082019050919050565b6000613f62605983615128565b91507f476f7665726e6f72416c7068613a3a70726f706f73653a206f6e65206c69766560008301527f2070726f706f73616c207065722070726f706f7365722c20666f756e6420616e60208301527f20616c72656164792070656e64696e672070726f706f73616c000000000000006040830152606082019050919050565b6000613fee604a83615128565b91507f476f7665726e6f72416c7068613a3a5f5f717565756553657454696d656c6f6360008301527f6b50656e64696e6741646d696e3a2073656e646572206d75737420626520676f60208301527f7620677561726469616e000000000000000000000000000000000000000000006040830152606082019050919050565b600061407a602e83615128565b91507f496e697469616c697a61626c653a20636f6e747261637420697320616c72656160008301527f647920696e697469616c697a65640000000000000000000000000000000000006020830152604082019050919050565b60006140e0602883615128565b91507f476f7665726e6f72416c7068613a3a70726f706f73653a20746f6f206d616e7960008301527f20616374696f6e730000000000000000000000000000000000000000000000006020830152604082019050919050565b6000614146601183615128565b91507f6164646974696f6e206f766572666c6f770000000000000000000000000000006000830152602082019050919050565b6000614186604483615128565b91507f476f7665726e6f72416c7068613a3a70726f706f73653a2070726f706f73616c60008301527f2066756e6374696f6e20696e666f726d6174696f6e206172697479206d69736d60208301527f61746368000000000000000000000000000000000000000000000000000000006040830152606082019050919050565b6000614212602f83615128565b91507f476f7665726e6f72416c7068613a3a63616e63656c3a2070726f706f7365722060008301527f61626f7665207468726573686f6c6400000000000000000000000000000000006020830152604082019050919050565b6000614278604483615128565b91507f476f7665726e6f72416c7068613a3a5f71756575654f725265766572743a207060008301527f726f706f73616c20616374696f6e20616c72656164792071756575656420617460208301527f20657461000000000000000000000000000000000000000000000000000000006040830152606082019050919050565b6000614304602c83615128565b91507f476f7665726e6f72416c7068613a3a70726f706f73653a206d7573742070726f60008301527f7669646520616374696f6e7300000000000000000000000000000000000000006020830152604082019050919050565b600061436a603f83615128565b91507f476f7665726e6f72416c7068613a3a70726f706f73653a2070726f706f73657260008301527f20766f7465732062656c6f772070726f706f73616c207468726573686f6c64006020830152604082019050919050565b60006143d0602f83615128565b91507f476f7665726e6f72416c7068613a3a63617374566f746542795369673a20696e60008301527f76616c6964207369676e617475726500000000000000000000000000000000006020830152604082019050919050565b6000614436605883615128565b91507f476f7665726e6f72416c7068613a3a70726f706f73653a206f6e65206c69766560008301527f2070726f706f73616c207065722070726f706f7365722c20666f756e6420616e60208301527f20616c7265616479206163746976652070726f706f73616c00000000000000006040830152606082019050919050565b60006144c2603683615128565b91507f476f7665726e6f72416c7068613a3a63616e63656c3a2063616e6e6f7420636160008301527f6e63656c2065786563757465642070726f706f73616c000000000000000000006020830152604082019050919050565b6000614528602a83615128565b91507f476f7665726e6f72416c7068613a3a5f63617374566f74653a20766f74696e6760008301527f20697320636c6f736564000000000000000000000000000000000000000000006020830152604082019050919050565b600061458e601583615128565b91507f7375627472616374696f6e20756e646572666c6f7700000000000000000000006000830152602082019050919050565b60006145ce603683615128565b91507f476f7665726e6f72416c7068613a3a5f5f61626469636174653a2073656e646560008301527f72206d75737420626520676f7620677561726469616e000000000000000000006020830152604082019050919050565b60608201600082015161463d600085018261397d565b506020820151614650602085018261397d565b5060408201516146636040850182614669565b50505050565b6146728161519f565b82525050565b6146818161519f565b82525050565b614690816151a9565b82525050565b60006146a182613d7d565b91506146ad82856139aa565b6020820191506146bd82846139aa565b6020820191508190509392505050565b60006020820190506146e260008301846137c8565b92915050565b60006040820190506146fd60008301856137aa565b61470a6020830184614678565b9392505050565b600060a08201905061472660008301876137c8565b6147336020830186613aef565b818103604083015261474481613e49565b9050818103606083015261475881856139fa565b90506147676080830184614678565b95945050505050565b600060408201905061478560008301856137c8565b6147926020830184614678565b9392505050565b60006080820190506147ae60008301876137c8565b6147bb6020830186614678565b6147c8604083018561398c565b6147d56060830184614678565b95945050505050565b600060a0820190506147f360008301886137c8565b6148006020830187614678565b81810360408301526148128186613b37565b9050818103606083015261482681856139fa565b90506148356080830184614678565b9695505050505050565b600060a08201905061485460008301886137c8565b6148616020830187614678565b81810360408301526148738186613b70565b905081810360608301526148878185613a33565b90506148966080830184614678565b9695505050505050565b600060808201905081810360008301526148ba81876137d7565b905081810360208301526148ce818661391f565b905081810360408301526148e281856138aa565b905081810360608301526148f68184613835565b905095945050505050565b6000602082019050614916600083018461399b565b92915050565b6000608082019050614931600083018761399b565b61493e602083018661399b565b61494b6040830185614678565b61495860608301846137c8565b95945050505050565b6000606082019050614976600083018661399b565b6149836020830185614678565b614990604083018461398c565b949350505050565b60006080820190506149ad600083018761399b565b6149ba6020830186614687565b6149c7604083018561399b565b6149d4606083018461399b565b95945050505050565b60006020820190506149f26000830184613ac2565b92915050565b6000602082019050614a0d6000830184613ad1565b92915050565b6000602082019050614a286000830184613ae0565b92915050565b60006020820190508181036000830152614a488184613b37565b905092915050565b60006020820190508181036000830152614a6981613bff565b9050919050565b60006020820190508181036000830152614a8981613c65565b9050919050565b60006020820190508181036000830152614aa981613cf1565b9050919050565b60006020820190508181036000830152614ac981613dbd565b9050919050565b60006020820190508181036000830152614ae981613e89565b9050919050565b60006020820190508181036000830152614b0981613eef565b9050919050565b60006020820190508181036000830152614b2981613f55565b9050919050565b60006020820190508181036000830152614b4981613fe1565b9050919050565b60006020820190508181036000830152614b698161406d565b9050919050565b60006020820190508181036000830152614b89816140d3565b9050919050565b60006020820190508181036000830152614ba981614139565b9050919050565b60006020820190508181036000830152614bc981614179565b9050919050565b60006020820190508181036000830152614be981614205565b9050919050565b60006020820190508181036000830152614c098161426b565b9050919050565b60006020820190508181036000830152614c29816142f7565b9050919050565b60006020820190508181036000830152614c498161435d565b9050919050565b60006020820190508181036000830152614c69816143c3565b9050919050565b60006020820190508181036000830152614c8981614429565b9050919050565b60006020820190508181036000830152614ca9816144b5565b9050919050565b60006020820190508181036000830152614cc98161451b565b9050919050565b60006020820190508181036000830152614ce981614581565b9050919050565b60006020820190508181036000830152614d09816145c1565b9050919050565b6000606082019050614d256000830184614627565b92915050565b6000602082019050614d406000830184614678565b92915050565b600061012082019050614d5c600083018c614678565b614d69602083018b6137aa565b8181036040830152614d7b818a6137d7565b90508181036060830152614d8f818961391f565b90508181036080830152614da381886138aa565b905081810360a0830152614db78187613835565b9050614dc660c0830186614678565b614dd360e0830185614678565b818103610100830152614de68184613b37565b90509a9950505050505050505050565b600061012082019050614e0c600083018c614678565b614e19602083018b6137c8565b614e26604083018a614678565b614e336060830189614678565b614e406080830188614678565b614e4d60a0830187614678565b614e5a60c0830186614678565b614e6760e083018561398c565b614e7561010083018461398c565b9a9950505050505050505050565b6000604082019050614e986000830185614678565b614ea56020830184614678565b9392505050565b6000604051905081810181811067ffffffffffffffff82111715614ecf57600080fd5b8060405250919050565b600067ffffffffffffffff821115614ef057600080fd5b602082029050602081019050919050565b600067ffffffffffffffff821115614f1857600080fd5b602082029050602081019050919050565b600067ffffffffffffffff821115614f4057600080fd5b602082029050602081019050919050565b600067ffffffffffffffff821115614f6857600080fd5b602082029050602081019050919050565b600067ffffffffffffffff821115614f9057600080fd5b601f19601f8301169050602081019050919050565b600067ffffffffffffffff821115614fbc57600080fd5b601f19601f8301169050602081019050919050565b6000819050602082019050919050565b6000819050602082019050919050565b6000819050602082019050919050565b6000819050602082019050919050565b60008190508160005260206000209050919050565b60008190508160005260206000209050919050565b600081519050919050565b600081519050919050565b600081519050919050565b600081519050919050565b600081519050919050565b600081519050919050565b6000602082019050919050565b6000602082019050919050565b6000602082019050919050565b6000602082019050919050565b600082825260208201905092915050565b600082825260208201905092915050565b600082825260208201905092915050565b600082825260208201905092915050565b600082825260208201905092915050565b600082825260208201905092915050565b600082825260208201905092915050565b600082825260208201905092915050565b600081905092915050565b600061514f8261517f565b9050919050565b60008115159050919050565b6000819050919050565b600081905061517a826152b5565b919050565b600073ffffffffffffffffffffffffffffffffffffffff82169050919050565b6000819050919050565b600060ff82169050919050565b60006151c182615234565b9050919050565b60006151d3826151da565b9050919050565b60006151e58261517f565b9050919050565b60006151f7826151fe565b9050919050565b60006152098261517f565b9050919050565b600061521b8261516c565b9050919050565b600061522d8261519f565b9050919050565b600061523f82615246565b9050919050565b60006152518261517f565b9050919050565b82818337600083830152505050565b60005b8381101561528557808201518184015260208101905061526a565b83811115615294576000848401525b50505050565b6000819050919050565b6000601f19601f8301169050919050565b600881106152bf57fe5b50565b6152cb81615144565b81146152d657600080fd5b50565b6152e281615156565b81146152ed57600080fd5b50565b6152f981615162565b811461530457600080fd5b50565b6153108161519f565b811461531b57600080fd5b50565b615327816151a9565b811461533257600080fd5b5056fea264697066735822122032785886ae524d699880a711667469ab6ba4c5e150a7da0e23dc093c1ab17a0264736f6c634300060c0033",
  "immutableReferences": {},
  "source": "// SPDX-License-Identifier: MIT\npragma solidity 0.6.12;\npragma experimental ABIEncoderV2;\n\nimport \"./Zoracles.sol\";\nimport \"@openzeppelin/contracts-upgradeable/proxy/Initializable.sol\";\n\ncontract GovernorAlpha is Initializable {\n    /// @notice The name of this contract\n    string public constant name = \"Zoracles Governor Alpha\";\n\n    /// @notice The number of votes in support of a proposal required in order for a quorum to be reached and for a vote to succeed\n    function quorumVotes() public view returns (uint256) {\n        return zora.totalSupply() / 10;\n    } // 10% of Total Supply\n\n    /// @notice The number of votes required in order for a voter to become a proposer\n    function proposalThreshold() public view returns (uint256) {\n        return zora.totalSupply() / 100;\n    } // 1% of Total Supply\n\n    /// @notice The maximum number of actions that can be included in a proposal\n    function proposalMaxOperations() public pure returns (uint256) {\n        return 10;\n    } // 10 actions\n\n    /// @notice The delay before voting on a proposal may take place, once proposed\n    function votingDelay() public pure returns (uint256) {\n        return 1;\n    } // 1 block\n\n    /// @notice The duration of voting on a proposal, in blocks\n    function votingPeriod() public pure returns (uint256) {\n        return 28800;\n    } // ~5 days in blocks (assuming 15s blocks)\n\n    /// @notice The address of the Compound Protocol Timelock\n    TimelockInterface public timelock;\n\n    /// @notice The address of the Compound governance token\n    // XXX: CompInterface public comp;\n    Zoracles public zora;\n\n    /// @notice The address of the Governor Guardian\n    address public guardian;\n\n    /// @notice The total number of proposals\n    uint256 public proposalCount;\n\n    struct Proposal {\n        /// @notice Unique id for looking up a proposal\n        uint256 id;\n        /// @notice Creator of the proposal\n        address proposer;\n        /// @notice The timestamp that the proposal will be available for execution, set once the vote succeeds\n        uint256 eta;\n        /// @notice the ordered list of target addresses for calls to be made\n        address[] targets;\n        /// @notice The ordered list of values (i.e. msg.value) to be passed to the calls to be made\n        uint256[] values;\n        /// @notice The ordered list of function signatures to be called\n        string[] signatures;\n        /// @notice The ordered list of calldata to be passed to each call\n        bytes[] calldatas;\n        /// @notice The block at which voting begins: holders must delegate their votes prior to this block\n        uint256 startBlock;\n        /// @notice The block at which voting ends: votes must be cast prior to this block\n        uint256 endBlock;\n        /// @notice Current number of votes in favor of this proposal\n        uint256 forVotes;\n        /// @notice Current number of votes in opposition to this proposal\n        uint256 againstVotes;\n        /// @notice Flag marking whether the proposal has been canceled\n        bool canceled;\n        /// @notice Flag marking whether the proposal has been executed\n        bool executed;\n        /// @notice Receipts of ballots for the entire set of voters\n        mapping(address => Receipt) receipts;\n    }\n\n    /// @notice Ballot receipt record for a voter\n    struct Receipt {\n        /// @notice Whether or not a vote has been cast\n        bool hasVoted;\n        /// @notice Whether or not the voter supports the proposal\n        bool support;\n        /// @notice The number of votes the voter had, which were cast\n        uint256 votes;\n    }\n\n    /// @notice Possible states that a proposal may be in\n    enum ProposalState {\n        Pending,\n        Active,\n        Canceled,\n        Defeated,\n        Succeeded,\n        Queued,\n        Expired,\n        Executed\n    }\n\n    /// @notice The official record of all proposals ever proposed\n    mapping(uint256 => Proposal) public proposals;\n\n    /// @notice The latest proposal for each proposer\n    mapping(address => uint256) public latestProposalIds;\n\n    /// @notice The EIP-712 typehash for the contract's domain\n    bytes32 public constant DOMAIN_TYPEHASH = keccak256(\n        \"EIP712Domain(string name,uint256 chainId,address verifyingContract)\"\n    );\n\n    /// @notice The EIP-712 typehash for the ballot struct used by the contract\n    bytes32 public constant BALLOT_TYPEHASH = keccak256(\n        \"Ballot(uint256 proposalId,bool support)\"\n    );\n\n    /// @notice An event emitted when a new proposal is created\n    event ProposalCreated(\n        uint256 id,\n        address proposer,\n        address[] targets,\n        uint256[] values,\n        string[] signatures,\n        bytes[] calldatas,\n        uint256 startBlock,\n        uint256 endBlock,\n        string description\n    );\n\n    /// @notice An event emitted when a vote has been cast on a proposal\n    event VoteCast(\n        address voter,\n        uint256 proposalId,\n        bool support,\n        uint256 votes\n    );\n\n    /// @notice An event emitted when a proposal has been canceled\n    event ProposalCanceled(uint256 id);\n\n    /// @notice An event emitted when a proposal has been queued in the Timelock\n    event ProposalQueued(uint256 id, uint256 eta);\n\n    /// @notice An event emitted when a proposal has been executed in the Timelock\n    event ProposalExecuted(uint256 id);\n\n    function initialize(\n        address _timelock,\n        address _zora,\n        address _guardian\n    ) public initializer {\n        timelock = TimelockInterface(_timelock);\n        zora = Zoracles(_zora);\n        guardian = _guardian;\n    }\n\n    function propose(\n        address[] memory targets,\n        uint256[] memory values,\n        string[] memory signatures,\n        bytes[] memory calldatas,\n        string memory description\n    ) public returns (uint256) {\n        require(\n            zora.getPriorVotes(msg.sender, sub256(block.number, 1)) >\n                proposalThreshold(),\n            \"GovernorAlpha::propose: proposer votes below proposal threshold\"\n        );\n        require(\n            targets.length == values.length &&\n                targets.length == signatures.length &&\n                targets.length == calldatas.length,\n            \"GovernorAlpha::propose: proposal function information arity mismatch\"\n        );\n        require(\n            targets.length != 0,\n            \"GovernorAlpha::propose: must provide actions\"\n        );\n        require(\n            targets.length <= proposalMaxOperations(),\n            \"GovernorAlpha::propose: too many actions\"\n        );\n\n        uint256 latestProposalId = latestProposalIds[msg.sender];\n        if (latestProposalId != 0) {\n            ProposalState proposersLatestProposalState = state(\n                latestProposalId\n            );\n            require(\n                proposersLatestProposalState != ProposalState.Active,\n                \"GovernorAlpha::propose: one live proposal per proposer, found an already active proposal\"\n            );\n            require(\n                proposersLatestProposalState != ProposalState.Pending,\n                \"GovernorAlpha::propose: one live proposal per proposer, found an already pending proposal\"\n            );\n        }\n\n        uint256 startBlock = add256(block.number, votingDelay());\n        uint256 endBlock = add256(startBlock, votingPeriod());\n\n        proposalCount++;\n        Proposal memory newProposal = Proposal({\n            id: proposalCount,\n            proposer: msg.sender,\n            eta: 0,\n            targets: targets,\n            values: values,\n            signatures: signatures,\n            calldatas: calldatas,\n            startBlock: startBlock,\n            endBlock: endBlock,\n            forVotes: 0,\n            againstVotes: 0,\n            canceled: false,\n            executed: false\n        });\n\n        proposals[newProposal.id] = newProposal;\n        latestProposalIds[newProposal.proposer] = newProposal.id;\n\n        emit ProposalCreated(\n            newProposal.id,\n            msg.sender,\n            targets,\n            values,\n            signatures,\n            calldatas,\n            startBlock,\n            endBlock,\n            description\n        );\n        return newProposal.id;\n    }\n\n    function queue(uint256 proposalId) public {\n        require(\n            state(proposalId) == ProposalState.Succeeded,\n            \"GovernorAlpha::queue: proposal can only be queued if it is succeeded\"\n        );\n        Proposal storage proposal = proposals[proposalId];\n        uint256 eta = add256(block.timestamp, timelock.delay());\n        for (uint256 i = 0; i < proposal.targets.length; i++) {\n            _queueOrRevert(\n                proposal.targets[i],\n                proposal.values[i],\n                proposal.signatures[i],\n                proposal.calldatas[i],\n                eta\n            );\n        }\n        proposal.eta = eta;\n        emit ProposalQueued(proposalId, eta);\n    }\n\n    function _queueOrRevert(\n        address target,\n        uint256 value,\n        string memory signature,\n        bytes memory data,\n        uint256 eta\n    ) internal {\n        require(\n            !timelock.queuedTransactions(\n                keccak256(abi.encode(target, value, signature, data, eta))\n            ),\n            \"GovernorAlpha::_queueOrRevert: proposal action already queued at eta\"\n        );\n        timelock.queueTransaction(target, value, signature, data, eta);\n    }\n\n    function execute(uint256 proposalId) public payable {\n        require(\n            state(proposalId) == ProposalState.Queued,\n            \"GovernorAlpha::execute: proposal can only be executed if it is queued\"\n        );\n        Proposal storage proposal = proposals[proposalId];\n        proposal.executed = true;\n        for (uint256 i = 0; i < proposal.targets.length; i++) {\n            timelock.executeTransaction.value(proposal.values[i])(\n                proposal.targets[i],\n                proposal.values[i],\n                proposal.signatures[i],\n                proposal.calldatas[i],\n                proposal.eta\n            );\n        }\n        emit ProposalExecuted(proposalId);\n    }\n\n    function cancel(uint256 proposalId) public {\n        ProposalState state = state(proposalId);\n        require(\n            state != ProposalState.Executed,\n            \"GovernorAlpha::cancel: cannot cancel executed proposal\"\n        );\n\n        Proposal storage proposal = proposals[proposalId];\n        require(\n            msg.sender == guardian ||\n                zora.getPriorVotes(proposal.proposer, sub256(block.number, 1)) <\n                proposalThreshold(),\n            \"GovernorAlpha::cancel: proposer above threshold\"\n        );\n\n        proposal.canceled = true;\n        for (uint256 i = 0; i < proposal.targets.length; i++) {\n            timelock.cancelTransaction(\n                proposal.targets[i],\n                proposal.values[i],\n                proposal.signatures[i],\n                proposal.calldatas[i],\n                proposal.eta\n            );\n        }\n\n        emit ProposalCanceled(proposalId);\n    }\n\n    function getActions(uint256 proposalId)\n        public\n        view\n        returns (\n            address[] memory targets,\n            uint256[] memory values,\n            string[] memory signatures,\n            bytes[] memory calldatas\n        )\n    {\n        Proposal storage p = proposals[proposalId];\n        return (p.targets, p.values, p.signatures, p.calldatas);\n    }\n\n    function getReceipt(uint256 proposalId, address voter)\n        public\n        view\n        returns (Receipt memory)\n    {\n        return proposals[proposalId].receipts[voter];\n    }\n\n    function state(uint256 proposalId) public view returns (ProposalState) {\n        require(\n            proposalCount >= proposalId && proposalId > 0,\n            \"GovernorAlpha::state: invalid proposal id\"\n        );\n        Proposal storage proposal = proposals[proposalId];\n        if (proposal.canceled) {\n            return ProposalState.Canceled;\n        } else if (block.number <= proposal.startBlock) {\n            return ProposalState.Pending;\n        } else if (block.number <= proposal.endBlock) {\n            return ProposalState.Active;\n        } else if (\n            proposal.forVotes <= proposal.againstVotes ||\n            proposal.forVotes < quorumVotes()\n        ) {\n            return ProposalState.Defeated;\n        } else if (proposal.eta == 0) {\n            return ProposalState.Succeeded;\n        } else if (proposal.executed) {\n            return ProposalState.Executed;\n        } else if (\n            block.timestamp >= add256(proposal.eta, timelock.GRACE_PERIOD())\n        ) {\n            return ProposalState.Expired;\n        } else {\n            return ProposalState.Queued;\n        }\n    }\n\n    function castVote(uint256 proposalId, bool support) public {\n        return _castVote(msg.sender, proposalId, support);\n    }\n\n    function castVoteBySig(\n        uint256 proposalId,\n        bool support,\n        uint8 v,\n        bytes32 r,\n        bytes32 s\n    ) public {\n        bytes32 domainSeparator = keccak256(\n            abi.encode(\n                DOMAIN_TYPEHASH,\n                keccak256(bytes(name)),\n                getChainId(),\n                address(this)\n            )\n        );\n        bytes32 structHash = keccak256(\n            abi.encode(BALLOT_TYPEHASH, proposalId, support)\n        );\n        bytes32 digest = keccak256(\n            abi.encodePacked(\"\\x19\\x01\", domainSeparator, structHash)\n        );\n        address signatory = ecrecover(digest, v, r, s);\n        require(\n            signatory != address(0),\n            \"GovernorAlpha::castVoteBySig: invalid signature\"\n        );\n        return _castVote(signatory, proposalId, support);\n    }\n\n    function _castVote(\n        address voter,\n        uint256 proposalId,\n        bool support\n    ) internal {\n        require(\n            state(proposalId) == ProposalState.Active,\n            \"GovernorAlpha::_castVote: voting is closed\"\n        );\n        Proposal storage proposal = proposals[proposalId];\n        Receipt storage receipt = proposal.receipts[voter];\n        require(\n            receipt.hasVoted == false,\n            \"GovernorAlpha::_castVote: voter already voted\"\n        );\n        uint256 votes = zora.getPriorVotes(voter, proposal.startBlock);\n\n        if (support) {\n            proposal.forVotes = add256(proposal.forVotes, votes);\n        } else {\n            proposal.againstVotes = add256(proposal.againstVotes, votes);\n        }\n\n        receipt.hasVoted = true;\n        receipt.support = support;\n        receipt.votes = votes;\n\n        emit VoteCast(voter, proposalId, support, votes);\n    }\n\n    function __acceptAdmin() public {\n        require(\n            msg.sender == guardian,\n            \"GovernorAlpha::__acceptAdmin: sender must be gov guardian\"\n        );\n        timelock.acceptAdmin();\n    }\n\n    function __abdicate() public {\n        require(\n            msg.sender == guardian,\n            \"GovernorAlpha::__abdicate: sender must be gov guardian\"\n        );\n        guardian = address(0);\n    }\n\n    function __queueSetTimelockPendingAdmin(\n        address newPendingAdmin,\n        uint256 eta\n    ) public {\n        require(\n            msg.sender == guardian,\n            \"GovernorAlpha::__queueSetTimelockPendingAdmin: sender must be gov guardian\"\n        );\n        timelock.queueTransaction(\n            address(timelock),\n            0,\n            \"setPendingAdmin(address)\",\n            abi.encode(newPendingAdmin),\n            eta\n        );\n    }\n\n    function __executeSetTimelockPendingAdmin(\n        address newPendingAdmin,\n        uint256 eta\n    ) public {\n        require(\n            msg.sender == guardian,\n            \"GovernorAlpha::__executeSetTimelockPendingAdmin: sender must be gov guardian\"\n        );\n        timelock.executeTransaction(\n            address(timelock),\n            0,\n            \"setPendingAdmin(address)\",\n            abi.encode(newPendingAdmin),\n            eta\n        );\n    }\n\n    function add256(uint256 a, uint256 b) internal pure returns (uint256) {\n        uint256 c = a + b;\n        require(c >= a, \"addition overflow\");\n        return c;\n    }\n\n    function sub256(uint256 a, uint256 b) internal pure returns (uint256) {\n        require(b <= a, \"subtraction underflow\");\n        return a - b;\n    }\n\n    function getChainId() internal pure returns (uint256) {\n        uint256 chainId;\n        assembly {\n            chainId := chainid()\n        }\n        return chainId;\n    }\n}\n\ninterface TimelockInterface {\n    function delay() external view returns (uint256);\n\n    function GRACE_PERIOD() external view returns (uint256);\n\n    function acceptAdmin() external;\n\n    function queuedTransactions(bytes32 hash) external view returns (bool);\n\n    function queueTransaction(\n        address target,\n        uint256 value,\n        string calldata signature,\n        bytes calldata data,\n        uint256 eta\n    ) external returns (bytes32);\n\n    function cancelTransaction(\n        address target,\n        uint256 value,\n        string calldata signature,\n        bytes calldata data,\n        uint256 eta\n    ) external;\n\n    function executeTransaction(\n        address target,\n        uint256 value,\n        string calldata signature,\n        bytes calldata data,\n        uint256 eta\n    ) external payable returns (bytes memory);\n}\n",
  "sourcePath": "/home/prince/zoracles/contracts/Governance.sol",
  "compiler": {
    "name": "solc",
    "version": "0.6.12+commit.27d51765.Emscripten.clang"
  },
  "schemaVersion": "3.3.2",
  "updatedAt": "2020-11-18T06:16:39.132Z",
  "networkType": "ethereum",
  "devdoc": {
    "kind": "dev",
    "methods": {},
    "version": 1
  },
  "userdoc": {
    "events": {
      "ProposalCanceled(uint256)": {
        "notice": "An event emitted when a proposal has been canceled"
      },
      "ProposalCreated(uint256,address,address[],uint256[],string[],bytes[],uint256,uint256,string)": {
        "notice": "An event emitted when a new proposal is created"
      },
      "ProposalExecuted(uint256)": {
        "notice": "An event emitted when a proposal has been executed in the Timelock"
      },
      "ProposalQueued(uint256,uint256)": {
        "notice": "An event emitted when a proposal has been queued in the Timelock"
      },
      "VoteCast(address,uint256,bool,uint256)": {
        "notice": "An event emitted when a vote has been cast on a proposal"
      }
    },
    "kind": "user",
    "methods": {
      "BALLOT_TYPEHASH()": {
        "notice": "The EIP-712 typehash for the ballot struct used by the contract"
      },
      "DOMAIN_TYPEHASH()": {
        "notice": "The EIP-712 typehash for the contract's domain"
      },
      "guardian()": {
        "notice": "The address of the Governor Guardian"
      },
      "latestProposalIds(address)": {
        "notice": "The latest proposal for each proposer"
      },
      "name()": {
        "notice": "The name of this contract"
      },
      "proposalCount()": {
        "notice": "The total number of proposals"
      },
      "proposalMaxOperations()": {
        "notice": "The maximum number of actions that can be included in a proposal"
      },
      "proposalThreshold()": {
        "notice": "The number of votes required in order for a voter to become a proposer"
      },
      "proposals(uint256)": {
        "notice": "The official record of all proposals ever proposed"
      },
      "quorumVotes()": {
        "notice": "The number of votes in support of a proposal required in order for a quorum to be reached and for a vote to succeed"
      },
      "timelock()": {
        "notice": "The address of the Compound Protocol Timelock"
      },
      "votingDelay()": {
        "notice": "The delay before voting on a proposal may take place, once proposed"
      },
      "votingPeriod()": {
        "notice": "The duration of voting on a proposal, in blocks"
      },
      "zora()": {
        "notice": "The address of the Compound governance token"
      }
    },
    "version": 1
  }
}