{
  "contractName": "Timelock",
  "abi": [
    {
      "anonymous": false,
      "inputs": [
        {
          "indexed": true,
          "internalType": "bytes32",
          "name": "txHash",
          "type": "bytes32"
        },
        {
          "indexed": true,
          "internalType": "address",
          "name": "target",
          "type": "address"
        },
        {
          "indexed": false,
          "internalType": "uint256",
          "name": "value",
          "type": "uint256"
        },
        {
          "indexed": false,
          "internalType": "string",
          "name": "signature",
          "type": "string"
        },
        {
          "indexed": false,
          "internalType": "bytes",
          "name": "data",
          "type": "bytes"
        },
        {
          "indexed": false,
          "internalType": "uint256",
          "name": "eta",
          "type": "uint256"
        }
      ],
      "name": "CancelTransaction",
      "type": "event"
    },
    {
      "anonymous": false,
      "inputs": [
        {
          "indexed": true,
          "internalType": "bytes32",
          "name": "txHash",
          "type": "bytes32"
        },
        {
          "indexed": true,
          "internalType": "address",
          "name": "target",
          "type": "address"
        },
        {
          "indexed": false,
          "internalType": "uint256",
          "name": "value",
          "type": "uint256"
        },
        {
          "indexed": false,
          "internalType": "string",
          "name": "signature",
          "type": "string"
        },
        {
          "indexed": false,
          "internalType": "bytes",
          "name": "data",
          "type": "bytes"
        },
        {
          "indexed": false,
          "internalType": "uint256",
          "name": "eta",
          "type": "uint256"
        }
      ],
      "name": "ExecuteTransaction",
      "type": "event"
    },
    {
      "anonymous": false,
      "inputs": [
        {
          "indexed": true,
          "internalType": "address",
          "name": "newAdmin",
          "type": "address"
        }
      ],
      "name": "NewAdmin",
      "type": "event"
    },
    {
      "anonymous": false,
      "inputs": [
        {
          "indexed": true,
          "internalType": "uint256",
          "name": "newDelay",
          "type": "uint256"
        }
      ],
      "name": "NewDelay",
      "type": "event"
    },
    {
      "anonymous": false,
      "inputs": [
        {
          "indexed": true,
          "internalType": "address",
          "name": "newPendingAdmin",
          "type": "address"
        }
      ],
      "name": "NewPendingAdmin",
      "type": "event"
    },
    {
      "anonymous": false,
      "inputs": [
        {
          "indexed": true,
          "internalType": "bytes32",
          "name": "txHash",
          "type": "bytes32"
        },
        {
          "indexed": true,
          "internalType": "address",
          "name": "target",
          "type": "address"
        },
        {
          "indexed": false,
          "internalType": "uint256",
          "name": "value",
          "type": "uint256"
        },
        {
          "indexed": false,
          "internalType": "string",
          "name": "signature",
          "type": "string"
        },
        {
          "indexed": false,
          "internalType": "bytes",
          "name": "data",
          "type": "bytes"
        },
        {
          "indexed": false,
          "internalType": "uint256",
          "name": "eta",
          "type": "uint256"
        }
      ],
      "name": "QueueTransaction",
      "type": "event"
    },
    {
      "inputs": [],
      "name": "GRACE_PERIOD",
      "outputs": [
        {
          "internalType": "uint256",
          "name": "",
          "type": "uint256"
        }
      ],
      "stateMutability": "view",
      "type": "function",
      "constant": true
    },
    {
      "inputs": [],
      "name": "MAXIMUM_DELAY",
      "outputs": [
        {
          "internalType": "uint256",
          "name": "",
          "type": "uint256"
        }
      ],
      "stateMutability": "view",
      "type": "function",
      "constant": true
    },
    {
      "inputs": [],
      "name": "MINIMUM_DELAY",
      "outputs": [
        {
          "internalType": "uint256",
          "name": "",
          "type": "uint256"
        }
      ],
      "stateMutability": "view",
      "type": "function",
      "constant": true
    },
    {
      "inputs": [],
      "name": "admin",
      "outputs": [
        {
          "internalType": "address",
          "name": "",
          "type": "address"
        }
      ],
      "stateMutability": "view",
      "type": "function",
      "constant": true
    },
    {
      "inputs": [],
      "name": "admin_initialized",
      "outputs": [
        {
          "internalType": "bool",
          "name": "",
          "type": "bool"
        }
      ],
      "stateMutability": "view",
      "type": "function",
      "constant": true
    },
    {
      "inputs": [],
      "name": "delay",
      "outputs": [
        {
          "internalType": "uint256",
          "name": "",
          "type": "uint256"
        }
      ],
      "stateMutability": "view",
      "type": "function",
      "constant": true
    },
    {
      "inputs": [],
      "name": "pendingAdmin",
      "outputs": [
        {
          "internalType": "address",
          "name": "",
          "type": "address"
        }
      ],
      "stateMutability": "view",
      "type": "function",
      "constant": true
    },
    {
      "inputs": [
        {
          "internalType": "bytes32",
          "name": "",
          "type": "bytes32"
        }
      ],
      "name": "queuedTransactions",
      "outputs": [
        {
          "internalType": "bool",
          "name": "",
          "type": "bool"
        }
      ],
      "stateMutability": "view",
      "type": "function",
      "constant": true
    },
    {
      "stateMutability": "payable",
      "type": "receive",
      "payable": true
    },
    {
      "inputs": [
        {
          "internalType": "address",
          "name": "_admin",
          "type": "address"
        },
        {
          "internalType": "uint256",
          "name": "_delay",
          "type": "uint256"
        }
      ],
      "name": "initialize",
      "outputs": [],
      "stateMutability": "nonpayable",
      "type": "function"
    },
    {
      "inputs": [
        {
          "internalType": "uint256",
          "name": "delay_",
          "type": "uint256"
        }
      ],
      "name": "setDelay",
      "outputs": [],
      "stateMutability": "nonpayable",
      "type": "function"
    },
    {
      "inputs": [],
      "name": "acceptAdmin",
      "outputs": [],
      "stateMutability": "nonpayable",
      "type": "function"
    },
    {
      "inputs": [
        {
          "internalType": "address",
          "name": "pendingAdmin_",
          "type": "address"
        }
      ],
      "name": "setPendingAdmin",
      "outputs": [],
      "stateMutability": "nonpayable",
      "type": "function"
    },
    {
      "inputs": [
        {
          "internalType": "address",
          "name": "target",
          "type": "address"
        },
        {
          "internalType": "uint256",
          "name": "value",
          "type": "uint256"
        },
        {
          "internalType": "string",
          "name": "signature",
          "type": "string"
        },
        {
          "internalType": "bytes",
          "name": "data",
          "type": "bytes"
        },
        {
          "internalType": "uint256",
          "name": "eta",
          "type": "uint256"
        }
      ],
      "name": "queueTransaction",
      "outputs": [
        {
          "internalType": "bytes32",
          "name": "",
          "type": "bytes32"
        }
      ],
      "stateMutability": "nonpayable",
      "type": "function"
    },
    {
      "inputs": [
        {
          "internalType": "address",
          "name": "target",
          "type": "address"
        },
        {
          "internalType": "uint256",
          "name": "value",
          "type": "uint256"
        },
        {
          "internalType": "string",
          "name": "signature",
          "type": "string"
        },
        {
          "internalType": "bytes",
          "name": "data",
          "type": "bytes"
        },
        {
          "internalType": "uint256",
          "name": "eta",
          "type": "uint256"
        }
      ],
      "name": "cancelTransaction",
      "outputs": [],
      "stateMutability": "nonpayable",
      "type": "function"
    },
    {
      "inputs": [
        {
          "internalType": "address",
          "name": "target",
          "type": "address"
        },
        {
          "internalType": "uint256",
          "name": "value",
          "type": "uint256"
        },
        {
          "internalType": "string",
          "name": "signature",
          "type": "string"
        },
        {
          "internalType": "bytes",
          "name": "data",
          "type": "bytes"
        },
        {
          "internalType": "uint256",
          "name": "eta",
          "type": "uint256"
        }
      ],
      "name": "executeTransaction",
      "outputs": [
        {
          "internalType": "bytes",
          "name": "",
          "type": "bytes"
        }
      ],
      "stateMutability": "payable",
      "type": "function",
      "payable": true
    }
  ],
  "bytecode": "0x608060405234801561001057600080fd5b50612276806100206000396000f3fe6080604052600436106100ec5760003560e01c80636fc1f57e1161008a578063cd6dc68711610059578063cd6dc687146107b3578063e177246e1461080e578063f2b0653714610849578063f851a4401461089a576100f3565b80636fc1f57e146107055780637d645fab14610732578063b1b43ae51461075d578063c1a287e214610788576100f3565b80633a66f901116100c65780633a66f9011461034f5780634dd18bf5146104f6578063591fcdfe146105475780636a42b8f8146106da576100f3565b80630825f38f146100f85780630e18b681146102f7578063267822471461030e576100f3565b366100f357005b600080fd5b61027c600480360360a081101561010e57600080fd5b81019080803573ffffffffffffffffffffffffffffffffffffffff169060200190929190803590602001909291908035906020019064010000000081111561015557600080fd5b82018360208201111561016757600080fd5b8035906020019184600183028401116401000000008311171561018957600080fd5b91908080601f016020809104026020016040519081016040528093929190818152602001838380828437600081840152601f19601f820116905080830192505050505050509192919290803590602001906401000000008111156101ec57600080fd5b8201836020820111156101fe57600080fd5b8035906020019184600183028401116401000000008311171561022057600080fd5b91908080601f016020809104026020016040519081016040528093929190818152602001838380828437600081840152601f19601f820116905080830192505050505050509192919290803590602001909291905050506108db565b6040518080602001828103825283818151815260200191508051906020019080838360005b838110156102bc5780820151818401526020810190506102a1565b50505050905090810190601f1680156102e95780820380516001836020036101000a031916815260200191505b509250505060405180910390f35b34801561030357600080fd5b5061030c610f28565b005b34801561031a57600080fd5b506103236110b8565b604051808273ffffffffffffffffffffffffffffffffffffffff16815260200191505060405180910390f35b34801561035b57600080fd5b506104e0600480360360a081101561037257600080fd5b81019080803573ffffffffffffffffffffffffffffffffffffffff16906020019092919080359060200190929190803590602001906401000000008111156103b957600080fd5b8201836020820111156103cb57600080fd5b803590602001918460018302840111640100000000831117156103ed57600080fd5b91908080601f016020809104026020016040519081016040528093929190818152602001838380828437600081840152601f19601f8201169050808301925050505050505091929192908035906020019064010000000081111561045057600080fd5b82018360208201111561046257600080fd5b8035906020019184600183028401116401000000008311171561048457600080fd5b91908080601f016020809104026020016040519081016040528093929190818152602001838380828437600081840152601f19601f820116905080830192505050505050509192919290803590602001909291905050506110de565b6040518082815260200191505060405180910390f35b34801561050257600080fd5b506105456004803603602081101561051957600080fd5b81019080803573ffffffffffffffffffffffffffffffffffffffff16906020019092919050505061148e565b005b34801561055357600080fd5b506106d8600480360360a081101561056a57600080fd5b81019080803573ffffffffffffffffffffffffffffffffffffffff16906020019092919080359060200190929190803590602001906401000000008111156105b157600080fd5b8201836020820111156105c357600080fd5b803590602001918460018302840111640100000000831117156105e557600080fd5b91908080601f016020809104026020016040519081016040528093929190818152602001838380828437600081840152601f19601f8201169050808301925050505050505091929192908035906020019064010000000081111561064857600080fd5b82018360208201111561065a57600080fd5b8035906020019184600183028401116401000000008311171561067c57600080fd5b91908080601f016020809104026020016040519081016040528093929190818152602001838380828437600081840152601f19601f82011690508083019250505050505050919291929080359060200190929190505050611697565b005b3480156106e657600080fd5b506106ef6119cd565b6040518082815260200191505060405180910390f35b34801561071157600080fd5b5061071a6119d3565b60405180821515815260200191505060405180910390f35b34801561073e57600080fd5b506107476119e6565b6040518082815260200191505060405180910390f35b34801561076957600080fd5b506107726119ed565b6040518082815260200191505060405180910390f35b34801561079457600080fd5b5061079d6119f4565b6040518082815260200191505060405180910390f35b3480156107bf57600080fd5b5061080c600480360360408110156107d657600080fd5b81019080803573ffffffffffffffffffffffffffffffffffffffff169060200190929190803590602001909291905050506119fb565b005b34801561081a57600080fd5b506108476004803603602081101561083157600080fd5b8101908080359060200190929190505050611c16565b005b34801561085557600080fd5b506108826004803603602081101561086c57600080fd5b8101908080359060200190929190505050611d8b565b60405180821515815260200191505060405180910390f35b3480156108a657600080fd5b506108af611dab565b604051808273ffffffffffffffffffffffffffffffffffffffff16815260200191505060405180910390f35b6060600060029054906101000a900473ffffffffffffffffffffffffffffffffffffffff1673ffffffffffffffffffffffffffffffffffffffff163373ffffffffffffffffffffffffffffffffffffffff1614610983576040517f08c379a0000000000000000000000000000000000000000000000000000000008152600401808060200182810382526038815260200180611e796038913960400191505060405180910390fd5b60008686868686604051602001808673ffffffffffffffffffffffffffffffffffffffff1681526020018581526020018060200180602001848152602001838103835286818151815260200191508051906020019080838360005b838110156109f95780820151818401526020810190506109de565b50505050905090810190601f168015610a265780820380516001836020036101000a031916815260200191505b50838103825285818151815260200191508051906020019080838360005b83811015610a5f578082015181840152602081019050610a44565b50505050905090810190601f168015610a8c5780820380516001836020036101000a031916815260200191505b509750505050505050506040516020818303038152906040528051906020012090506004600082815260200190815260200160002060009054906101000a900460ff16610b24576040517f08c379a000000000000000000000000000000000000000000000000000000000815260040180806020018281038252603d8152602001806120a7603d913960400191505060405180910390fd5b82610b2d611dd1565b1015610b84576040517f08c379a0000000000000000000000000000000000000000000000000000000008152600401808060200182810382526045815260200180611f8d6045913960600191505060405180910390fd5b610b9a6212750084611dd990919063ffffffff16565b610ba2611dd1565b1115610bf9576040517f08c379a0000000000000000000000000000000000000000000000000000000008152600401808060200182810382526033815260200180611f5a6033913960400191505060405180910390fd5b60006004600083815260200190815260200160002060006101000a81548160ff0219169083151502179055506060600086511415610c3957849050610cd5565b85805190602001208560405160200180837bffffffffffffffffffffffffffffffffffffffffffffffffffffffff1916815260040182805190602001908083835b60208310610c9d5780518252602082019150602081019050602083039250610c7a565b6001836020036101000a0380198251168184511680821785525050505050509050019250505060405160208183030381529060405290505b600060608973ffffffffffffffffffffffffffffffffffffffff1689846040518082805190602001908083835b60208310610d255780518252602082019150602081019050602083039250610d02565b6001836020036101000a03801982511681845116808217855250505050505090500191505060006040518083038185875af1925050503d8060008114610d87576040519150601f19603f3d011682016040523d82523d6000602084013e610d8c565b606091505b509150915081610de7576040517f08c379a000000000000000000000000000000000000000000000000000000000815260040180806020018281038252603d81526020018061218a603d913960400191505060405180910390fd5b8973ffffffffffffffffffffffffffffffffffffffff16847fa560e3198060a2f10670c1ec5b403077ea6ae93ca8de1c32b451dc1a943cd6e78b8b8b8b604051808581526020018060200180602001848152602001838103835286818151815260200191508051906020019080838360005b83811015610e74578082015181840152602081019050610e59565b50505050905090810190601f168015610ea15780820380516001836020036101000a031916815260200191505b50838103825285818151815260200191508051906020019080838360005b83811015610eda578082015181840152602081019050610ebf565b50505050905090810190601f168015610f075780820380516001836020036101000a031916815260200191505b50965050505050505060405180910390a38094505050505095945050505050565b600160009054906101000a900473ffffffffffffffffffffffffffffffffffffffff1673ffffffffffffffffffffffffffffffffffffffff163373ffffffffffffffffffffffffffffffffffffffff1614610fce576040517f08c379a00000000000000000000000000000000000000000000000000000000081526004018080602001828103825260388152602001806120e46038913960400191505060405180910390fd5b33600060026101000a81548173ffffffffffffffffffffffffffffffffffffffff021916908373ffffffffffffffffffffffffffffffffffffffff1602179055506000600160006101000a81548173ffffffffffffffffffffffffffffffffffffffff021916908373ffffffffffffffffffffffffffffffffffffffff160217905550600060029054906101000a900473ffffffffffffffffffffffffffffffffffffffff1673ffffffffffffffffffffffffffffffffffffffff167f71614071b88dee5e0b2ae578a9dd7b2ebbe9ae832ba419dc0242cd065a290b6c60405160405180910390a2565b600160009054906101000a900473ffffffffffffffffffffffffffffffffffffffff1681565b60008060029054906101000a900473ffffffffffffffffffffffffffffffffffffffff1673ffffffffffffffffffffffffffffffffffffffff163373ffffffffffffffffffffffffffffffffffffffff1614611185576040517f08c379a00000000000000000000000000000000000000000000000000000000081526004018080602001828103825260368152602001806121546036913960400191505060405180910390fd5b6111a1600254611193611dd1565b611dd990919063ffffffff16565b8210156111f9576040517f08c379a00000000000000000000000000000000000000000000000000000000081526004018080602001828103825260498152602001806121c76049913960600191505060405180910390fd5b60008686868686604051602001808673ffffffffffffffffffffffffffffffffffffffff1681526020018581526020018060200180602001848152602001838103835286818151815260200191508051906020019080838360005b8381101561126f578082015181840152602081019050611254565b50505050905090810190601f16801561129c5780820380516001836020036101000a031916815260200191505b50838103825285818151815260200191508051906020019080838360005b838110156112d55780820151818401526020810190506112ba565b50505050905090810190601f1680156113025780820380516001836020036101000a031916815260200191505b5097505050505050505060405160208183030381529060405280519060200120905060016004600083815260200190815260200160002060006101000a81548160ff0219169083151502179055508673ffffffffffffffffffffffffffffffffffffffff16817f76e2796dc3a81d57b0e8504b647febcbeeb5f4af818e164f11eef8131a6a763f88888888604051808581526020018060200180602001848152602001838103835286818151815260200191508051906020019080838360005b838110156113dd5780820151818401526020810190506113c2565b50505050905090810190601f16801561140a5780820380516001836020036101000a031916815260200191505b50838103825285818151815260200191508051906020019080838360005b83811015611443578082015181840152602081019050611428565b50505050905090810190601f1680156114705780820380516001836020036101000a031916815260200191505b50965050505050505060405180910390a38091505095945050505050565b600360009054906101000a900460ff161561152c573073ffffffffffffffffffffffffffffffffffffffff163373ffffffffffffffffffffffffffffffffffffffff1614611527576040517f08c379a000000000000000000000000000000000000000000000000000000000815260040180806020018281038252603881526020018061211c6038913960400191505060405180910390fd5b6115ee565b600060029054906101000a900473ffffffffffffffffffffffffffffffffffffffff1673ffffffffffffffffffffffffffffffffffffffff163373ffffffffffffffffffffffffffffffffffffffff16146115d2576040517f08c379a000000000000000000000000000000000000000000000000000000000815260040180806020018281038252603b815260200180612006603b913960400191505060405180910390fd5b6001600360006101000a81548160ff0219169083151502179055505b80600160006101000a81548173ffffffffffffffffffffffffffffffffffffffff021916908373ffffffffffffffffffffffffffffffffffffffff160217905550600160009054906101000a900473ffffffffffffffffffffffffffffffffffffffff1673ffffffffffffffffffffffffffffffffffffffff167f69d78e38a01985fbb1462961809b4b2d65531bc93b2b94037f3334b82ca4a75660405160405180910390a250565b600060029054906101000a900473ffffffffffffffffffffffffffffffffffffffff1673ffffffffffffffffffffffffffffffffffffffff163373ffffffffffffffffffffffffffffffffffffffff161461173d576040517f08c379a0000000000000000000000000000000000000000000000000000000008152600401808060200182810382526037815260200180611eb16037913960400191505060405180910390fd5b60008585858585604051602001808673ffffffffffffffffffffffffffffffffffffffff1681526020018581526020018060200180602001848152602001838103835286818151815260200191508051906020019080838360005b838110156117b3578082015181840152602081019050611798565b50505050905090810190601f1680156117e05780820380516001836020036101000a031916815260200191505b50838103825285818151815260200191508051906020019080838360005b838110156118195780820151818401526020810190506117fe565b50505050905090810190601f1680156118465780820380516001836020036101000a031916815260200191505b5097505050505050505060405160208183030381529060405280519060200120905060006004600083815260200190815260200160002060006101000a81548160ff0219169083151502179055508573ffffffffffffffffffffffffffffffffffffffff16817f2fffc091a501fd91bfbff27141450d3acb40fb8e6d8382b243ec7a812a3aaf8787878787604051808581526020018060200180602001848152602001838103835286818151815260200191508051906020019080838360005b83811015611921578082015181840152602081019050611906565b50505050905090810190601f16801561194e5780820380516001836020036101000a031916815260200191505b50838103825285818151815260200191508051906020019080838360005b8381101561198757808201518184015260208101905061196c565b50505050905090810190601f1680156119b45780820380516001836020036101000a031916815260200191505b50965050505050505060405180910390a3505050505050565b60025481565b600360009054906101000a900460ff1681565b62278d0081565b6202a30081565b6212750081565b600060019054906101000a900460ff1680611a1a5750611a19611e61565b5b80611a30575060008054906101000a900460ff16155b611a85576040517f08c379a000000000000000000000000000000000000000000000000000000000815260040180806020018281038252602e815260200180612079602e913960400191505060405180910390fd5b60008060019054906101000a900460ff161590508015611ad5576001600060016101000a81548160ff02191690831515021790555060016000806101000a81548160ff0219169083151502179055505b6202a300821015611b31576040517f08c379a0000000000000000000000000000000000000000000000000000000008152600401808060200182810382526037815260200180611f236037913960400191505060405180910390fd5b62278d00821115611b8d576040517f08c379a000000000000000000000000000000000000000000000000000000000815260040180806020018281038252603b815260200180611ee8603b913960400191505060405180910390fd5b82600060026101000a81548173ffffffffffffffffffffffffffffffffffffffff021916908373ffffffffffffffffffffffffffffffffffffffff160217905550816002819055506000600360006101000a81548160ff0219169083151502179055508015611c115760008060016101000a81548160ff0219169083151502179055505b505050565b3073ffffffffffffffffffffffffffffffffffffffff163373ffffffffffffffffffffffffffffffffffffffff1614611c9a576040517f08c379a00000000000000000000000000000000000000000000000000000000081526004018080602001828103825260318152602001806122106031913960400191505060405180910390fd5b6202a300811015611cf6576040517f08c379a0000000000000000000000000000000000000000000000000000000008152600401808060200182810382526034815260200180611fd26034913960400191505060405180910390fd5b62278d00811115611d52576040517f08c379a00000000000000000000000000000000000000000000000000000000081526004018080602001828103825260388152602001806120416038913960400191505060405180910390fd5b806002819055506002547f948b1f6a42ee138b7e34058ba85a37f716d55ff25ff05a763f15bed6a04c8d2c60405160405180910390a250565b60046020528060005260406000206000915054906101000a900460ff1681565b600060029054906101000a900473ffffffffffffffffffffffffffffffffffffffff1681565b600042905090565b600080828401905083811015611e57576040517f08c379a000000000000000000000000000000000000000000000000000000000815260040180806020018281038252601b8152602001807f536166654d6174683a206164646974696f6e206f766572666c6f77000000000081525060200191505060405180910390fd5b8091505092915050565b6000803090506000813b905060008114925050509056fe54696d656c6f636b3a3a657865637574655472616e73616374696f6e3a2043616c6c206d75737420636f6d652066726f6d2061646d696e2e54696d656c6f636b3a3a63616e63656c5472616e73616374696f6e3a2043616c6c206d75737420636f6d652066726f6d2061646d696e2e54696d656c6f636b3a3a636f6e7374727563746f723a2044656c6179206d757374206e6f7420657863656564206d6178696d756d2064656c61792e54696d656c6f636b3a3a636f6e7374727563746f723a2044656c6179206d75737420657863656564206d696e696d756d2064656c61792e54696d656c6f636b3a3a657865637574655472616e73616374696f6e3a205472616e73616374696f6e206973207374616c652e54696d656c6f636b3a3a657865637574655472616e73616374696f6e3a205472616e73616374696f6e206861736e2774207375727061737365642074696d65206c6f636b2e54696d656c6f636b3a3a73657444656c61793a2044656c6179206d75737420657863656564206d696e696d756d2064656c61792e54696d656c6f636b3a3a73657450656e64696e6741646d696e3a2046697273742063616c6c206d75737420636f6d652066726f6d2061646d696e2e54696d656c6f636b3a3a73657444656c61793a2044656c6179206d757374206e6f7420657863656564206d6178696d756d2064656c61792e496e697469616c697a61626c653a20636f6e747261637420697320616c726561647920696e697469616c697a656454696d656c6f636b3a3a657865637574655472616e73616374696f6e3a205472616e73616374696f6e206861736e2774206265656e207175657565642e54696d656c6f636b3a3a61636365707441646d696e3a2043616c6c206d75737420636f6d652066726f6d2070656e64696e6741646d696e2e54696d656c6f636b3a3a73657450656e64696e6741646d696e3a2043616c6c206d75737420636f6d652066726f6d2054696d656c6f636b2e54696d656c6f636b3a3a71756575655472616e73616374696f6e3a2043616c6c206d75737420636f6d652066726f6d2061646d696e2e54696d656c6f636b3a3a657865637574655472616e73616374696f6e3a205472616e73616374696f6e20657865637574696f6e2072657665727465642e54696d656c6f636b3a3a71756575655472616e73616374696f6e3a20457374696d6174656420657865637574696f6e20626c6f636b206d75737420736174697366792064656c61792e54696d656c6f636b3a3a73657444656c61793a2043616c6c206d75737420636f6d652066726f6d2054696d656c6f636b2ea264697066735822122030319849b909423c94a465325ae4bdb9591af7ce4ec4e10a917285dbb61c433664736f6c634300060c0033",
  "immutableReferences": {},
  "source": "// SPDX-License-Identifier: MIT\npragma solidity 0.6.12;\n\nimport \"@openzeppelin/contracts-upgradeable/math/SafeMathUpgradeable.sol\";\nimport \"@openzeppelin/contracts-upgradeable/proxy/Initializable.sol\";\n\ncontract Timelock is Initializable {\n    using SafeMathUpgradeable for uint256;\n\n    event NewAdmin(address indexed newAdmin);\n    event NewPendingAdmin(address indexed newPendingAdmin);\n    event NewDelay(uint256 indexed newDelay);\n    event CancelTransaction(\n        bytes32 indexed txHash,\n        address indexed target,\n        uint256 value,\n        string signature,\n        bytes data,\n        uint256 eta\n    );\n    event ExecuteTransaction(\n        bytes32 indexed txHash,\n        address indexed target,\n        uint256 value,\n        string signature,\n        bytes data,\n        uint256 eta\n    );\n    event QueueTransaction(\n        bytes32 indexed txHash,\n        address indexed target,\n        uint256 value,\n        string signature,\n        bytes data,\n        uint256 eta\n    );\n\n    uint256 public constant GRACE_PERIOD = 14 days;\n    uint256 public constant MINIMUM_DELAY = 2 days;\n    uint256 public constant MAXIMUM_DELAY = 30 days;\n\n    address public admin;\n    address public pendingAdmin;\n    uint256 public delay;\n    bool public admin_initialized;\n\n    mapping(bytes32 => bool) public queuedTransactions;\n\n    function initialize(address _admin, uint256 _delay) public initializer {\n        require(\n            _delay >= MINIMUM_DELAY,\n            \"Timelock::constructor: Delay must exceed minimum delay.\"\n        );\n        require(\n            _delay <= MAXIMUM_DELAY,\n            \"Timelock::constructor: Delay must not exceed maximum delay.\"\n        );\n\n        admin = _admin;\n        delay = _delay;\n        admin_initialized = false;\n    }\n\n    // XXX: function() external payable { }\n    receive() external payable {}\n\n    function setDelay(uint256 delay_) public {\n        require(\n            msg.sender == address(this),\n            \"Timelock::setDelay: Call must come from Timelock.\"\n        );\n        require(\n            delay_ >= MINIMUM_DELAY,\n            \"Timelock::setDelay: Delay must exceed minimum delay.\"\n        );\n        require(\n            delay_ <= MAXIMUM_DELAY,\n            \"Timelock::setDelay: Delay must not exceed maximum delay.\"\n        );\n        delay = delay_;\n\n        emit NewDelay(delay);\n    }\n\n    function acceptAdmin() public {\n        require(\n            msg.sender == pendingAdmin,\n            \"Timelock::acceptAdmin: Call must come from pendingAdmin.\"\n        );\n        admin = msg.sender;\n        pendingAdmin = address(0);\n\n        emit NewAdmin(admin);\n    }\n\n    function setPendingAdmin(address pendingAdmin_) public {\n        // allows one time setting of admin for deployment purposes\n        if (admin_initialized) {\n            require(\n                msg.sender == address(this),\n                \"Timelock::setPendingAdmin: Call must come from Timelock.\"\n            );\n        } else {\n            require(\n                msg.sender == admin,\n                \"Timelock::setPendingAdmin: First call must come from admin.\"\n            );\n            admin_initialized = true;\n        }\n        pendingAdmin = pendingAdmin_;\n\n        emit NewPendingAdmin(pendingAdmin);\n    }\n\n    function queueTransaction(\n        address target,\n        uint256 value,\n        string memory signature,\n        bytes memory data,\n        uint256 eta\n    ) public returns (bytes32) {\n        require(\n            msg.sender == admin,\n            \"Timelock::queueTransaction: Call must come from admin.\"\n        );\n        require(\n            eta >= getBlockTimestamp().add(delay),\n            \"Timelock::queueTransaction: Estimated execution block must satisfy delay.\"\n        );\n\n        bytes32 txHash = keccak256(\n            abi.encode(target, value, signature, data, eta)\n        );\n        queuedTransactions[txHash] = true;\n\n        emit QueueTransaction(txHash, target, value, signature, data, eta);\n        return txHash;\n    }\n\n    function cancelTransaction(\n        address target,\n        uint256 value,\n        string memory signature,\n        bytes memory data,\n        uint256 eta\n    ) public {\n        require(\n            msg.sender == admin,\n            \"Timelock::cancelTransaction: Call must come from admin.\"\n        );\n\n        bytes32 txHash = keccak256(\n            abi.encode(target, value, signature, data, eta)\n        );\n        queuedTransactions[txHash] = false;\n\n        emit CancelTransaction(txHash, target, value, signature, data, eta);\n    }\n\n    function executeTransaction(\n        address target,\n        uint256 value,\n        string memory signature,\n        bytes memory data,\n        uint256 eta\n    ) public payable returns (bytes memory) {\n        require(\n            msg.sender == admin,\n            \"Timelock::executeTransaction: Call must come from admin.\"\n        );\n\n        bytes32 txHash = keccak256(\n            abi.encode(target, value, signature, data, eta)\n        );\n        require(\n            queuedTransactions[txHash],\n            \"Timelock::executeTransaction: Transaction hasn't been queued.\"\n        );\n        require(\n            getBlockTimestamp() >= eta,\n            \"Timelock::executeTransaction: Transaction hasn't surpassed time lock.\"\n        );\n        require(\n            getBlockTimestamp() <= eta.add(GRACE_PERIOD),\n            \"Timelock::executeTransaction: Transaction is stale.\"\n        );\n\n        queuedTransactions[txHash] = false;\n\n        bytes memory callData;\n\n        if (bytes(signature).length == 0) {\n            callData = data;\n        } else {\n            callData = abi.encodePacked(\n                bytes4(keccak256(bytes(signature))),\n                data\n            );\n        }\n\n        // solium-disable-next-line security/no-call-value\n        (bool success, bytes memory returnData) = target.call.value(value)(\n            callData\n        );\n        require(\n            success,\n            \"Timelock::executeTransaction: Transaction execution reverted.\"\n        );\n\n        emit ExecuteTransaction(txHash, target, value, signature, data, eta);\n\n        return returnData;\n    }\n\n    function getBlockTimestamp() internal view returns (uint256) {\n        // solium-disable-next-line security/no-block-members\n        return block.timestamp;\n    }\n}\n",
  "sourcePath": "/home/prince/zoracles/contracts/Timelock.sol",
  "compiler": {
    "name": "solc",
    "version": "0.6.12+commit.27d51765.Emscripten.clang"
  },
  "schemaVersion": "3.3.2",
  "updatedAt": "2020-11-18T06:16:39.122Z",
  "networkType": "ethereum",
  "devdoc": {
    "kind": "dev",
    "methods": {},
    "version": 1
  },
  "userdoc": {
    "kind": "user",
    "methods": {},
    "version": 1
  }
}