{
  "contractName": "Vesting",
  "abi": [
    {
      "inputs": [
        {
          "internalType": "contract IERC20",
          "name": "token_",
          "type": "address"
        }
      ],
      "stateMutability": "nonpayable",
      "type": "constructor"
    },
    {
      "anonymous": false,
      "inputs": [
        {
          "indexed": false,
          "internalType": "address",
          "name": "beneficary",
          "type": "address"
        },
        {
          "indexed": false,
          "internalType": "uint256",
          "name": "amount",
          "type": "uint256"
        }
      ],
      "name": "TokenReleased",
      "type": "event"
    },
    {
      "anonymous": false,
      "inputs": [
        {
          "indexed": false,
          "internalType": "address",
          "name": "beneficary",
          "type": "address"
        },
        {
          "indexed": false,
          "internalType": "uint256",
          "name": "amount",
          "type": "uint256"
        },
        {
          "indexed": false,
          "internalType": "uint256",
          "name": "cliffPeriod",
          "type": "uint256"
        },
        {
          "indexed": false,
          "internalType": "uint256",
          "name": "vestingPeriod",
          "type": "uint256"
        },
        {
          "indexed": false,
          "internalType": "uint256",
          "name": "vestingStartTime",
          "type": "uint256"
        },
        {
          "indexed": false,
          "internalType": "uint256",
          "name": "withdrawalPerDay",
          "type": "uint256"
        }
      ],
      "name": "TokenVested",
      "type": "event"
    },
    {
      "inputs": [
        {
          "internalType": "address",
          "name": "",
          "type": "address"
        }
      ],
      "name": "addressInfo",
      "outputs": [
        {
          "internalType": "uint256",
          "name": "vestedTokens",
          "type": "uint256"
        },
        {
          "internalType": "uint256",
          "name": "cliffPeriod",
          "type": "uint256"
        },
        {
          "internalType": "uint256",
          "name": "vestingPeriod",
          "type": "uint256"
        },
        {
          "internalType": "uint256",
          "name": "vestingStartTime",
          "type": "uint256"
        },
        {
          "internalType": "uint256",
          "name": "withdrawalPerDay",
          "type": "uint256"
        }
      ],
      "stateMutability": "view",
      "type": "function",
      "constant": true
    },
    {
      "inputs": [
        {
          "internalType": "address",
          "name": "",
          "type": "address"
        }
      ],
      "name": "tokensAlreadyWithdrawn",
      "outputs": [
        {
          "internalType": "uint256",
          "name": "",
          "type": "uint256"
        }
      ],
      "stateMutability": "view",
      "type": "function",
      "constant": true
    },
    {
      "inputs": [],
      "name": "token",
      "outputs": [
        {
          "internalType": "contract IERC20",
          "name": "",
          "type": "address"
        }
      ],
      "stateMutability": "view",
      "type": "function",
      "constant": true
    },
    {
      "inputs": [],
      "name": "totalTokensVested",
      "outputs": [
        {
          "internalType": "uint256",
          "name": "",
          "type": "uint256"
        }
      ],
      "stateMutability": "view",
      "type": "function",
      "constant": true
    },
    {
      "inputs": [
        {
          "internalType": "address",
          "name": "beneficiary",
          "type": "address"
        },
        {
          "internalType": "uint256",
          "name": "amount",
          "type": "uint256"
        },
        {
          "internalType": "uint256",
          "name": "cliffPeriod",
          "type": "uint256"
        },
        {
          "internalType": "uint256",
          "name": "vestingPeriod",
          "type": "uint256"
        }
      ],
      "name": "deposit",
      "outputs": [
        {
          "internalType": "bool",
          "name": "success",
          "type": "bool"
        }
      ],
      "stateMutability": "nonpayable",
      "type": "function"
    },
    {
      "inputs": [],
      "name": "withdraw",
      "outputs": [],
      "stateMutability": "nonpayable",
      "type": "function"
    },
    {
      "inputs": [
        {
          "internalType": "address",
          "name": "beneficiary",
          "type": "address"
        }
      ],
      "name": "getAvailableTokens",
      "outputs": [
        {
          "internalType": "uint256",
          "name": "",
          "type": "uint256"
        }
      ],
      "stateMutability": "view",
      "type": "function",
      "constant": true
    }
  ],
  "bytecode": "0x608060405234801561001057600080fd5b50604051610e82380380610e828339818101604052602081101561003357600080fd5b8101908080519060200190929190505050806000806101000a81548173ffffffffffffffffffffffffffffffffffffffff021916908373ffffffffffffffffffffffffffffffffffffffff16021790555050610dee806100946000396000f3fe608060405234801561001057600080fd5b506004361061007d5760003560e01c80633ccfd60b1161005b5780633ccfd60b1461016c57806380f22ae114610176578063ce88b439146101ce578063fc0c546a146102465761007d565b80630415af8114610082578063196708ff146100a05780632126fcb2146100f8575b600080fd5b61008a61027a565b6040518082815260200191505060405180910390f35b6100e2600480360360208110156100b657600080fd5b81019080803573ffffffffffffffffffffffffffffffffffffffff169060200190929190505050610344565b6040518082815260200191505060405180910390f35b61013a6004803603602081101561010e57600080fd5b81019080803573ffffffffffffffffffffffffffffffffffffffff16906020019092919050505061035c565b604051808681526020018581526020018481526020018381526020018281526020019550505050505060405180910390f35b610174610392565b005b6101b86004803603602081101561018c57600080fd5b81019080803573ffffffffffffffffffffffffffffffffffffffff1690602001909291905050506107fa565b6040518082815260200191505060405180910390f35b61022e600480360360808110156101e457600080fd5b81019080803573ffffffffffffffffffffffffffffffffffffffff169060200190929190803590602001909291908035906020019092919080359060200190929190505050610925565b60405180821515815260200191505060405180910390f35b61024e610c78565b604051808273ffffffffffffffffffffffffffffffffffffffff16815260200191505060405180910390f35b60008060009054906101000a900473ffffffffffffffffffffffffffffffffffffffff1673ffffffffffffffffffffffffffffffffffffffff166370a08231306040518263ffffffff1660e01b8152600401808273ffffffffffffffffffffffffffffffffffffffff16815260200191505060206040518083038186803b15801561030457600080fd5b505afa158015610318573d6000803e3d6000fd5b505050506040513d602081101561032e57600080fd5b8101908080519060200190929190505050905090565b60026020528060005260406000206000915090505481565b60016020528060005260406000206000915090508060000154908060010154908060020154908060030154908060040154905085565b61039a610ca1565b600160003373ffffffffffffffffffffffffffffffffffffffff1673ffffffffffffffffffffffffffffffffffffffff1681526020019081526020016000206040518060a00160405290816000820154815260200160018201548152602001600282015481526020016003820154815260200160048201548152505090506000816000015111610475576040517f08c379a0000000000000000000000000000000000000000000000000000000008152600401808060200182810382526028815260200180610d4e6028913960400191505060405180910390fd5b620151808160200151028160600151014210156104dd576040517f08c379a0000000000000000000000000000000000000000000000000000000008152600401808060200182810382526025815260200180610cd16025913960400191505060405180910390fd5b60006104e8336107fa565b90506000600260003373ffffffffffffffffffffffffffffffffffffffff1673ffffffffffffffffffffffffffffffffffffffff1681526020019081526020016000205490508260000151818301111561058d576040517f08c379a0000000000000000000000000000000000000000000000000000000008152600401808060200182810382526035815260200180610d196035913960400191505060405180910390fd5b82600001518183011415610685576000600260003373ffffffffffffffffffffffffffffffffffffffff1673ffffffffffffffffffffffffffffffffffffffff168152602001908152602001600020819055506040518060a00160405280600081526020016000815260200160008152602001600081526020016000815250600160003373ffffffffffffffffffffffffffffffffffffffff1673ffffffffffffffffffffffffffffffffffffffff16815260200190815260200160002060008201518160000155602082015181600101556040820151816002015560608201518160030155608082015181600401559050506106d3565b81600260003373ffffffffffffffffffffffffffffffffffffffff1673ffffffffffffffffffffffffffffffffffffffff168152602001908152602001600020600082825401925050819055505b7f9cf9e3ab58b33f06d81842ea0ad850b6640c6430d6396973312e1715792e7a913383604051808373ffffffffffffffffffffffffffffffffffffffff1681526020018281526020019250505060405180910390a160008054906101000a900473ffffffffffffffffffffffffffffffffffffffff1673ffffffffffffffffffffffffffffffffffffffff1663a9059cbb33846040518363ffffffff1660e01b8152600401808373ffffffffffffffffffffffffffffffffffffffff16815260200182815260200192505050602060405180830381600087803b1580156107b957600080fd5b505af11580156107cd573d6000803e3d6000fd5b505050506040513d60208110156107e357600080fd5b810190808051906020019092919050505050505050565b6000610804610ca1565b600160008473ffffffffffffffffffffffffffffffffffffffff1673ffffffffffffffffffffffffffffffffffffffff1681526020019081526020016000206040518060a001604052908160008201548152602001600182015481526020016002820154815260200160038201548152602001600482015481525050905060008160000151111561091a57600062015180826040015102826060015101905060006201518083606001518342116108bb57426108bd565b835b03816108c557fe5b049050600260008673ffffffffffffffffffffffffffffffffffffffff1673ffffffffffffffffffffffffffffffffffffffff1681526020019081526020016000205483608001518202039350505050610920565b60009150505b919050565b600061092f610ca1565b600160003373ffffffffffffffffffffffffffffffffffffffff1673ffffffffffffffffffffffffffffffffffffffff1681526020019081526020016000206040518060a00160405290816000820154815260200160018201548152602001600282015481526020016003820154815260200160048201548152505090506000816000015114610a0a576040517f08c379a0000000000000000000000000000000000000000000000000000000008152600401808060200182810382526043815260200180610d766043913960600191505060405180910390fd5b60008054906101000a900473ffffffffffffffffffffffffffffffffffffffff1673ffffffffffffffffffffffffffffffffffffffff166323b872dd3330886040518463ffffffff1660e01b8152600401808473ffffffffffffffffffffffffffffffffffffffff1681526020018373ffffffffffffffffffffffffffffffffffffffff1681526020018281526020019350505050602060405180830381600087803b158015610ab957600080fd5b505af1158015610acd573d6000803e3d6000fd5b505050506040513d6020811015610ae357600080fd5b8101908080519060200190929190505050610b49576040517f08c379a0000000000000000000000000000000000000000000000000000000008152600401808060200182810382526023815260200180610cf66023913960400191505060405180910390fd5b6040518060a00160405280868152602001858152602001848152602001428152602001848781610b7557fe5b04815250600160008873ffffffffffffffffffffffffffffffffffffffff1673ffffffffffffffffffffffffffffffffffffffff16815260200190815260200160002060008201518160000155602082015181600101556040820151816002015560608201518160030155608082015181600401559050507f80cc5395ac211360399f5966af683823e376d7c1a57e0a9dfec6008cbe8cd7c38686868642888b81610c1c57fe5b04604051808773ffffffffffffffffffffffffffffffffffffffff168152602001868152602001858152602001848152602001838152602001828152602001965050505050505060405180910390a16001915050949350505050565b60008060009054906101000a900473ffffffffffffffffffffffffffffffffffffffff16905090565b6040518060a001604052806000815260200160008152602001600081526020016000815260200160008152509056fe56657374696e673a20436c69666620706572696f64206973206e6f74206f7665722079657456657374696e673a20506c6561736520617070726f766520746f6b656e20666972737456657374696e673a2043616e2774207769746864726177206d6f7265207468616e2076657374656420746f6b656e20616d6f756e7456657374696e673a20596f7520646f6e2774206861766520616e792076657374656420746f6b656e56657374696e673a2042656e656669636961727920616c726561647920686176652076657374656420746f6b656e2e2055736520616e6f746865722061646472657373a26469706673582212200f194bcc958343382c1a6e74025e277fe1d4d43767478681664df59b0b1ef9be64736f6c634300060c0033",
  "immutableReferences": {},
  "source": "// SPDX-License-Identifier: MIT\npragma solidity 0.6.12;\n\nimport \"./interfaces/IERC20.sol\";\n\n/**\n * @dev A token holder contract that will allow a beneficiary to extract the\n * tokens after a given release time.\n *\n * Useful for vesting schedules with cliff period.\n */\ncontract Vesting {\n    // ERC20 basic token contract being held\n    IERC20 private _token;\n\n    // Vesting struct to store address info\n    struct VestingStruct {\n        uint256 vestedTokens;\n        uint256 cliffPeriod;\n        uint256 vestingPeriod;\n        uint256 vestingStartTime;\n        uint256 withdrawalPerDay;\n    }\n\n    // Mapping to store Balance and Release Time of Beneficiary\n    mapping(address => VestingStruct) public addressInfo;\n\n    mapping(address => uint256) public tokensAlreadyWithdrawn;\n\n    /**\n     * @dev Triggers on new deposit call\n     */\n    event TokenVested(\n        address beneficary,\n        uint256 amount,\n        uint256 cliffPeriod,\n        uint256 vestingPeriod,\n        uint256 vestingStartTime,\n        uint256 withdrawalPerDay\n    );\n\n    /**\n     * @dev Triggers on every release\n     */\n    event TokenReleased(address beneficary, uint256 amount);\n\n    /**\n     * @dev Sets the token address to be vested.\n     *\n     * token_ value is immutable: they can only be set once during\n     * construction.\n     */\n    constructor(IERC20 token_) public {\n        _token = token_;\n    }\n\n    /**\n     * @return the token being held.\n     */\n    function token() public view returns (IERC20) {\n        return _token;\n    }\n\n    /**\n     * @return the total token stored in the contract\n     */\n    function totalTokensVested() public view returns (uint256) {\n        return _token.balanceOf(address(this));\n    }\n\n    /**\n     * @notice Deposit tokens for vesting.\n     * @param beneficiary The address, who can release token after vesting duration.\n     * @param amount The amount of token to be locked.\n     * @param vestingPeriod Must be in days.\n     */\n    function deposit(\n        address beneficiary,\n        uint256 amount,\n        uint256 cliffPeriod,\n        uint256 vestingPeriod\n    ) public returns (bool success) {\n        VestingStruct memory result = addressInfo[msg.sender];\n\n        require(\n            result.vestedTokens == 0,\n            \"Vesting: Beneficiary already have vested token. Use another address\"\n        );\n\n        require(\n            _token.transferFrom(msg.sender, address(this), amount),\n            \"Vesting: Please approve token first\"\n        );\n\n        addressInfo[beneficiary] = VestingStruct(\n            amount,\n            cliffPeriod,\n            vestingPeriod,\n            block.timestamp,\n            amount / vestingPeriod\n        );\n\n        emit TokenVested(\n            beneficiary,\n            amount,\n            cliffPeriod,\n            vestingPeriod,\n            block.timestamp,\n            amount / vestingPeriod\n        );\n\n        return true;\n    }\n\n    /**\n     * @notice Transfers tokens held by timelock to beneficiary.\n     */\n    function withdraw() public virtual {\n        VestingStruct memory result = addressInfo[msg.sender];\n\n        require(\n            result.vestedTokens > 0,\n            \"Vesting: You don't have any vested token\"\n        );\n\n        require(\n            block.timestamp >=\n                (result.vestingStartTime + (result.cliffPeriod * 1 days)),\n            \"Vesting: Cliff period is not over yet\"\n        );\n\n        uint256 tokensAvailable = getAvailableTokens(msg.sender);\n        uint256 alreadyWithdrawn = tokensAlreadyWithdrawn[msg.sender];\n\n        require(\n            tokensAvailable + alreadyWithdrawn <= result.vestedTokens,\n            \"Vesting: Can't withdraw more than vested token amount\"\n        );\n\n        if (tokensAvailable + alreadyWithdrawn == result.vestedTokens) {\n            tokensAlreadyWithdrawn[msg.sender] = 0;\n            addressInfo[msg.sender] = VestingStruct(0, 0, 0, 0, 0);\n        } else {\n            tokensAlreadyWithdrawn[msg.sender] += tokensAvailable;\n        }\n\n        emit TokenReleased(msg.sender, tokensAvailable);\n\n        _token.transfer(msg.sender, tokensAvailable);\n    }\n\n    function getAvailableTokens(address beneficiary)\n        public\n        view\n        returns (uint256)\n    {\n        VestingStruct memory result = addressInfo[beneficiary];\n\n        if (result.vestedTokens > 0) {\n            uint256 vestingEndTime = (result.vestingStartTime +\n                (result.vestingPeriod * 1 days));\n\n            uint256 totalDays = ((\n                block.timestamp > vestingEndTime\n                    ? vestingEndTime\n                    : block.timestamp\n            ) - result.vestingStartTime) / 1 days;\n\n            return\n                (totalDays * result.withdrawalPerDay) -\n                tokensAlreadyWithdrawn[beneficiary];\n        } else {\n            return 0;\n        }\n    }\n}\n",
  "sourcePath": "/home/prince/zoracle/zoracles/contracts/Vesting.sol",
  "compiler": {
    "name": "solc",
    "version": "0.6.12+commit.27d51765.Emscripten.clang"
  },
  "schemaVersion": "3.3.2",
  "updatedAt": "2020-12-12T10:36:56.006Z",
  "networkType": "ethereum",
  "devdoc": {
    "details": "A token holder contract that will allow a beneficiary to extract the tokens after a given release time. Useful for vesting schedules with cliff period.",
    "events": {
      "TokenReleased(address,uint256)": {
        "details": "Triggers on every release"
      },
      "TokenVested(address,uint256,uint256,uint256,uint256,uint256)": {
        "details": "Triggers on new deposit call"
      }
    },
    "kind": "dev",
    "methods": {
      "constructor": {
        "details": "Sets the token address to be vested. token_ value is immutable: they can only be set once during construction."
      },
      "deposit(address,uint256,uint256,uint256)": {
        "params": {
          "amount": "The amount of token to be locked.",
          "beneficiary": "The address, who can release token after vesting duration.",
          "vestingPeriod": "Must be in days."
        }
      },
      "token()": {
        "returns": {
          "_0": "the token being held."
        }
      },
      "totalTokensVested()": {
        "returns": {
          "_0": "the total token stored in the contract"
        }
      }
    },
    "version": 1
  },
  "userdoc": {
    "kind": "user",
    "methods": {
      "deposit(address,uint256,uint256,uint256)": {
        "notice": "Deposit tokens for vesting."
      },
      "withdraw()": {
        "notice": "Transfers tokens held by timelock to beneficiary."
      }
    },
    "version": 1
  }
}